:020000040800F2
:10000000000002209D15000821110008231100089E
:100010002511000827110008291100080000000020
:10002000000000000000000000000000E1370008B0
:100030002B11000800000000813800082535000859
:10004000ED150008ED150008ED150008ED15000888
:10005000ED150008ED150008ED150008ED15000878
:10006000ED150008ED1500082D110008ED1500082C
:10007000ED150008ED150008ED150008ED15000858
:10008000ED150008ED150008ED1500083911000800
:100090004911000859110008ED1500086911000800
:1000A000ED150008ED150008ED150008ED15000828
:1000B000ED150008ED150008ED150008ED15000818
:1000C000ED150008ED150008ED150008ED15000808
:1000D000ED150008ED150008ED150008ED150008F8
:1000E000ED150008ED150008ED150008ED150008E8
:1000F0007511000885110008ED150008ED150008C0
:10010000ED150008ED150008ED150008ED150008C7
:10011000ED150008ED15000895110008ED15000813
:10012000A5110008ED150008ED150008ED150008F3
:10013000ED1500080000000000000000ED150008AB
:10014000ED150008ED150008ED150008ED15000887
:10015000ED150008ED150008ED150008ED15000877
:10016000ED150008ED150008ED150008ED15000867
:10017000ED150008ED15000800000000000000006B
:08018000ED150008ED15000863
:1001900010B5054C237833B9044B13B10448AFF3C1
:1001A00000800123237010BD08090020000000001A
:1001B000AC5D000808B5034B1BB103490348AFF31E
:1001C000008008BD000000000C090020AC5D0008A4
:1001D00053B94AB9002908BF00281CBF4FF0FF31AE
:1001E0004FF0FF3000F074B9ADF1080C6DE904CEAA
:1001F00000F006F8DDF804E0DDE9022304B0704702
:100200002DE9F047089D04468E46002B4DD18A42C9
:10021000944669D9B2FA82F252B101FA02F3C2F1FC
:10022000200120FA01F10CFA02FC41EA030E94408D
:100230004FEA1C48210CBEFBF8F61FFA8CF708FBAE
:1002400016E341EA034306FB07F199420AD91CEB86
:10025000030306F1FF3080F01F81994240F21C81B8
:10026000023E63445B1AA4B2B3FBF8F008FB103300
:1002700044EA034400FB07F7A7420AD91CEB040435
:1002800000F1FF3380F00A81A74240F20781644405
:10029000023840EA0640E41B00261DB1D44000238A
:1002A000C5E900433146BDE8F0878B4209D9002DEE
:1002B00000F0EF800026C5E9000130463146BDE878
:1002C000F087B3FA83F6002E4AD18B4202D38242E2
:1002D00000F2F980841A61EB030301209E46002D91
:1002E000E0D0C5E9004EDDE702B9FFDEB2FA82F2E6
:1002F000002A40F09280A1EB0C014FEA1C471FFA44
:100300008CFE0126200CB1FBF7F307FB131140EA2A
:1003100001410EFB03F0884208D91CEB010103F1F7
:10032000FF3802D2884200F2CB804346091AA4B2B9
:10033000B1FBF7F007FB101144EA01440EFB00FE8D
:10034000A64508D91CEB040400F1FF3102D2A645F2
:1003500000F2BB800846A4EB0E0440EA03409CE791
:10036000C6F12007B34022FA07FC4CEA030C20FA3E
:1003700007F401FA06F31C43F9404FEA1C4900FA5E
:1003800006F3B1FBF9F8200C1FFA8CFE09FB1811DB
:1003900040EA014108FB0EF0884202FA06F20BD94E
:1003A0001CEB010108F1FF3A80F08880884240F29E
:1003B0008580A8F102086144091AA4B2B1FBF9F0E2
:1003C00009FB101144EA014100FB0EFE8E4508D9DD
:1003D0001CEB010100F1FF346CD28E456AD9023862
:1003E000614440EA0840A0FB0294A1EB0E01A14247
:1003F000C846A64656D353D05DB1B3EB080261EBB5
:100400000E0101FA07F722FA06F3F1401F43C5E98E
:10041000007100263146BDE8F087C2F12003D840C4
:100420000CFA02FC21FA03F3914001434FEA1C4706
:100430001FFA8CFEB3FBF7F007FB10360B0C43EAF8
:10044000064300FB0EF69E4204FA02F408D91CEBA8
:10045000030300F1FF382FD29E422DD902386344A6
:100460009B1B89B2B3FBF7F607FB163341EA034146
:1004700006FB0EF38B4208D91CEB010106F1FF3895
:1004800016D28B4214D9023E6144C91A46EA00468C
:1004900038E72E46284605E70646E3E61846F8E61E
:1004A0004B45A9D2B9EB020864EB0C0E0138A3E767
:1004B0004646EAE7204694E74046D1E7D0467BE748
:1004C000023B614432E7304609E76444023842E7C0
:1004D000704700BF844641EA000313F003036DD167
:1004E000403A41D351F8043B40F8043B51F8043BF7
:1004F00040F8043B51F8043B40F8043B51F8043BFE
:1005000040F8043B51F8043B40F8043B51F8043BED
:1005100040F8043B51F8043B40F8043B51F8043BDD
:1005200040F8043B51F8043B40F8043B51F8043BCD
:1005300040F8043B51F8043B40F8043B51F8043BBD
:1005400040F8043B51F8043B40F8043B51F8043BAD
:1005500040F8043B51F8043B40F8043B51F8043B9D
:1005600040F8043B403ABDD2303211D351F8043B3D
:1005700040F8043B51F8043B40F8043B51F8043B7D
:1005800040F8043B51F8043B40F8043B103AEDD2EC
:100590000C3205D351F8043B40F8043B043AF9D23D
:1005A000043208D0D2071CBF11F8013B00F8013B10
:1005B00001D30B8803806046704700BF082A13D31D
:1005C0008B078DD010F003038AD0C3F10403D21A35
:1005D000DB071CBF11F8013B00F8013B80D331F869
:1005E000023B20F8023B7BE7043AD9D3013A11F8E9
:1005F000013B00F8013BF9D20B7803704B78437054
:100600008B7883706046704700B585B000230093F7
:100610000193029303932848284A02604360836051
:1006200001220261037680F820304FF08051C162D0
:100630004FF000618162C3600421C16180F8302005
:10064000436101F09BF840BB0A230093012301930F
:10065000052302936946184801F0D6F900BB0B2325
:100660000093022301936946134801F0CDF9D0B9F4
:100670000C2300930323019369460F4801F0C4F94A
:10068000A0B90D2300930423019369460A4801F0A1
:10069000BBF970B905B05DF804FB00F025FBD3E7AA
:1006A00000F022FBDBE700F01FFBE1E700F01CFBA2
:1006B000E7E700F019FBEDE73C09002000200140CE
:1006C00030B589B0002303930493059306930793F1
:1006D000026803F1804303F590339A4201D009B0D8
:1006E00030BD04460025019503F58C335A6C42F465
:1006F00080725A645A6C02F480720192019A0295D7
:100700001A6B42F004021A631B6B03F0040302939A
:10071000029B0F2303930323049303A9104801F0C2
:10072000C9FF1048104B036045608560C5604FF4F9
:10073000806303614FF4805343614FF480438361CE
:100740004FF48073C3610562456201F029FE18B958
:10075000044BA3639C63C2E700F0C6FAF8E700BF4E
:1007600000080240840900201064024008B5054BCF
:1007700000221A60044B186810B1024903F04CFDC6
:1007800008BD00BFE40900202409002008B5044882
:1007900002F008FC04220349034801F01BF808BDDD
:1007A000940B0020280900203C09002008B50322F2
:1007B0000021012003F0E1FB074B186048B104F071
:1007C000F7FC064B1860FFF7E1FF002004F0C0FBC8
:1007D000FBE700BFF3E700BF240900203809002031
:1007E00008B50C480C4B036004234360002383606E
:1007F000C3604FF4803202614361037643768376AF
:10080000C3760377437701F0CBF900B908BD00F058
:100810006BFAFBE7EC0900200064004008B50C48C7
:100820000C4B03600423436000238360C3604FF4D8
:10083000803202614361037643768376C376037721
:10084000437701F0ADF900B908BD00F04DFAFBE7C0
:10085000140A00200068004010B58AB000230593F8
:1008600006930793089309930368424A934204D07E
:10087000414A934246D00AB010BD404A1368013342
:100880001360012B31D0002401943D4B1A6B42F0D0
:1008900002021A631B6B03F002030193019B4FF4E6
:1008A00040730593022306930323089309230993B6
:1008B00005A9344801F0FEFE22460521132001F06F
:1008C000A9FC132001F0DEFC22460521142001F0D2
:1008D000A1FC142001F0D6FC22460521152001F0D0
:1008E00099FC152001F0CEFCC5E700230093244BB2
:1008F0001A6C42F000721A641B6C03F000730093D0
:10090000009BC0E7002302931D4B1A6C42F08062EB
:100910001A641B6C03F080630293029B174A1368EE
:1009200001331360012B18D000230493144B1A6B6E
:1009300042F002021A631B6B03F002030493049B50
:100940006023059302230693032308930923099345
:1009500005A90C4801F0AEFE8DE700230393084B78
:100960001A6C42F000721A641B6C03F0007303935C
:10097000039BD9E70064004000680040E8090020BC
:10098000003802400004024000B589B000221C215A
:10099000052003F0F2FA134B186018B1124801F069
:1009A000A5F90CE000BFF9E700BF0EE00F4B079A76
:1009B00001A90D4801F0C8F9012002F04CFE0A4BD4
:1009C00093F82030DBB2052BEED0064B18680028D8
:1009D000F2D04FF0FF3201A903F077FC0128EBD1F0
:1009E000E4E700BF3C0A0020EC090020400A002098
:1009F00000B589B000221C21052003F0BEFA134B7C
:100A0000186018B1124801F071F90CE000BFF9E765
:100A100000BF0EE00F4B079A01A90D4801F094F9B1
:100A2000012002F018FE0A4B93F82030DBB2052BB0
:100A3000EED0064B18680028F2D04FF0FF3201A923
:100A400003F043FC0128EBD1E4E700BF500A00208B
:100A5000140A0020540A002000B583B0002201923D
:100A6000094B196B41F4800119631B6B03F480037C
:100A70000193019B0521382001F0CCFB382001F0C7
:100A800001FC03B05DF804FB0038024008B501200A
:100A900002F0E1FDFBE7000008B54FF40051034808
:100AA00001F007FF642002F0D6FDF6E700080240DF
:100AB00008B5204A0021204802F06EFD1F4B186047
:100AC0001F4A00211F4802F067FD1F4B18601F4A94
:100AD00000211F4802F060FD1E4B18601E4A0021D5
:100AE0001E4802F059FD1E4B18601E4A00211E4888
:100AF00002F052FD1D4B18601D4A00211D4802F0F6
:100B00004BFD1D4B18601D4A00211D4802F044FD9D
:100B10001C4B18601C4A00211C4802F03DFD1C4B78
:100B200018601C4A00211C4802F036FD1B4B18605F
:100B300008BD00BFA45E00088D0A0008700A0020EE
:100B4000345F0008990A0008800A0020385E000817
:100B5000AD070008640A0020EC5E0008C10F000821
:100B6000780A0020105F00080D0E00087C0A0020A3
:100B7000585F000879150008840A00205C5E0008B0
:100B800089090008680A0020805E0008F109000851
:100B90006C0A0020C85E000815100008740A0020C6
:100BA0002DE9F04188B00024039404940594069440
:100BB00007940094324B1A6B42F004021A631A6BCA
:100BC00002F004020092009A01941A6B42F00102B2
:100BD0001A631A6B02F001020192019A02941A6BD5
:100BE00042F002021A631B6B03F002030293029BA2
:100BF000244E22464FF40051304601F054FE4FF48B
:100C000000530393012504950594069403A93046E7
:100C100001F050FD302703974FF4441304930594DB
:100C2000DFF8688003A9404601F044FDC023039328
:100C30000494059503A9404601F03CFD03970494F4
:100C4000059503A9304601F035FD03230393049471
:100C5000059503A90C4801F02DFD224605210A2027
:100C600001F0D8FA0A2001F00DFB224605211720D9
:100C700001F0D0FA172001F005FB08B0BDE8F081C3
:100C80000038024000080240000402400000024018
:100C900008B5054B054A002101F0D4F8044A137841
:100CA0000133137008BD00BF880A0020900A00209D
:100CB000AC0A002010B504460268094B9A4208D0DD
:100CC0002368084A934207D002F58062934203D01A
:100CD00010BD00F0A7FCF3E7204600F0C1F8F7E7ED
:100CE00000100040001C004072B6FEE700B595B051
:100CF0003022002108A804F0B7FD002303930493D9
:100D00000593069307930193184A116C41F08051A3
:100D10001164126C02F080520192019A0293144AFB
:100D2000116841F480411160126802F4804202921D
:100D3000029A0222089201220B9210220C920E9328
:100D400008A801F0CDFD68B90F2303930021049199
:100D500005910691079103A802F010F820B915B08B
:100D60005DF804FBFFF7C0FFFFF7BEFF003802404D
:100D70000070004008B500F03BFCFFF7B7FFFFF73D
:100D80000FFFFFF769FEFFF72BFDFFF73DFC00F0BB
:100D900043FA00F079FA00F08FFAFFF73FFD02F016
:100DA000CDFBFFF785FE02F0DBFBFEE710B5044646
:100DB0000B4B1B89834204D0094B1B8BA34207D0EA
:100DC00010BD084802F02CF9054B02229A72F3E795
:100DD000054802F025F9024B02229A76F0E700BF9F
:100DE00000000020040B00204C0B002010B504462E
:100DF0000189406801F050FD10B1012803D010BDF9
:100E00000023A372FBE70123A372F8E710B504F0F7
:100E1000CFF9114B1860002406E0104800EB0410D5
:100E2000FFF7E4FF0134E4B2012CF6D9002004F00E
:100E30008FF8002401E00134E4B2012CF6D8074B0E
:100E400003EB04139B7A022BF5D1044800EB04104A
:100E5000FFF7CCFFEFE700BFB00A00200000002042
:100E600010B504460F4B984213D00F4B9C4214D040
:100E70000E4B186860B103F037FE48B14FF0E02325
:100E80004FF08052C3F8042DBFF34F8FBFF36F8F25
:100E900010BD184602F008F9E7E7184602F004F919
:100EA000E6E700BF040B00204C0B0020B00A002036
:100EB000104B9B6955221A7000232BB170470D4AC5
:100EC0009269591C117005E010B418B10278D2B2C1
:100ED0009A42F4D0074A9469591C074A4FF0340CDF
:100EE0000CFB03231B7A6354CBB2002BEDD05DF8CF
:100EF000044B7047280000204400002008B5094B2F
:100F0000186848B100234FF0FF32074903F059F841
:100F1000012801D000BF02E0024B1B6803B108BDED
:100F200000BFFCE7500A00202800002008B5FFF7AA
:100F3000BFFFFFF7E3FF08BD70B5044600250BE0D7
:100F40002E4605F1080334F813309BB294F82C2098
:100F500093421BD80135EDB20C2D2FD8E36803EB7B
:100F6000850233F82530616809885B1A002BB8BF09
:100F70005B4252889342E3DA05F1080234F81230FA
:100F80009BB201339BB224F81230D9E7237ADBB24B
:100F9000AB4205D02572236B13B1236B20469847D3
:100FA0000836002324F8163005E003F1080200217A
:100FB00024F8121001330D2BF7DDCBE770BD0000D4
:100FC00010B50023A3B10F4B18680028FBD00021F7
:100FD00003F02AFA0128F6D10B4B01221A700024E3
:100FE000002CF0D10948FFF7A7FF0134E4B2F7E77E
:100FF000064A342101FB0322054911630133DBB2A8
:10100000E0E700BF24090020B40A002044000020CB
:101010002D0F000808B508E00020FFF749FFFFF793
:101020006DFF4FF47A7002F016FB024B1B78012B18
:10103000F2D0F6E7B40A002000B583B00022009297
:101040000D4B596C41F480415964596C01F4804155
:10105000009100990192196C41F0805119641B6C48
:1010600003F080530193019B0F216FF0010001F009
:10107000D1F803B05DF804FB0038024030B589B008
:10108000044600230193214B1A6C42F010021A64AB
:101090001B6C03F010030193019B02A903A801F04C
:1010A00033FF069BCBB901F01FFF03461848A0FB96
:1010B00003239B0C013B1748174A026040F2E732BA
:1010C000C2604360002303618360836102F02AF9F8
:1010D000054630B1284609B030BD01F005FF430098
:1010E000E4E70C4801F09CFF05460028F2D13620C9
:1010F00001F0C8F80F2C01D90125EBE700222146A9
:10110000362001F087F8054B1C60E3E70038024009
:1011100083DE1B43B80A002000100040B800002006
:10112000FEE7FEE7FEE7FEE7FEE7704708B51020A2
:1011300001F0C8FB08BD000008B5024800F033FF0D
:1011400008BD00BFEC09002008B5024800F02BFFE5
:1011500008BD00BFEC09002008B5024800F023FFDD
:1011600008BD00BFEC09002008B5202001F0AAFB53
:1011700008BD000008B5024801F0B3FF08BD00BF7C
:10118000040B002008B5024801F0ABFF08BD00BF0A
:101190004C0B002008B5024801F0A3FF08BD00BFBA
:1011A000B80A002008B5024801F096F908BD00BF52
:1011B0008409002010B503460C4A0D490D4800680B
:1011C00040B10C4800680344521A934206D8094AB9
:1011D000136010BD0748084C0460F2E704F01AFBE6
:1011E0000C2303604FF0FF30F3E700BF0000022044
:1011F00000040000000B0020D8840020054BD3F829
:10120000882042F47002C3F888204FF000629A6090
:10121000704700BF00ED00E000B587B000230293E7
:10122000039304930593009301931548154A0260B4
:1012300040F23F62426083603122C2600361836199
:1012400002F070F898B94FF48053029302A90C4849
:1012500002F0A1F870B9202300930023019369469E
:10126000074802F017F940B907B05DF804FBFFF733
:101270003BFDE8E7FFF738FDEDE7FFF735FDF3E766
:10128000940B00200004004008B50948094B036096
:1012900040F23F63436000238360C722C260036162
:1012A000836102F03FF800B908BDFFF71DFDFBE7C1
:1012B000040B0020001C004008B50948094B0360DE
:1012C00040F23F63436000238360C722C260036132
:1012D000836102F027F800B908BDFFF705FDFBE7C1
:1012E0004C0B00200020004000B585B00368204A68
:1012F000934208D01F4A934212D01F4A934223D0F0
:1013000005B05DF804FB002301931C4B1A6C42F0FE
:1013100002021A641B6C03F002030193019BEFE7C6
:1013200000220292154B196C41F0800119641B6C6C
:1013300003F080030293029B05212C2000F06AFF3A
:101340002C2000F09FFFDBE7002203920B4B196C6F
:1013500041F4807119641B6C03F480730393039B45
:1013600005212D2000F056FF2D2000F08BFFC7E750
:1013700000040040001C00400020004000380240F3
:10138000144B9B6955221A7000232BB17047114AE8
:101390009269591C11700CE010B450B1818889B267
:1013A00003EB83020C4C04EB8202928892B29142CE
:1013B000EDD0084A9469591C03EB8303064A02EBFB
:1013C00083039B796354CBB2002BE6D05DF8044BCA
:1013D000704700BF980000207C00002008B5094B32
:1013E000186848B100234FF0FF32074902F0E9FDC9
:1013F000012801D000BF02E0024B1B6803B108BD09
:1014000000BFFCE7500A00209800002084B008B517
:101410000DF1080C8CE80F006046FFF7B1FFFFF7F5
:10142000DDFFBDE8084004B0704784B008B50DF199
:10143000080C8CE80F006046FFF7A2FFFFF7CEFF15
:10144000BDE8084004B0704770B582B00024002C9D
:1014500001DD02B070BD474B04EB8405AA0003EB2D
:1014600085059858A98889B201F016FA0646A8742D
:101470006B7C43B938B92B7C2BB900226A740122EA
:101480002A740222AA7104EB84033A4A02EB830312
:101490001B7C0BB9012E13D004EB8403354A02EBFD
:1014A00083031B7CDBB2012B2CD004EB8403314A79
:1014B00002EB83031B7CDBB2012B50D00134C6E767
:1014C00004EB840302EB83039B79DBB2012B0ED088
:1014D00004EB840302EB8303DB6843B104EB840376
:1014E00002EB8303DD681A6900920FCBA84704EB77
:1014F0008403204A02EB830301229A7100221A74AA
:101500005A74C9E704EB840302EB83035B7CDBB210
:10151000142BCAD9DEB904EB840302EB83039B7955
:1015200073B104EB840302EB83039B6843B104EBC8
:10153000840302EB83039D681A6900920FCBA847CE
:1015400004EB84030B4A02EB830300229A7104EB41
:101550008403084A02EB830300221A74A5E704EB14
:101560008402044B03EB8202537C0133DBB25374DD
:10157000A4E700BF7C00002008B5054B054A9A602F
:10158000054ADA60FFF760FF012002F064F8F9E72E
:101590007C0000200D1400082B140008DFF834D064
:1015A0000D480E490E4A002302E0D458C4500433BB
:1015B000C4188C42F9D30B4A0B4C002301E0136092
:1015C0000432A242FBD3FFF719FE04F029F9FFF71A
:1015D000D1FB704700000220000000200409002019
:1015E0000460000808090020D4840020FEE7000001
:1015F00008B50B4B1A6842F400721A601A6842F47C
:1016000080621A601A6842F480721A60032000F047
:10161000EFFD0F20FFF732FDFFF70EFD002008BDA4
:10162000003C0240034A1168034B1B780B441360D3
:10163000704700BFDC0B0020B4000020014B18688D
:10164000704700BFDC0B00204A4B5A6822F440323E
:101650005A605A6841680A435A600268536823F422
:101660008073536002685368016943EA0123536041
:101670000268536823F040735360026853688168BE
:101680000B4353600268936823F40063936002681D
:101690009368C1680B439360826A374B9A4257D074
:1016A0000268936823F07063936002689368816AAC
:1016B0000B4393600268936823F040539360026881
:1016C0009368C16A0B4393600268936823F0020336
:1016D000936002689368017E43EA4103936090F847
:1016E0002030002B3FD00268536843F400635360FE
:1016F0000268536823F46043536001684B68426A90
:10170000013A43EA42334B600268D36A23F4700320
:10171000D3620168CB6AC269013A43EA0253CB62E1
:101720000268936823F4007393600268936890F8EA
:10173000301043EA412393600268936823F4806386
:10174000936002689368416943EA8123936070471C
:101750000268936823F0706393600268936823F0D3
:1017600040539360B0E70268536823F4006353600A
:10177000CAE700BF002301400100000F38B310B5D5
:101780000446036C43B1236C13F0100F0BD00120FF
:10179000002384F83C3010BDFEF792FF0023636401
:1017A00084F83C30EFE7236C23F4885323F00203E2
:1017B00043F0020323642046FFF746FF00206064E5
:1017C000236C23F0030343F001032364E0E70120CB
:1017D0007047000010B582B013460022019290F8C5
:1017E0003C20012A00F0AE800446012280F83C2013
:1017F0000268906810F0010F13D1906840F001006A
:101800009060534A1068534AA2FB0020800C00EB02
:101810004000019002E001980138019001980028F1
:10182000F9D12268906810F4807F03D0906820F48A
:10183000807090602268906810F0010F77D0206C63
:1018400020F4E06020F0010040F4807020645268D1
:1018500012F4806F05D0226C22F4405242F4805280
:101860002264226C12F4805F36D0626C22F0060291
:101870006264002284F83C20A26B3748D063A26BDC
:1018800036481064A26B3648D06422686FF022009C
:1018900010602068426842F080624260206882687E
:1018A00042F48072826020680A4600F14C01A06B0D
:1018B00000F0DCFD2B4B5B6813F01F0F27D1236872
:1018C000294A934211D002F58072934207D0274AE9
:1018D000934214D0002033E000226264C9E702F58D
:1018E0000072526812F01F0FF1D19A6812F0405F37
:1018F0002AD19A6842F080429A60002020E002F5E6
:101900008072526812F0100FEFD0002018E02368A8
:10191000154A934201D0002012E09A6812F0405F0D
:1019200014D19A6842F080429A60002008E0236C4B
:1019300043F010032364636C43F0010363640020ED
:1019400002B010BD0220FBE70020F9E70020F7E716
:101950007800002083DE1B439519000873190008E6
:101960007F190008002301400020014000220140AF
:10197000704708B5806BFFF7FBFF08BD704708B5DF
:10198000806B40230364436C43F004034364FFF71C
:10199000F5FF08BD08B50346806B026C12F0500FCE
:1019A00025D1036C43F40073036403689A6812F052
:1019B000405F19D1027EBAB9DA6A12F4700F03D00F
:1019C0009A6812F4806F0FD15A6822F020025A6090
:1019D000036C23F480730364036C13F4805F03D1FE
:1019E000036C43F001030364FEF7C0FE08BD026C04
:1019F00012F0100F04D1826BD26C18469047F5E7B5
:101A0000FFF7BCFFF2E7000030B482B0002301937F
:101A100090F83C30012B00F0BB80012380F83C3073
:101A20000B68092B41D90468E2689BB203EB4303BE
:101A30001E3B4FF0070C0CFA03F322EA0303E360AA
:101A40000468E2680B8803EB43031E3B8D6805FACC
:101A500003F31343E3604B68062B3DD80468626BC5
:101A600003EB8303053B4FF01F0C0CFA03F322EA50
:101A7000030363630468626B4B6803EB8303053BFA
:101A8000B1F800C00CFA03F3134363630268414BDF
:101A90009A4251D002683F4B9A4256D0002380F8B8
:101AA0003C30184602B030BC7047046822699BB2D3
:101AB00003EB43034FF0070C0CFA03F322EA030392
:101AC0002361046822690B8803EB43038D6805FAE0
:101AD00003F313432361BEE70C2B16D805682A6B6A
:101AE00003EB8303233B1F2404FA03F322EA0303DB
:101AF0002B6305682A6B4B6803EB8303233B0C883D
:101B000004FA03F313432B63C0E70568EA6A03EBA7
:101B10008303413B1F2404FA03F322EA0303EB622D
:101B20000568EA6A4B6803EB8303413B0C8804FABF
:101B300003F31343EB62A9E70B68122BAAD1164AF1
:101B4000536843F480035360A4E70B68103B012BF8
:101B5000A4D8114A536843F4000353600B68102B58
:101B60009CD10E4B1B6802F1467202F52E3202F236
:101B70008332A2FB03239B0C03EB83035B000193E3
:101B800002E0019B013B0193019B002BF9D185E70A
:101B9000022087E700200140002301407800002058
:101BA000002800F0A18038B5044690F82030D3B169
:101BB0002268136843F001031360FFF73FFD0546F9
:101BC00023685A6812F0010F10D1FFF737FD401B50
:101BD0000A28F5D9636A43F400336362052384F865
:101BE0002030012038BDFEF737FEE1E71A6822F009
:101BF00002021A60FFF722FD054623685A6812F0B8
:101C0000020F0DD0FFF71AFD401B0A28F5D9636AB1
:101C100043F400336362052384F820300120E1E7B8
:101C2000227E012A3DD01A6822F080021A60637E6B
:101C3000012B3BD02268136823F040031360A37E7E
:101C4000012B39D02268136823F020031360E37E50
:101C5000012B37D02268136843F010031360237FF1
:101C6000012B35D02268136823F008031360637FCB
:101C7000012B33D02268136823F004031360A36898
:101C8000E268134322691343626913436268013AAD
:101C900021681343CB6100206062012384F8203067
:101CA000A0E71A6842F080021A60C0E72268136851
:101CB00043F040031360C2E72268136843F0200337
:101CC0001360C4E72268136823F010031360C6E7AB
:101CD0002268136843F008031360C8E7226813689A
:101CE00043F004031360CAE70120704770B504464F
:101CF00090F82050EDB2012D06D0436A43F4002342
:101D000043620125284670BD022380F82030026816
:101D1000136823F001031360FFF790FC0646236865
:101D20005B6813F0010F0CD0FFF788FC831B0A2BB4
:101D3000F5D9636A43F400336362052384F82030E5
:101D4000E0E700256562DDE730B590F820C0046863
:101D5000A4680CF1FF3C5FFA8CFCBCF1010F6BD85E
:101D600014F0E05F62D0C4F3016CBCF1020F05D93E
:101D7000436A43F400034362012062E0012404FA51
:101D80000CF41C608B68002B3DD10D68CB68046897
:101D900043EA45550CF118031B01E55003680C6933
:101DA0000CF1180E03EB0E135C600B7D012B35D08C
:101DB000D17993791B0443EA0163517943EA012302
:101DC00014790168234301EB0C11C1F88C31D178EF
:101DD00093781B0443EA0163517843EA01231178A5
:101DE00002680B4302EB0C12C2F8883102680CF156
:101DF000180C4FEA0C1C52F80C3043F0010342F867
:101E00000C3000201DE04C6843EAC403CC68234337
:101E10000CF11804240105682B51BFE7036803EB9C
:101E20000E13596841F480715960C1E7436A43F465
:101E300000134362012004E0436A43F480234362B9
:101E4000012030BD90F820C00CF1FF3C5FFA8CFC03
:101E5000BCF1010F00F2958030B451B90468E46818
:101E600014F0030F10D1436A43F4001343620120BE
:101E700077E00468246914F0030F05D1436A43F442
:101E80000013436201206CE001F11B04240105688A
:101E90002C5904F004049460002C64D101F11B045B
:101EA000240105682C59640D1460046801F11B0CB1
:101EB0004FEA0C1C54F80C4004F00204D46004688F
:101EC0006444646804F00F04146104686444646842
:101ED000C4F307249461046864446468240C546166
:101EE000026802EB0112D2F8B8211A70026802EB04
:101EF0000112D2F8B821C2F307225A70026802EB2D
:101F00000112D2F8B821C2F307429A70026802EBBC
:101F10000112D2F8B821120EDA70026802EB011237
:101F2000D2F8BC211A71026802EB0112D2F8BC216E
:101F3000C2F307225A71026802EB0112D2F8BC21E7
:101F4000C2F307429A71026802EB0112D2F8BC2177
:101F5000120EDA7179B90268D36843F02003D360B6
:101F6000002030BC704701F11B04240105682C5986
:101F7000E408546099E70268136943F02003136191
:101F8000EEE7436A43F480234362012070477047C1
:101F90007047704770477047704770477047704789
:101FA0007047704770472DE9F84F054603685C6934
:101FB000D3F804809F68D3F80CB0D3F810A0D3F8FE
:101FC000189014F001063BD017F0010616D001223C
:101FD0009A6017F0020F08D117F0040F0CD117F018
:101FE000080606D04FF4805608E0FFF7D0FF002621
:101FF00004E0FFF7CFFF01E04FF4006617F4807FA5
:102000000DD02B684FF480729A6017F4007F40F077
:10201000868017F4806F00F0868046F4005617F42F
:10202000803F0DD02B684FF480329A6017F4003F48
:1020300040F0838017F4802F00F0838046F4004640
:1020400014F0080F07D01BF0100F04D046F40076F0
:102050002B681022DA6014F0040F02D01BF0080F76
:1020600079D114F0020F04D02B68DB6813F0030F52
:1020700078D114F0400F07D01AF0100F04D046F4B6
:1020800080662B6810221A6114F0200F02D01AF01B
:10209000080F6BD114F0100F04D02B681B6913F0DC
:1020A000030F6AD114F4003F02D018F0100F68D16A
:1020B00014F4803F02D018F0080F69D114F4004FD7
:1020C0007AD018F0040F74D014F4807F04D019F083
:1020D000010F01D046F0010614F4007F04D019F07E
:1020E000020F01D046F0020614F4806F04D019F0FC
:1020F000040F01D046F0040614F4006F59D019F013
:10210000700956D0B9F1400F65D058D8B9F1200FF9
:102110005ED0B9F1300F42D146F0200644E02846A7
:10212000FFF736FF7BE717F4006F02D046F48046D6
:1021300075E72846FFF72FFF71E72846FFF729FFCD
:102140007EE717F4002F02D046F4803678E7284661
:10215000FFF722FF74E72B680822DA602846FFF7B2
:102160001CFF7EE72846FEF793FD82E72B680822D6
:102170001A612846FFF713FF8CE72846FFF70EFF8A
:1021800090E72B6810225A602846FFF709FF8FE777
:102190002B6808225A602846FFF703FF8EE7B9F143
:1021A000100F01D146F008062A68936923F07003E6
:1021B00093612B6804225A609EB9BDE8F88FB9F18B
:1021C000500F0BD0B9F1600FEED146F48076EBE7FB
:1021D00046F01006E8E746F04006E5E746F08006E0
:1021E000E2E76B6A1E436E622846FFF7DBFEE4E718
:1021F000074AD36823F4E0631B041B0C000200F4BD
:10220000E060034343F0BF6343F40033D36070479F
:1022100000ED00E000B5194BDB68C3F30223C3F106
:10222000070CBCF1040F28BF4FF0040C03F1040E9F
:10223000BEF1060F18D9033B4FF0FF3E0EFA0CFC1F
:1022400021EA0C0199400EFA03F322EA0303194331
:1022500000280BDB0901C9B200F1604000F56140C4
:1022600080F800135DF804FB0023E5E700F00F00A1
:102270000901C9B2024B1954F4E700BF00ED00E0B8
:1022800014ED00E0002807DB00F01F0240090123E5
:102290009340024A42F82030704700BF00E100E05E
:1022A00030B405682C6824F480242C6004686360D2
:1022B0008368402B05D0036899600368DA6030BCFE
:1022C000704703689A600368D960F8E710B4036840
:1022D000D9B210390C4AA2FB014212090B4CA25C84
:1022E000C2655F2909D923F47F7323F00303043304
:1022F0008365806D5DF8044B704723F47F7323F092
:1023000003038365F5E700BFABAAAAAACC5F000868
:10231000836A826992B9012B0AD0022B02D00BB1D9
:1023200000207047C36A13F0807F28D100207047D7
:10233000C36AB3F1C07F24D000207047B2F5005FBC
:1023400009D0022B25D9032B25D1C36A13F0807F36
:1023500023D100207047032B03D8DFE803F01404D7
:10236000140A00207047C36A13F0807F0DD100204B
:102370007047C36AB3F1C07F09D0002070470120C5
:1023800070470120704701207047012070470120ED
:1023900070470120704700207047012070470000FF
:1023A00070B50446FFF74AF9002C5BD005460223BE
:1023B00084F83530002384F834302268136823F021
:1023C0000103136023681A6812F0010F0AD0FFF7A7
:1023D00035F9431B052BF5D920236365032084F8C9
:1023E000350070BD1A68204810406168A2680A4331
:1023F000E1680A4321690A4361690A43A1690A4302
:10240000E1690A43216A0A430243616A04291ED032
:102410001A602668756925F00705636A1D43042B59
:1024200007D1A36A1D43E36A1BB12046FFF770FF83
:1024300090B975612046FFF749FFE26D3F23934055
:10244000836000206065012384F83530C9E7E16AC4
:10245000206B01430A43DBE740236365012084F8D6
:102460003500BEE70120BCE73F8010F038B50446D8
:10247000856D90F8340001282BD0012084F83400B9
:1024800094F83500C0B2012804D0002384F8343019
:10249000022038BD022084F8350000206065204607
:1024A000FFF7FEFEE26D3F239340AB6022681368A6
:1024B00043F016031360236C23B12268136843F0C2
:1024C000080313602268136843F0010313600020BF
:1024D000DFE70220DDE70000F0B583B0044600230B
:1024E0000193724B1D68724BA3FB0535AD0A876DD6
:1024F0003E68C26D08239340334210D003681A68C7
:1025000012F0040F0BD01A6822F004021A60C26D98
:1025100008239340BB60436D43F001034365E26DC4
:1025200001239340334209D02268526912F0800F90
:1025300004D0BB60636D43F002036365E26D042366
:102540009340334209D02268126812F0020F04D07F
:10255000BB60636D43F004036365E26D1023934039
:10256000334224D02268126812F0080F1FD0BB60DB
:1025700023681A6812F4802F0DD01B6813F4002F03
:1025800004D1236C9BB12046984710E0A36C73B133
:10259000204698470BE01A6812F4807F03D11A682E
:1025A00022F008021A60236C0BB120469847E26DB6
:1025B00020239340334255D02268126812F0100F46
:1025C00050D0BB6094F83530DBB2052B0ED02368B9
:1025D0001A6812F4802F33D01B6813F4002F2AD10D
:1025E000636C002B3ED0204698473BE0226813687E
:1025F00023F0160313602268536923F080035361AC
:10260000236CA3B12268136823F008031360E26D02
:102610003F239340BB60012384F83530002384F8C6
:102620003430236D002B3FD0204698473CE0A36C0C
:10263000002BE7D1EBE7E36BA3B12046984711E00D
:102640001A6812F4807F09D11A6822F010021A6009
:10265000012384F83530002384F83430E36B0BB168
:1026600020469847636DFBB1636D13F0010F17D0DF
:10267000052384F835302268136823F001031360C2
:10268000019B01330193AB4204D823681B6813F00C
:10269000010FF5D1012384F83530002384F834305C
:1026A000E36C0BB12046984703B0F0BD78000020E2
:1026B000B5814E1B00230F2B00F2E48070B582B071
:1026C00060E085685E000324B44025EA0405CC6818
:1026D000B4402C438460456825EA02054C68C4F385
:1026E00000129A402A4342605AE0DC08083450F84D
:1026F000246003F0070295000F22AA4026EA020E8A
:102700000A69AA4042EA0E0240F824205CE007224F
:1027100000E0002202FA0EF22A4302345A4D45F834
:1027200024205A4A94686FEA0C0224EA0C054E6889
:1027300016F4801F01D04CEA0405544CA560E468EF
:1027400002EA04054E6816F4001F01D04CEA0405A5
:102750004E4CE560646802EA04054E6816F4003FDA
:1027600001D04CEA0405494C6560246822404D685C
:1027700015F4803F01D04CEA0402444C226001333E
:102780000F2B7DD801229A400C6804EA020C32EA31
:102790000404F4D14C6804F00304013C012C90D9EA
:1027A0004A6802F00302032A09D0C4685D000322CC
:1027B000AA4024EA02048A68AA402243C2604A6806
:1027C00002F00302022A90D004684FEA430E03226B
:1027D00002FA0EF224EA02044A6802F0030202FA44
:1027E0000EF2224302604A6812F4403FC7D0002232
:1027F0000192274A546C44F480445464526C02F4AD
:1028000080420192019A9C08A51C1F4A52F825504B
:1028100003F003024FEA820E0F2202FA0EF225EABB
:1028200002051C4A90423FF474AF02F58062904268
:102830001AD002F58062904218D002F58062904270
:1028400016D002F58062904214D002F58062904268
:1028500012D002F58062904210D002F58062904260
:102860003FF455AF082255E7012253E7022251E712
:1028700003224FE704224DE705224BE7062249E7F2
:1028800002B070BD704700BF00380140003C0140FD
:1028900000380240000002400369194201D00120C3
:1028A0007047002070470AB1816170470904816157
:1028B0007047436901EA030221EA030141EA024148
:1028C0008161704708B5054B5B69034200D108BDC3
:1028D000024B5861FEF76AFAF9E700BF003C01407D
:1028E000002800F0E08170B582B00446036813F060
:1028F000010F3BD09F4B9B6803F00C03042B2CD0A3
:102900009C4B9B6803F00C03082B21D06368B3F544
:10291000803F4FD0B3F5A02F52D0964B1A6822F4C7
:1029200080321A601A6822F480221A606368002BD1
:1029300050D0FEF783FE05468E4B1B6813F4003F14
:1029400014D1FEF77BFE401B6428F5D90320B1E1CA
:10295000884B5B6813F4800FD8D0864B1B6813F448
:10296000003F03D06368002B00F09F81236813F0C1
:10297000020F54D07F4B9B6813F00C0F3ED07D4B61
:102980009B6803F00C03082B33D0E368002B68D05E
:10299000794B01221A60FEF751FE0546754B1B6804
:1029A00013F0020F54D1FEF749FE401B0228F5D95F
:1029B00003207FE16F4A136843F480331360B5E767
:1029C0006C4B1A6842F480221A601A6842F4803212
:1029D0001A60ABE7FEF732FE0546664B1B6813F440
:1029E000003FC3D0FEF72AFE401B6428F5D9032020
:1029F00060E1604B5B6813F4800FC6D15D4B1B68D0
:102A000013F0020F03D0E368012B40F05081594AC4
:102A1000136823F0F803216943EAC10313602368B4
:102A200013F0080F42D063696BB3534B0122C3F814
:102A3000802EFEF703FE05464E4B5B6F13F0020F30
:102A400034D1FEF7FBFD401B0228F5D9032031E10C
:102A5000484A136823F0F803216943EAC10313606D
:102A6000DDE7454B00221A60FEF7E8FD0546414BC5
:102A70001B6813F0020FD2D0FEF7E0FD401B0228C6
:102A8000F5D9032016E13C4B0022C3F8802EFEF757
:102A9000D5FD0546374B5B6F13F0020F06D0FEF7EE
:102AA000CDFD401B0228F5D9032003E1236813F074
:102AB000040F77D02F4B1B6C13F0805F33D10023B2
:102AC00001932C4B1A6C42F080521A641B6C03F079
:102AD00080530193019B0125284B1B6813F4807FD1
:102AE00023D0A368012B34D0052B38D0214B1A6F8B
:102AF00022F001021A671A6F22F004021A67A36813
:102B0000002B3DD0FEF79AFD06461A4B1B6F13F0C3
:102B1000020F46D1FEF792FD801B41F288339842A6
:102B2000F3D90320C6E00025D6E7144A136843F41E
:102B300080731360FEF782FD0646104B1B6813F48A
:102B4000807FCED1FEF77AFD801B0228F5D90320C5
:102B5000B0E0084A136F43F001031367CFE7054B5A
:102B60001A6F42F004021A671A6F42F001021A67E4
:102B7000C5E700BF00380240000047420070004037
:102B8000FEF75CFD0646524B1B6F13F0020F08D098
:102B9000FEF754FD801B41F288339842F3D903209D
:102BA00088E0EDB9A369002B00F08380484A926861
:102BB00002F00C02082A51D0022B17D0454B0022FC
:102BC0001A66FEF73BFD0446414B1B6813F0007F7D
:102BD00042D0FEF733FD001B0228F5D9032069E03F
:102BE0003B4A136C23F080531364DBE7394B00221C
:102BF0001A66FEF723FD0546354B1B6813F0007F70
:102C000006D0FEF71BFD401B0228F5D9032051E03A
:102C1000E369226A1343626A43EA8213A26A520892
:102C2000013A43EA0243E26A43EA0263284A5360F4
:102C3000284B01221A66FEF701FD0446244B1B684F
:102C400013F0007F06D1FEF7F9FC001B0228F5D92E
:102C500003202FE000202DE000202BE0012B2BD0C3
:102C60001B4B5B6803F48001E269914226D103F0BB
:102C70003F02216A8A4223D1616A47F6C0721A4034
:102C8000B2EB811F1ED103F44031A26A5208013A0F
:102C9000B1EB024F18D103F07063E26AB3EB026F3D
:102CA00014D1002006E001207047012002E001203D
:102CB00000E0002002B070BD0120FBE70120F9E731
:102CC0000120F7E70120F5E70120F3E70120F1E714
:102CD000003802400000474208B5254B9B6803F0CE
:102CE0000C03042B3FD0082B3FD1214B5A6802F034
:102CF0003F025B6813F4800F12D01D4B5968C1F37B
:102D000088111C480023A1FB0001FDF761FA184B54
:102D10005B68C3F3014301335B00B0FBF3F025E0D4
:102D2000134B5968C1F3881C4FEA4C11B1EB0C00EE
:102D30006EEB0E0E4FEA8E1343EA90638101091A7F
:102D400063EB0E03DB0043EA5173C90011EB0C0C7B
:102D500043F10003990200234FEA8C2041EA9C5181
:102D6000FDF736FAD3E7034800E0034808BD00BF8B
:102D70000038024040787D010024F400002800F073
:102D80009B8070B50D4604464F4B1B6803F007034C
:102D90008B4208D2CBB24C4A1370136803F007037E
:102DA0008B4240F08B80236813F0020F17D013F092
:102DB000040F04D0454A936843F4E05393602368BA
:102DC00013F0080F04D0414A936843F460439360C2
:102DD0003E4A936823F0F003A1680B439360236895
:102DE00013F0010F32D06368012B21D09A1E012A03
:102DF00025D9364A126812F0020F61D033498A6829
:102E000022F0030213438B60FEF718FC06462F4B9B
:102E10009B6803F00C036268B3EB820F16D0FEF7D9
:102E20000DFC801B41F288339842F0D9032042E028
:102E3000264A126812F4003FE0D101203BE0234A09
:102E4000126812F0007FD9D1012034E01E4B1B68BC
:102E500003F00703AB4207D9EAB21B4B1A701B6899
:102E600003F00703AB422DD1236813F0040F06D003
:102E7000164A936823F4E053E1680B439360236898
:102E800013F0080F07D0114A936823F460432169B7
:102E900043EAC1039360FFF71FFF0C4B9B68C3F32A
:102EA00003130B4AD35CD8400A4B18600A4B1868CE
:102EB000FEF7E4F8002070BD012070470120FAE71A
:102EC0000120F8E70120F6E7003C0240003802400C
:102ED000B45F000878000020B8000020014B18689B
:102EE000704700BF7800002008B5FFF7F7FF044BDC
:102EF0009B68C3F38223034AD35CD84008BD00BF5C
:102F000000380240C45F00080F2303600B4B9A682F
:102F100002F0030242609A6802F0F00282609A684E
:102F200002F4E052C2609B68DB0803F4E0530361E3
:102F3000034B1B6803F007030B6070470038024027
:102F4000003C024010B4036A046A24F001040462E5
:102F5000846924F0F00C4CEA021223F00A030B43BC
:102F6000826103625DF8044B704710B4046A24F078
:102F7000100404628469036A24F4704C4CEA02323F
:102F800023F0A00343EA0113826103625DF8044B5E
:102F90007047836823F070030B4343F0070383609B
:102FA0007047000090F83D30DBB2012B32D1022394
:102FB00080F83D300368194A934220D0B3F1804F26
:102FC0001DD0A2F57C42934219D002F58062934253
:102FD00015D002F58062934211D002F578429342F7
:102FE0000DD002F57052934209D0A2F5943293426B
:102FF00005D01A6842F001021A60002070479A68F2
:1030000002F00702062A07D01A6842F001021A608D
:1030100000207047012070470020704700000140E9
:1030200090F83D30DBB2012B37D1022380F83D30E0
:103030000268D36843F00103D3600368194A9342DE
:1030400020D0B3F1804F1DD0A2F57C42934219D01D
:1030500002F58062934215D002F58062934211D04E
:1030600002F5784293420DD002F57052934209D096
:10307000A2F59432934205D01A6842F001021A6018
:10308000002070479A6802F00702062A07D01A68E3
:1030900042F001021A6000207047012070470020B2
:1030A000704700BF000001400268D36823F00103AD
:1030B000D3600368196A41F21112114208D1196AEA
:1030C00040F24442114203D11A6822F001021A6010
:1030D000012380F83D3000207047704770477047EB
:1030E000704710B5044603681A6912F0020F11D038
:1030F000DA6812F0020F0DD06FF002021A6101239C
:10310000037703689B6913F0030F70D0FFF7E6FFA6
:103110000023237723681A6912F0040F12D0DA68AB
:1031200012F0040F0ED06FF004021A61022323770D
:1031300023689B6913F4407F5FD02046FFF7CEFFE2
:103140000023237723681A6912F0080F12D0DA6877
:1031500012F0080F0ED06FF008021A6104232377D3
:103160002368DB6913F0030F4ED02046FFF7B6FF4C
:103170000023237723681A6912F0100F12D0DA683F
:1031800012F0100F0ED06FF010021A61082323778F
:103190002368DB6913F4407F3DD02046FFF79EFF94
:1031A0000023237723681A6912F0010F03D0DA682D
:1031B00012F0010F36D123681A6912F0800F03D084
:1031C000DA6812F0800F34D123681A6912F0400FC8
:1031D00003D0DA6812F0400F32D123681A6912F076
:1031E000200F03D0DA6812F0200F30D110BDFFF7A6
:1031F00074FF2046FFF773FF8AE72046FFF76DFF55
:103200002046FFF76CFF9BE72046FFF766FF20464E
:10321000FFF765FFACE72046FFF75FFF2046FFF7AB
:103220005EFFBDE76FF001021A612046FDF742FD27
:10323000C1E76FF080021A61204600F072F9C3E71F
:103240006FF040021A612046FFF74AFFC5E76FF0B2
:1032500020021A61204600F063F9C7E70368304A8C
:10326000904212D0B0F1804F0FD0A2F57C42904234
:103270000BD002F58062904207D002F58062904246
:1032800003D002F57842904203D123F070034A68DC
:103290001343234A90422AD0B0F1804F27D0A2F5A1
:1032A0007C42904223D002F5806290421FD002F50A
:1032B000806290421BD002F57842904217D002F50E
:1032C0007052904213D002F5806290420FD002F506
:1032D000806290420BD0A2F59832904207D002F55E
:1032E0008062904203D002F58062904203D123F4C1
:1032F0004073CA68134323F080034A691343036091
:103300008B68C3620B688362054B984203D003F558
:103310008063984201D10B690363012343617047C5
:103320000000014040B310B5044690F83D30F3B1C1
:10333000022384F83D30214651F8040BFFF78EFF3D
:10334000012384F8463084F83E3084F83F3084F816
:10335000403084F8413084F8423084F8433084F8B7
:10336000443084F8453084F83D30002010BD80F8AA
:103370003C30FDF7B9FFDBE70120704710B48468EB
:1033800024F47F4C42EA03220A4342EA0C028260A0
:103390005DF8044B704790F83C30012B78D010B5A5
:1033A0000446012380F83C30022380F83D30026857
:1033B000936823F47F4323F0770393600B68602BBB
:1033C0004CD029D8402B54D00CD9502B22D1CA68CC
:1033D00049680068FFF7B6FD50212068FFF7D9FD66
:1033E000002005E0202B0DD009D9302B0AD0012078
:1033F000012384F83D30002384F83C3010BD0BB12C
:10340000102B05D119462068FFF7C3FD0020EFE718
:103410000120EDE70120EBE7B3F5805F34D0B3F591
:10342000005F0CD1CB684A6889680068FFF7A6FF87
:103430002268936843F4804393600020D8E7702BA0
:1034400024D1CB684A6889680068FFF797FF226833
:10345000936843F0770393600020C9E7CA6849681E
:103460000068FFF782FD60212068FFF792FD0020D1
:10347000BEE7CA6849680068FFF764FD402120681C
:10348000FFF787FD0020B3E70020B1E70120AFE799
:103490000220704790F83C30012B3DD010B401233E
:1034A00080F83C30022380F83D3003685A689C68FD
:1034B00022F0700C0A6842EA0C025A600368174A4C
:1034C00093421AD0B3F1804F17D0A2F57C429342B9
:1034D00013D002F5806293420FD002F580629342CE
:1034E0000BD002F57842934207D002F57052934216
:1034F00003D0A2F59432934204D124F080044A68A8
:1035000014439C60012380F83D30002380F83C3058
:1035100018465DF8044B70470220704700000140D8
:103520007047704708B54FF0E0231B6901F046FE75
:10353000012800D108BD00F0D5F9FBE7EFF30583C2
:103540002BB9064B186828B901221A6070476FF032
:10355000050070474FF0FF30704700BF6812002031
:10356000EFF3058373B90A4B1B68012B0DD110B51E
:103570000024084BDC77064B02221A6001F006FBA0
:10358000204610BD6FF0050070474FF0FF307047C8
:103590006812002000ED00E0F0B587B0002405942B
:1035A000EFF305847CBB70B32AB31568936903B944
:1035B00018235C1E372C4AD8546814F0010F48D1E8
:1035C000566976B14FEA960C946834B1D768B7F56E
:1035D000916F02D3176907B1C6B92CB14FF0FF3410
:1035E0000EE04FF0800CEFE7D4688CB9146994B109
:1035F0004FF0FF3404E01546002418234FF0800CF0
:10360000012C0AD0ACB1059807B0F0BD0124F7E752
:103610004FF0FF34F4E70024F2E714699268029255
:10362000019400930B466246294601F0EBF90590A0
:10363000E9E705AA019200930B461FFA8CF229468E
:1036400001F01DFA0128DED000230593DBE70020FE
:10365000DAE70020D8E708B5EFF3058333B908B9F6
:10366000002008BD01F0FEFB0020FAE76FF0050026
:10367000F7E70000034B0360034B0B6080231360EC
:10368000704700BFE00D0020E00B0020034B0360FB
:10369000034B0B604FF4807313607047701600206B
:1036A0006C12002000F1080343604FF0FF3282608B
:1036B000C360036100230360704700230361704708
:1036C00043684B609A688A6051609960086103683A
:1036D00001330360704730B40D68B5F1FF3F11D07E
:1036E00000F108031C465B681A68AA42FAD96368AD
:1036F0004B6099608C60616008610368013303600E
:1037000030BC70470469F2E70369416882688A60E7
:10371000416851605A68824206D0002202611A68EC
:10372000013A1A601868704782685A60F5E700002D
:1037300082B0002301930D4B1B68B3F1FF3F08D00B
:103740004FF0500383F31188BFF36F8FBFF34F8F98
:10375000FEE74FF0500383F31188BFF36F8FBFF381
:103760004F8F019B002BFCD002B07047BC000020A3
:1037700008480068006880F308884FF0000080F374
:10378000148862B661B6BFF34F8FBFF36F8F00DF4F
:1037900000BF000008ED00E0DFF80C00016841F414
:1037A000700101607047000088ED00E04FF0807309
:1037B00040F8043C21F0010140F8081C054B40F89A
:1037C0000C3C40F8202C6FF0020340F8243C4438B5
:1037D000704700BF31370008000000000000000003
:1037E000074B19680868B0E8F04F80F30988BFF309
:1037F0006F8F4FF0000080F311887047AFF30080A7
:10380000707E00204FF0500383F31188BFF36F8F59
:10381000BFF34F8F0B4A136801331360012B00D0A5
:1038200070474FF0E023D3F8043D13F0FF0FF7D0BB
:103830004FF0500383F31188BFF36F8FBFF34F8FA7
:10384000FEE700BFBC000020094B1B6843B94FF0E6
:10385000500383F31188BFF36F8FBFF34F8FFEE7E1
:10386000013B034A13600BB983F31188704700BF13
:10387000BC0000200000000000000000000000006C
:10388000EFF30980BFF36F8F154B1A681EF0100F0E
:1038900008BF20ED108A20E9F04F10602DE90900E3
:1038A0004FF0500080F31188BFF34F8FBFF36F8F3D
:1038B00001F0FEFA4FF0000080F3118809BC19688E
:1038C0000868B0E8F04F1EF0100F08BFB0EC108A87
:1038D00080F30988BFF36F8F704700BFAFF300809C
:1038E000707E002008B54FF0500383F31188BFF3BA
:1038F0006F8FBFF34F8F01F0ADF928B14FF0E02388
:103900004FF08052C3F8042D002383F3118808BDC3
:103910004FF0E022002313619361054B1B680549BA
:10392000A1FB03139B09013B5361072313617047FC
:1039300078000020D34D62104FF0E023D3F8002D23
:103940003D4B9A421CD04FF0E023D3F8002D3B4B67
:103950009A421ED030B583B0394B1A78D2B2019258
:10396000FF221A701B78DBB28DF803309DF803300C
:1039700003F05003334A1370334B07221A601BE0E5
:103980004FF0500383F31188BFF36F8FBFF34F8F56
:10399000FEE74FF0500383F31188BFF36F8FBFF33F
:1039A0004F8FFEE7284A1368013B13609DF80330F0
:1039B0005B00DBB28DF803309DF8033013F0800F0D
:1039C000F0D1214B1B68032B08D04FF0500383F339
:1039D0001188BFF36F8FBFF34F8FFEE71B021A4AA8
:1039E000136003F4E0631360019BDBB2144A1370AD
:1039F0004FF0E024D4F8203D43F47003C4F8203D98
:103A0000D4F8203D43F07043C4F8203DFFF780FF19
:103A100000250E4B1D60FFF7BFFED4F8343F43F086
:103A20004043C4F8343FFFF7A3FE01F041FAFFF72B
:103A30007FFE284603B030BD71C20F4170C20F41F6
:103A400000E400E0F81A0020FC1A0020BC0000206E
:103A5000EFF305830F2B0FD9114A9B5CDBB2114AA0
:103A600012789A4208D94FF0500383F31188BFF3BC
:103A70006F8FBFF34F8FFEE74FF0E023D3F80C3D7D
:103A800003F4E063084A1268934208D94FF05003E8
:103A900083F31188BFF36F8FBFF34F8FFEE770473B
:103AA000F0E300E0F81A0020FC1A0020134A12F09C
:103AB000070F1FD0D11D21F00701C1F5C6431033F8
:103AC00013440A460E480260002141601344083B3B
:103AD00023F007030B48036059601960991A51607D
:103AE0001360094B1960094B1960094B4FF00042F4
:103AF0001A60704746F21033E4E700BF041B002051
:103B0000287E0020001B00201C7E0020187E002044
:103B1000147E0020164B1A461B688342FBD3516863
:103B200002EB010C844509D0416800EB010C6345B0
:103B300009D00360904219D010607047406801447A
:103B400051601046F0E710B40A4C2468A3420BD031
:103B50005B681944416013681B680360904200D0A1
:103B600010605DF8044B70470460F7E7704700BFD2
:103B7000287E0020001B002070B5054601F05CF88F
:103B8000364B1B68A3B1364B1B681D424ED135B175
:103B9000083515F0070F02D025F007050835002D70
:103BA00046D0304B1B68AB4251D32F4A146804E017
:103BB000FFF77CFFE7E722461C466368AB4202D270
:103BC0002368002BF7D1254B1B68A34241D0166810
:103BD00008362368136063685B1B102B10D96019CB
:103BE00010F0070F08D04FF0500383F31188BFF394
:103BF0006F8FBFF34F8FFEE743606560FFF78AFF6B
:103C0000626818490B689B1A0B60184909688B4257
:103C100001D216490B60124B1B68134363600023EB
:103C20002360134A13680133136002E0002600E0AA
:103C3000002601F09BF816F0070F0CD04FF0500350
:103C400083F31188BFF36F8FBFF34F8FFEE700261A
:103C5000EFE70026EDE7304670BD00BF001B0020F7
:103C6000147E0020187E0020287E00201C7E00206C
:103C7000207E0020002834D038B50446A0F1080585
:103C800050F8043C174A1268134208D14FF0500311
:103C900083F31188BFF36F8FBFF34F8FFEE750F8A8
:103CA000081C41B14FF0500383F31188BFF36F8FAD
:103CB000BFF34F8FFEE723EA020340F8043C00F015
:103CC000BBFF54F8041C084A13680B4413602846D1
:103CD000FFF720FF054A13680133136001F046F82F
:103CE00038BD7047147E0020187E0020247E0020FE
:103CF0000346406A18B11B6B1868C0F13800704762
:103D000010B50446FFF77EFDA26BE36B9A4204D028
:103D10000024FFF799FD204610BD0124F9E710B5F6
:103D20000446FFF76FFDA36B23B90124FFF78CFD59
:103D3000204610BD0024F9E770B504461546866B91
:103D4000026C5AB903681BB100200136A66370BD2E
:103D5000806801F08FFA0023A360F6E76DB9406830
:103D6000FCF7B8FB226C636813446360A26893425B
:103D700019D3236863602846E7E7C068FCF7AAFB0D
:103D8000226C5142E3689B1AE3602268934202D29C
:103D9000A3680B44E360022D01D00020D5E726B1D3
:103DA000013E0020D1E72846CFE70020CDE70346BB
:103DB000026C6AB110B50846D9681144D9609C6894
:103DC000A14201D31968D960D968FCF783FB10BD03
:103DD000704738B50546FFF715FD95F8454064B2C4
:103DE00001E0013C64B2002C0ADD6B6A43B105F1CD
:103DF000240001F043F90028F3D001F0D3F9F0E7F3
:103E0000FF2385F84530FFF71FFDFFF7FBFC95F812
:103E1000444064B201E0013C64B2002C0ADD2B692D
:103E200043B105F1100001F029F90028F3D001F0A9
:103E3000B9F9F0E7FF2385F84430FFF705FD38BDF9
:103E400038B5E0B10D460446FFF7DCFC2368E26BB1
:103E5000216C01FB0230A0600020A0636360013A86
:103E600002FB0133E360FF2384F8443084F84530DB
:103E7000FDB9236963B9FFF7E7FC012038BD4FF0B6
:103E8000500383F31188BFF36F8FBFF34F8FFEE7AB
:103E900004F1100001F0F2F80028ECD04FF0E0231C
:103EA0004FF08052C3F8042DBFF34F8FBFF36F8FD5
:103EB000E1E704F11000FFF7F5FB04F12400FFF740
:103EC000F1FBD8E738B51D46049C0B4649B9246080
:103ED000E063236401212046FFF7B2FF84F84C50D1
:103EE00038BD2260F4E740B94FF0500383F31188E6
:103EF000BFF36F8FBFF34F8FFEE710B584B01C4642
:103F0000844653B192B189B94FF0500383F31188BD
:103F1000BFF36F8FBFF34F8FFEE74FF0500383F374
:103F20001188BFF36F8FBFF34F8FFEE76AB1502345
:103F30000393039B502B13D04FF0500383F311884E
:103F4000BFF36F8FBFF34F8FFEE70029EFD04FF025
:103F5000500383F31188BFF36F8FBFF34F8FFEE7DA
:103F6000039B012384F8463000949DF81830604686
:103F7000FFF7A8FF204604B010BD40B94FF0500332
:103F800083F31188BFF36F8FBFF34F8FFEE7F0B558
:103F900083B00D461446064601FB00F05030FFF793
:103FA000EBFD074650B1002380F8463000902346D1
:103FB00000F1500229463046FFF784FF384603B02F
:103FC000F0BDF0B585B0019288B10F461D4604469C
:103FD000B1B1022D20D1E36B012B1DD04FF0500366
:103FE00083F31188BFF36F8FBFF34F8FFEE74FF05E
:103FF000500383F31188BFF36F8FBFF34F8FFEE73A
:10400000036C002BE5D04FF0500383F31188BFF30E
:104010006F8FBFF34F8FFEE701F0D0F8064658B917
:10402000019B002B48D04FF0500383F31188BFF35E
:104030006F8FBFF34F8FFEE700263DE02A463946DB
:104040002046FFF779FE636A7BB948B14FF0E02361
:104050004FF08052C3F8042DBFF34F8FBFF36F8F23
:10406000FFF7F2FB012005B0F0BD04F1240001F0E0
:1040700005F80028F4D04FF0E0234FF08052C3F849
:10408000042DBFF34F8FBFF36F8FE9E7FFF7DCFB22
:104090000020E8E702A801F037F8012619E0002324
:1040A00084F8443021E0002384F8453023E02046A2
:1040B000FFF78FFE00F05AFEFFF7A4FBA26BE36B45
:1040C0009A42BBD3022DB9D0019B002BDED0002E2B
:1040D000E0D0FFF7B9FB00F0AFFDFFF793FB94F8DA
:1040E000442052B2B2F1FF3FD9D094F8452052B2E9
:1040F000B2F1FF3FD7D0FFF7A7FB01A902A801F05B
:104100000FF8D8B92046FFF7FBFD0028CFD0019962
:1041100004F1100000F07EFF2046FFF75AFE00F089
:1041200025FE0028C8D14FF0E0234FF08052C3F89D
:10413000042DBFF34F8FBFF36F8FBDE72046FFF70E
:1041400048FE00F013FE00208DE72DE9F84390B102
:104150000F4616461C460546B1B1022C20D1EB6B2A
:10416000012B1DD04FF0500383F31188BFF36F8FE5
:10417000BFF34F8FFEE74FF0500383F31188BFF377
:104180006F8FBFF34F8FFEE7036C002BE5D04FF02E
:10419000500383F31188BFF36F8FBFF34F8FFEE798
:1041A000FFF756FCEFF311894FF0500383F31188AA
:1041B000BFF36F8FBFF34F8FAA6BEB6B9A4206D39F
:1041C000022C04D0002089F31188BDE8F88395F80B
:1041D00045804FFA88F8AB6B224639462846FFF7F0
:1041E000ABFDB8F1FF3F06D008F101035BB285F8E3
:1041F00045300120E7E76B6A0BB90120E3E705F1E1
:10420000240000F03BFF18B126B101203060DAE74E
:104210000120D8E70120D6E768B170B50C46054605
:10422000036C8BB14FF0500383F31188BFF36F8F92
:10423000BFF34F8FFEE74FF0500383F31188BFF3B6
:104240006F8FBFF34F8FFEE70368EBB1FFF700FC02
:10425000EFF311864FF0500383F31188BFF36F8F94
:10426000BFF34F8FAA6BEB6B934226D995F845307D
:104270005BB20132AA63B3F1FF3F11D001335BB2ED
:1042800085F84530012019E08368002BDED04FF01F
:10429000500383F31188BFF36F8FBFF34F8FFEE797
:1042A0006B6A0BB9012009E005F1240000F0E6FE7D
:1042B00038B144B10120206000E0002086F311886D
:1042C00070BD0120FAE70120F8E7F0B585B0019252
:1042D00090B10F460446C1B100F070FF064600BB26
:1042E000019B002B5ED04FF0500383F31188BFF386
:1042F0006F8FBFF34F8FFEE74FF0500383F31188AA
:10430000BFF36F8FBFF34F8FFEE7036C002BE3D03B
:104310004FF0500383F31188BFF36F8FBFF34F8FBC
:10432000FEE700263EE039462046FFF740FD013D0E
:10433000A563236923B9FFF787FA012005B0F0BD13
:1043400004F1100000F09AFE0028F4D04FF0E023B2
:104350004FF08052C3F8042DBFF34F8FBFF36F8F20
:10436000E9E7FFF771FA0020E8E702A800F0CCFEC9
:10437000012621E0002384F8443029E0002384F85A
:1043800045302BE02046FFF724FD00F0EFFC09E06C
:104390002046FFF71EFD00F0E9FC2046FFF7BFFCBA
:1043A00000283FD1FFF72EFAA56B002DBBD1019B52
:1043B000002BD6D0002ED8D0FFF746FA00F03CFCF8
:1043C000FFF720FA94F844305BB2B3F1FF3FD1D04D
:1043D00094F845305BB2B3F1FF3FCFD0FFF734FA2A
:1043E00001A902A800F09CFE0028D1D12046FFF7C9
:1043F00096FC0028C6D0019904F1240000F00AFEC2
:104400002046FFF7E6FC00F0B1FC0028CAD14FF0CF
:10441000E0234FF08052C3F8042DBFF34F8FBFF35A
:104420006F8FBFE7002089E770B584B0019158B164
:104430000446036C8BB14FF0500383F31188BFF334
:104440006F8FBFF34F8FFEE74FF0500383F3118858
:10445000BFF36F8FBFF34F8FFEE700F0AFFE05464F
:1044600050B9019B5BB14FF0500383F31188BFF348
:104470006F8FBFF34F8FFEE70026354655E00646A7
:1044800053E0013BA36323683BB123694BB9FFF7BA
:10449000DBF90126304604B070BD00F083FFA06058
:1044A000F3E704F1100000F0E9FD0028EFD04FF031
:1044B000E0234FF08052C3F8042DBFF34F8FBFF3BA
:1044C0006F8FE4E746B14FF0500383F31188BFF3D9
:1044D0006F8FBFF34F8FFEE7FFF7B6F9DAE702A859
:1044E00000F012FE01252AE0002384F8443032E077
:1044F000002384F8453034E0FFF784F9A06800F029
:104500006DFE0646FFF7A0F93BE02046FFF761FC91
:1045100000F02CFC09E02046FFF75BFC00F026FCD5
:104520002046FFF7FCFB002842D1FFF76BF9A36B95
:10453000002BA6D1019B002BC4D0002DCFD0FFF7BC
:1045400083F900F079FBFFF75DF994F844305BB232
:10455000B3F1FF3FC8D094F845305BB2B3F1FF3FF1
:10456000C6D0FFF771F901A902A800F0D9FD002813
:10457000D1D12046FFF7D3FB0028C6D02368002BFB
:10458000BAD0019904F1240000F044FD2046FFF761
:1045900020FC00F0EBFB0028C7D14FF0E0234FF0E8
:1045A0008052C3F8042DBFF34F8FBFF36F8FBCE76A
:1045B0000EB900266EE7FFF725F92046FFF798FBB6
:1045C0000146A06800F09EFEFFF73EF9F1E700000B
:1045D0000023072B0CD8074A52F833200AB10133C5
:1045E000F7E7044A42F8331002EBC3035860704700
:1045F000704700BF307E002070B504460D46164659
:10460000FFF700F994F844305BB2B3F1FF3F0DD0EF
:1046100094F845305BB2B3F1FF3F0BD0FFF714F9CC
:10462000A36B5BB12046FFF7D4FB70BD002384F879
:104630004430EDE7002384F84530EFE73246294661
:1046400004F1240000F0FEFCECE7000028B1416911
:104650000C4A91420AD0002070474FF0500383F378
:104660001188BFF36F8FBFF34F8FFEE7836A064A4F
:10467000934202D01BB100207047002070470120F8
:10468000704700BF4083002028830020084B1B6830
:104690001B6823B9074B4FF0FF321A607047044B79
:1046A0001B68DB68DB685A68024B1A60704700BF02
:1046B000747E00201C8300202DE9F04780460D46C3
:1046C00017469946089EDDF824A00A9C9200A52171
:1046D000206B01F0C9F8236B07F18042013A03EB2C
:1046E000820727F00707002D65D04FF0000CBCF1C2
:1046F0000F0F0BD815F80C2004EB0C0383F83420B3
:1047000015F80C3013B10CF1010CF0E7002384F81C
:104710004330372E00D93726E662E664002525654A
:10472000201DFEF7CAFF04F11800FEF7C6FF246142
:10473000C6F13806A6616462C4F8805484F88454D3
:104740004FF48562294604F1580001F08DF804F514
:104750005173E36504F56B73236604F214436366D7
:1047600001220023C4E9402343F20E33A4F80831A8
:104770004AF6CD33A4F80A3141F23423A4F80C31BF
:104780004EF26D63A4F80E314DF6EC63A4F81031CF
:104790000523A4F812310B23A4F814314A464146EC
:1047A0003846FFF703F82060BAF1000F01D0CAF8CD
:1047B0000040BDE8F087002384F83430A9E700000A
:1047C00038B5002407E004EB840293000E48184437
:1047D000FEF768FF0134372CF5D90C4D2846FEF75B
:1047E00061FF0B4C2046FEF75DFF0A48FEF75AFFBB
:1047F0000948FEF757FF0948FEF754FF084B1D60B4
:10480000084B1C6038BD00BF7C7E0020F082002079
:10481000048300202883002054830020408300204C
:10482000747E0020787E002010B50446FEF7EAFF73
:10483000224A136801331360214B1B685BB1214B83
:104840001B686BB91E4B1B68DA6AE36A9A4207D889
:104850001B4B1C6004E01A4B1C601368012B29D011
:10486000194A1368013313606364E06A174B1B68CD
:10487000984201D9154B186000EB8000211D144BA4
:1048800003EB8000FEF71CFFFEF7DEFF0D4B1B68FD
:104890007BB10B4B1B68DA6AE36A9A4209D24FF08C
:1048A000E0234FF08052C3F8042DBFF34F8FBFF3C6
:1048B0006F8F10BDFFF784FFD2E700BFDC820020BE
:1048C000707E00203C830020E8820020EC820020E3
:1048D0007C7E002010B50446583001F03BF894F877
:1048E000853463B1012B11D0022B0ED04FF0500351
:1048F00083F31188BFF36F8FBFF34F8FFEE7206BF9
:10490000FFF7B8F92046FFF7B5F910BD2046FFF7CD
:10491000B1F9FAE70F4B1B68D3B110B5FEF772FF80
:104920000D4BDB68DC68201DFEF7EEFE0B4A1368BA
:10493000013B1360074A1368013B1360FEF784FFD5
:104940002046FFF7C7FF034B1B68002BE6D110BDC5
:10495000704700BFE082002054830020DC820020EA
:1049600008B5FFF7D7FF074B1B68012BF9D94FF0AC
:10497000E0234FF08052C3F8042DBFF34F8FBFF3F5
:104980006F8FEEE77C7E002070B504460D46174B16
:104990001E68174B18680430FEF7B6FEB4F1FF3FEF
:1049A0000DD03444124B1B685C60A64210D9114BE9
:1049B00018680F4B19680431FEF78DFE70BD002D8D
:1049C000EFD00B4B196804310B48FEF779FEF5E781
:1049D0000A4B1868064B19680431FEF77CFE084B39
:1049E0001B68A342EAD9064B1C60E7E768830020F6
:1049F000707E0020787E002040830020747E00209E
:104A00001C83002030B587B00B9C8CB10C9DC5B1C8
:104A10004FF491650495049DB5F5916F1AD04FF050
:104A2000500383F31188BFF36F8FBFF34F8FFEE7FF
:104A30004FF0500383F31188BFF36F8FBFF34F8F95
:104A4000FEE74FF0500383F31188BFF36F8FBFF37E
:104A50004F8FFEE7049D0C9D2C63022485F885444E
:104A600000240394029505AC01940A9C0094FFF77E
:104A700023FE0C98FFF7D8FE059807B030BD2DE94E
:104A8000F04385B00746884614461E469000FFF75F
:104A900073F808B381464FF49160FFF76DF805464F
:104AA000B0B1C0F83090E5B1002385F885340393A8
:104AB00002950D9B01930C9B009333462246414681
:104AC0003846FFF7F9FD2846FFF7AEFE012005E066
:104AD0004846FFF7CFF8E6E74FF0FF3005B0BDE8F6
:104AE000F0834FF0FF30F9E7F8B5002832D00446E4
:104AF000FEF7AEFFEFF311864FF0500383F31188FA
:104B0000BFF36F8FBFF34F8F2046FFF79FFD054622
:104B1000E0B1194B1B6843BBE26A184B1B68DB6AA8
:104B20009A4220D20025271D3846FEF7EDFDE06AA7
:104B3000134B1B68984201D9114B186000EB8000A1
:104B40003946104B03EB8000FEF7BAFD86F311885F
:104B50002846F8BD4FF0500383F31188BFF36F8FE1
:104B6000BFF34F8FFEE70125DDE704F1180106488A
:104B7000FEF7A6FD0025E9E7E4820020707E002014
:104B8000EC8200207C7E00202883002010B588B0B5
:104B900000240594069407AA06A905A8FEF76AFD55
:104BA000059B0293069B019300942346079A1A499A
:104BB0001A48FFF727FF1A4B186040B100F06CFC51
:104BC000012806D0B0F1FF3F1DD008B010BD002075
:104BD000F6E74FF0500383F31188BFF36F8FBFF3F5
:104BE0004F8F104B1B6858330F4A13600F4B4FF019
:104BF000FF321A600E4B01221A600E4B00221A601F
:104C0000FEF79AFEE1E74FF0500383F31188BFF3FC
:104C10006F8FBFF34F8FFEE7D45F00086149000834
:104C200018830020707E0020C00000201C8300201C
:104C30003C83002068830020024A1368013313601C
:104C4000704700BFE4820020014B1868704700BF26
:104C500068830020F8B53A4B1B68002B69D1394BAB
:104C60001D6801351D60C5B9374B1B681B6843B112
:104C70004FF0500383F31188BFF36F8FBFF34F8F53
:104C8000FEE7314A1168314B186810601960304AEC
:104C9000136801331360FFF7F9FC2E4B1B68AB421E
:104CA0003DD900272C4B1B68DB6A03EB83039A007A
:104CB0002A4B9B58012B00D90127294B1B68002B3D
:104CC0003CD001273AE001271F4B1B681B6843B308
:104CD0001D4B1B68DB68DC6863689D4226D3261D7C
:104CE0003046FEF711FDA36A1BB104F11800FEF770
:104CF0000BFDE36A1B4A1268934201D9194A1360FB
:104D000003EB83039A00314614481044FEF7D8FCA5
:104D1000E26A114B1B68DB6A9A42D4D2D4E70027BF
:104D2000D2E70C4B4FF0FF321A60BBE7094A136021
:104D3000B8E70D4A13680133136000273846F8BD01
:104D4000E482002068830020747E0020787E0020AA
:104D5000208300201C830020707E00207C7E0020A9
:104D60006C830020EC8200202483002038B5354B72
:104D70001B6843B94FF0500383F31188BFF36F8F63
:104D8000BFF34F8FFEE7FEF73DFD2E4B1A68013A49
:104D90001A601B68002B4FD12B4B1B680BB90024EA
:104DA0004BE00024294B1B681BB3284BDB68DC68F5
:104DB00004F11800FEF7A8FC251D2846FEF7A4FC08
:104DC000E06A234B1B68984201D9214B186000EB25
:104DD000800029461F4B03EB8000FEF771FCE26A5E
:104DE0001D4B1B68DB6A9A42DCD31C4B01221A6004
:104DF000D8E70CB1FFF74AFC194B1C6884B9174B74
:104E00001C68D4B14FF0E0234FF08052C3F8042D5A
:104E1000BFF34F8FBFF36F8F01240EE0013C07D02B
:104E2000FFF718FF0028F9D00C4B01221A60F5E7B4
:104E30000B4B00221A60E2E70024FEF705FD204636
:104E400038BD00BFE4820020DC82002028830020DF
:104E5000EC8200207C7E0020707E00206C8300208D
:104E60002483002010B5A8B10446104B1B6843B141
:104E70004FF0500383F31188BFF36F8FBFF34F8F51
:104E8000FEE7FFF7D9FE00212046FFF77DFDFFF783
:104E90006DFF48B94FF0E0234FF08052C3F8042D66
:104EA000BFF34F8FBFF36F8F10BD00BFE4820020B0
:104EB000214B1B681BB1214B01221A6070471F4B0D
:104EC00000221A601E4B1B6803EB83018A001D49F8
:104ED0008A585AB90BB1013BF6E74FF0500383F300
:104EE0001188BFF36F8FBFF34F8FFEE703EB830093
:104EF00082000A4450684068506003EB830C4FEA1C
:104F00008C020832114488420FD003EB83029100D7
:104F10000C4A0A445268D1680B4A116008490B6078
:104F200013685833094A136070474068624691001D
:104F3000044A0A445060E8E7E48200206C830020C1
:104F4000EC8200207C7E0020707E0020C0000020CB
:104F500038B50446FEF756FCE4B1251D2846FEF799
:104F6000D3FBA36A1BB104F11800FEF7CDFB294661
:104F70002348FEF7A5FB94F88434DBB2012B0CD058
:104F8000FEF762FC1F4B1B685BB91F4B1B68A342FB
:104F90000ED038BD1C4B1C68DFE7002384F8843436
:104FA000EEE7FEF72FFCFFF771FBFEF74DFCECE799
:104FB000144B1B68B3B1154B1B6843B14FF0500342
:104FC00083F31188BFF36F8FBFF34F8FFEE74FF06E
:104FD000E0234FF08052C3F8042DBFF34F8FBFF38F
:104FE0006F8FD6E7064B1A68094B1B689A4203D1AC
:104FF000054B00221A60CCE7FFF75AFFC9E700BF54
:10500000408300203C830020707E0020E48200204A
:10501000DC82002058B110B50C46094A11681831DD
:10502000FEF759FB01212046FFF7AEFC10BD4FF003
:10503000500383F31188BFF36F8FBFF34F8FFEE7E9
:10504000707E002038B570B10D4614460A4A1168CA
:105050001831FEF735FB0CB14FF0FF3521462846DD
:10506000FFF792FC38BD4FF0500383F31188BFF374
:105070006F8FBFF34F8FFEE7707E002038B5C36897
:10508000DC6824B304F118052846FEF73DFB184BF5
:105090001B682BBB251D2846FEF736FBE06A154B27
:1050A0001B68984201D9134B186000EB8000294619
:1050B000114B03EB8000FEF703FBE26A0F4B1B680A
:1050C000DB6A9A4211D901200D4B186038BD4FF0B0
:1050D000500383F31188BFF36F8FBFF34F8FFEE749
:1050E00029460848FEF7ECFAE7E70020EEE700BFA4
:1050F000E4820020EC8200207C7E0020707E002074
:105100006C83002028830020034B1B680360034B43
:105110001B684360704700BF208300206883002025
:10512000F8B5C8B10C460546F9B1FEF76BFB1B4B51
:1051300019686B68C81A2268B2F1FF3F26D0184E72
:1051400036682F68B74201D08B4224D9824215D8E5
:105150000023236001241AE04FF0500383F31188E9
:10516000BFF36F8FBFF34F8FFEE74FF0500383F312
:105170001188BFF36F8FBFF34F8FFEE75B1A1344A5
:1051800023602846FFF7C0FF002400E00024FEF75C
:105190005BFB2046F8BD0124F9E700BF68830020CF
:1051A00020830020014B01221A6070476C8300208D
:1051B000014B1868704700BF707E0020054B1B68CC
:1051C00033B1054B1B680BB10020704702207047BC
:1051D000012070473C830020E482002000283ED05C
:1051E00038B50446C36A204A1268D26A93422ED266
:1051F0008269002A05DB1C4A1268D26AC2F13802B1
:105200008261616903EB8303184A02EB83039942CD
:1052100005D0154B1B68DB6AE362012038BD251DF4
:105220002846FEF771FA104B1B68D86AE062104BF3
:105230001B68984201D90E4B186000EB800029468C
:105240000A4B03EB8000FEF73BFA0120E6E7C26C55
:10525000054B1B68DB6A9A4203D30020DEE700207F
:1052600070470120DAE700BF707E00207C7E0020BE
:10527000EC82002000283BD038B504461E4B1B684A
:10528000834208D04FF0500383F31188BFF36F8F30
:10529000BFF34F8FFEE7036D43B94FF0500383F325
:1052A0001188BFF36F8FBFF34F8FFEE7013B03659C
:1052B000C16AC26C91421DD00BB1002038BD051DE2
:1052C0002846FEF721FAE06CE062C0F13803A361E2
:1052D0000A4B1B68984201D9084B186000EB80000C
:1052E0002946074B03EB8000FEF7EAF90120E5E7CA
:1052F000002070470020E1E7707E0020EC82002053
:105300007C7E0020002846D038B50446036D43B9A2
:105310004FF0500383F31188BFF36F8FBFF34F8FAC
:10532000FEE7C26C8A4200D20A46E16A914201D08D
:10533000012B00D038BD184B1B68A34222D0E2627B
:10534000A369002B02DBC2F13802A261626901EBA2
:105350008101124B03EB81018A42EBD1251D2846C6
:10536000FEF7D2F9E06A0E4B1B68984201D90C4B4C
:10537000186000EB80002946084B03EB8000FEF725
:105380009FF9D7E74FF0500383F31188BFF36F8F76
:10539000BFF34F8FFEE77047707E00207C7E0020B9
:1053A000EC820020054B1B6823B1044B1A68136D77
:1053B00001331365014B1868704700BF707E0020F1
:1053C000064B1A6813682BB90123036023B9D3680D
:1053D000186870470023F8E70020704770830020AA
:1053E00008B54160006191420CD8D21A83699A4293
:1053F00001D3012008BD011D094B1868FEF76BF9A8
:105400000020F7E79A4201D2994206D2011D054BCE
:105410001868FEF760F90020ECE70120EAE700BF1A
:10542000748300207083002030B583B0FEF7EAF962
:10543000114B1B681BB1FEF707FA03B030BD0F4DCF
:105440002846FEF72FF90E4C2046FEF72BF90D4BA0
:105450001D600D4B1C60002300930C4B0C4A102167
:105460000A20FEF740FD044B18600028E3D00949EC
:10547000FFF7AEF8DFE700BF948400201884002017
:105480002C8400207083002074830020448400203A
:1054900078830020DC5F000810B588B0FFF7C4FFF8
:1054A000124B1B68CBB100240594069407AA06A9E9
:1054B00005A8FEF7EBF8059B0293069B01930223D8
:1054C00000932346079A0A490A48FFF79BFA0A4BBA
:1054D000186010B1012008B010BD4FF0500383F3E5
:1054E0001188BFF36F8FBFF34F8FFEE794840020C6
:1054F000E45F0008FD57000898840020B8B19C467E
:1055000003461848006858B300B585B00091019271
:10551000029305291CDCFFF751FE022810D000235E
:105520001A4669460F480068FEF74BFD15E04FF03C
:10553000500383F31188BFF36F8FBFF34F8FFEE7E4
:105540000023069A694607480068FEF73AFD04E022
:10555000002362466946FEF7F8FD05B05DF804FBDE
:10556000002070479484002070B582B01B4B1B68EC
:105570001A6862B3DB681E68DC68251D2846FEF7E2
:10558000C3F8236A2046984794F8283013F0040F94
:10559000ECD0A36933449E4207D26360246129465C
:1055A0000E4B1868FEF797F8E0E7002100910B46D4
:1055B00032462046FFF7A2FF0028D7D14FF0500314
:1055C00083F31188BFF36F8FBFF34F8FFEE7044A59
:1055D000106802490860136002B070BD708300203B
:1055E0007483002038B50546FFF72EFB0446074BB1
:1055F0001B68834205D800232B60044B1C602046A7
:1056000038BDFFF7B1FF01232B60F6E7408400208F
:1056100070B582B006460D4617490968C968CC685E
:10562000201DFEF771F894F828C01CF0040F08D173
:105630002CF0010C84F828C0236A2046984702B059
:1056400070BDA16933462A4631442046FFF7C8FEA3
:105650000028F1D0002100910B4632462046FFF78A
:105660004DFF0028E8D14FF0500383F31188BFF3BA
:105670006F8FBFF34F8FFEE77083002070B582B04D
:1056800006460C46FFF7D8FA01A8FFF7ABFF019BCF
:1056900033BB05460CB9B04219D224B1124A126884
:1056A0001268DAB901242246711B104B1868FEF704
:1056B000A3FFFFF75BFBA8B94FF0E0234FF0805248
:1056C000C3F8042DBFF34F8FBFF36F8F0AE0FFF7CE
:1056D0004DFB29463046FFF79BFF03E01C46E2E7FF
:1056E000FFF744FB02B070BD748300209484002057
:1056F00010B588B002E0049B002B0FDA002204A949
:105700003D4B1868FEF7E1FD002873D0049B002B89
:10571000F1DA07990698059B9847ECE7069C6369C0
:1057200013B1201DFDF7F0FF03A8FFF75BFF049BFB
:10573000092BE3D8DFE803F00505053037500505F0
:10574000303794F8283043F0010384F82830059B63
:10575000A169024619442046FFF742FE0028CDD039
:10576000236A2046984794F8283013F0040FC5D0D8
:10577000A269002100910B46059802442046FFF7DC
:10578000BDFE0028BAD14FF0500383F31188BFF358
:105790006F8FBFF34F8FFEE794F8283023F001039B
:1057A00084F82830AAE794F8283043F0010384F8FD
:1057B00028300599A16131B10346024601442046D3
:1057C000FFF70EFE9AE74FF0500383F31188BFF303
:1057D0006F8FBFF34F8FFEE794F8283013F0020F5E
:1057E00004D023F0010384F8283087E72046FEF731
:1057F00041FA83E708B010BD9484002000B583B05F
:1058000001A8FFF7DDFD0199FFF738FFFFF770FFF3
:10581000F6E70000014B1868704700BFC000002089
:1058200070B50D4E0D4D761BB61006D0002455F800
:10583000043B01349847A642F9D1094E094D761B25
:1058400000F0B4FAB61006D0002455F8043B013439
:105850009847A642F9D170BDF85F0008F85F0008CC
:1058600000600008F85F0008830730B548D0541E78
:10587000002A3FD0CAB2034601E0013C3AD303F804
:10588000012B9D07F9D1032C2DD9CDB245EA052571
:105890000F2C45EA054536D9A4F1100222F00F0C71
:1058A00003F1200EE6444FEA121C03F1100242E914
:1058B000045542E9025510327245F8D10CF101024B
:1058C00014F00C0F03EB021204F00F0C13D0ACF128
:1058D000040323F003030433134442F8045B9342AC
:1058E000FBD10CF003042CB1CAB21C4403F8012B09
:1058F0009C42FBD130BD64461346002CF4D1F9E73D
:1059000003461446BFE71A46A446E0E72DE9F041F6
:105910000E680C460546BEB137688FB1D7F80080D7
:10592000B8F1000F08D0D8F8001009B1FFF7EEFF6A
:105930004146284600F0CCF83946284600F0C8F821
:105940003146284600F0C4F821462846BDE8F0411B
:1059500000F0BEB8224B1B68834240D0C16C70B5CA
:10596000054681B100268C593CB121462468284661
:1059700000F0AEF8002CF8D1E96C0436802EF2D19C
:10598000284600F0A5F8296C11B1284600F0A0F8CF
:10599000D5F8484154B105F5A676B44206D0214663
:1059A0002468284600F094F8A642F8D1696D11B138
:1059B000284600F08DF8AB6B83B1EB6B2846984717
:1059C000D5F8E04254B1216811B12846FFF79EFF97
:1059D00021462846BDE8704000F07AB870BD704797
:1059E000C0000020024B13B1024800F005B8704718
:1059F00000000000055A0008002301461A46184618
:105A000000F08EB938B5084B084D5B1B9C1007D0D1
:105A1000043B1D44013C55F804399847002CF9D14A
:105A2000BDE8384000F0C8B9046000080060000814
:105A3000F8B5244F0C46064600F054F9BA6855688C
:105A4000C4F57E630F3325F003052B4423F47F63F5
:105A500023F00F03A3F58054B4F5805F07DB00212A
:105A6000304600F04BF9BB682B44984204D03046D6
:105A700000F03EF90020F8BD6142304600F03EF9EA
:105A800001300DD0104ABB682D1B45F001055D604B
:105A9000136830461B1B136000F02AF90120F8BD83
:105AA0000021304600F02AF9BA68831A0F2BDEDD98
:105AB00043F001035360054B03491B68C01A08609B
:105AC000D5E700BFF4040020A8840020FC080020D3
:105AD000002961D0F8B50C46064600F003F954F8E9
