:020000040800F2
:1000000000000220B51600088D1100088F110008AD
:1000100091110008931100089511000800000000DC
:10002000000000000000000000000000E1390008AE
:100030009711000800000000813A00084D360008C2
:100040000517000805170008051700080517000820
:100050000517000805170008051700080517000810
:100060000517000805170008991100080517000872
:1000700005170008051700080517000805170008F0
:10008000051700080517000805170008A511000846
:10009000B5110008C511000805170008D5110008A2
:1000A00005170008051700080517000805170008C0
:1000B00005170008051700080517000805170008B0
:1000C00005170008051700080517000805170008A0
:1000D0000517000805170008051700080517000890
:1000E0000517000805170008051700080517000880
:1000F000E1110008F11100080517000805170008B4
:10010000051700080517000805170008051700085F
:100110000517000805170008011200080517000858
:100120001112000805170008051700080517000838
:100130000517000800000000000000000517000877
:10014000051700080517000805170008051700081F
:10015000051700080517000805170008051700080F
:1001600005170008051700080517000805170008FF
:100170000517000805170008000000000000000037
:0801800005170008051700082F
:1001900010B5054C237833B9044B13B10448AFF3C1
:1001A00000800123237010BD5809002000000000CA
:1001B000A860000808B5034B1BB103490348AFF31F
:1001C000008008BD000000005C090020A860000855
:1001D00053B94AB9002908BF00281CBF4FF0FF31AE
:1001E0004FF0FF3000F074B9ADF1080C6DE904CEAA
:1001F00000F006F8DDF804E0DDE9022304B0704702
:100200002DE9F047089D04468E46002B4DD18A42C9
:10021000944669D9B2FA82F252B101FA02F3C2F1FC
:10022000200120FA01F10CFA02FC41EA030E94408D
:100230004FEA1C48210CBEFBF8F61FFA8CF708FBAE
:1002400016E341EA034306FB07F199420AD91CEB86
:10025000030306F1FF3080F01F81994240F21C81B8
:10026000023E63445B1AA4B2B3FBF8F008FB103300
:1002700044EA034400FB07F7A7420AD91CEB040435
:1002800000F1FF3380F00A81A74240F20781644405
:10029000023840EA0640E41B00261DB1D44000238A
:1002A000C5E900433146BDE8F0878B4209D9002DEE
:1002B00000F0EF800026C5E9000130463146BDE878
:1002C000F087B3FA83F6002E4AD18B4202D38242E2
:1002D00000F2F980841A61EB030301209E46002D91
:1002E000E0D0C5E9004EDDE702B9FFDEB2FA82F2E6
:1002F000002A40F09280A1EB0C014FEA1C471FFA44
:100300008CFE0126200CB1FBF7F307FB131140EA2A
:1003100001410EFB03F0884208D91CEB010103F1F7
:10032000FF3802D2884200F2CB804346091AA4B2B9
:10033000B1FBF7F007FB101144EA01440EFB00FE8D
:10034000A64508D91CEB040400F1FF3102D2A645F2
:1003500000F2BB800846A4EB0E0440EA03409CE791
:10036000C6F12007B34022FA07FC4CEA030C20FA3E
:1003700007F401FA06F31C43F9404FEA1C4900FA5E
:1003800006F3B1FBF9F8200C1FFA8CFE09FB1811DB
:1003900040EA014108FB0EF0884202FA06F20BD94E
:1003A0001CEB010108F1FF3A80F08880884240F29E
:1003B0008580A8F102086144091AA4B2B1FBF9F0E2
:1003C00009FB101144EA014100FB0EFE8E4508D9DD
:1003D0001CEB010100F1FF346CD28E456AD9023862
:1003E000614440EA0840A0FB0294A1EB0E01A14247
:1003F000C846A64656D353D05DB1B3EB080261EBB5
:100400000E0101FA07F722FA06F3F1401F43C5E98E
:10041000007100263146BDE8F087C2F12003D840C4
:100420000CFA02FC21FA03F3914001434FEA1C4706
:100430001FFA8CFEB3FBF7F007FB10360B0C43EAF8
:10044000064300FB0EF69E4204FA02F408D91CEBA8
:10045000030300F1FF382FD29E422DD902386344A6
:100460009B1B89B2B3FBF7F607FB163341EA034146
:1004700006FB0EF38B4208D91CEB010106F1FF3895
:1004800016D28B4214D9023E6144C91A46EA00468C
:1004900038E72E46284605E70646E3E61846F8E61E
:1004A0004B45A9D2B9EB020864EB0C0E0138A3E767
:1004B0004646EAE7204694E74046D1E7D0467BE748
:1004C000023B614432E7304609E76444023842E7C0
:1004D000704700BF844641EA000313F003036DD167
:1004E000403A41D351F8043B40F8043B51F8043BF7
:1004F00040F8043B51F8043B40F8043B51F8043BFE
:1005000040F8043B51F8043B40F8043B51F8043BED
:1005100040F8043B51F8043B40F8043B51F8043BDD
:1005200040F8043B51F8043B40F8043B51F8043BCD
:1005300040F8043B51F8043B40F8043B51F8043BBD
:1005400040F8043B51F8043B40F8043B51F8043BAD
:1005500040F8043B51F8043B40F8043B51F8043B9D
:1005600040F8043B403ABDD2303211D351F8043B3D
:1005700040F8043B51F8043B40F8043B51F8043B7D
:1005800040F8043B51F8043B40F8043B103AEDD2EC
:100590000C3205D351F8043B40F8043B043AF9D23D
:1005A000043208D0D2071CBF11F8013B00F8013B10
:1005B00001D30B8803806046704700BF082A13D31D
:1005C0008B078DD010F003038AD0C3F10403D21A35
:1005D000DB071CBF11F8013B00F8013B80D331F869
:1005E000023B20F8023B7BE7043AD9D3013A11F8E9
:1005F000013B00F8013BF9D20B7803704B78437054
:100600008B7883706046704700B585B000230093F7
:100610000193029303932848284A02604360836051
:1006200001220261037680F820304FF08051C162D0
:100630004FF000618162C3600421C16180F8302005
:10064000436101F027F940BB0A2300930123019382
:10065000052302936946184801F062FA00BB0B2398
:100660000093022301936946134801F059FAD0B967
:100670000C2300930323019369460F4801F050FABD
:10068000A0B90D2300930423019369460A4801F0A1
:1006900047FA70B905B05DF804FB00F04DFBD3E7F5
:1006A00000F04AFBDBE700F047FBE1E700F044FB2A
:1006B000E7E700F041FBEDE78C0900200020014056
:1006C00030B589B0002303930493059306930793F1
:1006D000026803F1804303F590339A4201D009B0D8
:1006E00030BD04460025019503F58C335A6C42F465
:1006F00080725A645A6C02F480720192019A0295D7
:100700001A6B42F004021A631B6B03F0040302939A
:10071000029B0F2303930323049303A9104802F0C1
:1007200055F81048104B036045608560C5604FF474
:10073000806303614FF4805343614FF480438361CE
:100740004FF48073C3610562456201F0B5FE18B9CC
:10075000044BA3639C63C2E700F0EEFAF8E700BF26
:1007600000080240D40900201064024008B5054B7F
:1007700000221A60044B186810B1024903F04CFEC5
:1007800008BD00BF340A00207409002008B50448E1
:1007900002F094FC04220349034801F0A7F808BDC5
:1007A000E80B0020780900208C09002008B50322FE
:1007B0000021012003F0E1FC074B186048B104F070
:1007C000F7FD064B1860FFF7E1FF002004F0C0FCC6
:1007D000FBE700BFF3E700BF740900208809002091
:1007E00008B50C480C4B036004234360002383606E
:1007F000C3604FF4803202614361037643768376AF
:10080000C3760377437701F057FA00B908BD00F0CB
:1008100093FAFBE73C0A00200064004008B50C484E
:100820000C4B03600423436000238360C3604FF4D8
:10083000803202614361037643768376C376037721
:10084000437701F039FA00B908BD00F075FAFBE70B
:10085000640A00200068004010B58AB000230593A8
:1008600006930793089309930368424A934204D07E
:10087000414A934246D00AB010BD404A1368013342
:100880001360012B31D0002401943D4B1A6B42F0D0
:1008900002021A631B6B03F002030193019B4FF4E6
:1008A00040730593022306930323089309230993B6
:1008B00005A9344801F08AFF22460521132001F0E2
:1008C00035FD132001F06AFD22460521142001F0B8
:1008D0002DFD142001F062FD22460521152001F0B6
:1008E00025FD152001F05AFDC5E700230093244B98
:1008F0001A6C42F000721A641B6C03F000730093D0
:10090000009BC0E7002302931D4B1A6C42F08062EB
:100910001A641B6C03F080630293029B174A1368EE
:1009200001331360012B18D000230493144B1A6B6E
:1009300042F002021A631B6B03F002030493049B50
:100940006023059302230693032308930923099345
:1009500005A90C4801F03AFF8DE700230393084BEB
:100960001A6C42F000721A641B6C03F0007303935C
:10097000039BD9E70064004000680040380A00206B
:10098000003802400004024000B589B000221C215A
:10099000052003F0F2FB184B186068B1174C204695
:1009A00001F030FA642002F0EAFE154B154A1649B0
:1009B000204601F055FA0CE000BFEFE700BF0EE063
:1009C0000F4B079A01A90D4801F04AFA012002F0E5
:1009D000D6FE0A4B93F82030DBB2052BEED0064B47
:1009E00018680028F2D04FF0FF3201A903F06DFD26
:1009F0000128EBD1E4E700BF8C0A00203C0A00206C
:100A0000900A0020000000200800002000B589B0F6
:100A100000221C21052003F0B0FB184B186068B1C0
:100A2000174C204601F0EEF9642002F0A8FE154BA9
:100A3000154A1649204601F013FA0CE000BFEFE713
:100A400000BF0EE00F4B079A01A90D4801F008FA0C
:100A5000012002F094FE0A4B93F82030DBB2052B04
:100A6000EED0064B18680028F2D04FF0FF3201A9F3
:100A700003F02BFD0128EBD1E4E700BFA00A002022
:100A8000640A0020A40A00200000002008000020C2
:100A900000B583B000220192094B196B41F480012B
:100AA00019631B6B03F480030193019B052138201C
:100AB00001F03CFC382001F071FC03B05DF804FB50
:100AC0000038024008B5012002F059FEFBE70000A3
:100AD00008B54FF40051034801F077FF642002F09D
:100AE0004EFEF6E70008024008B5234A00212348DD
:100AF00002F0E6FD224B1860224A0021224802F053
:100B0000DFFD224B1860224A0021224802F0D8FD66
:100B1000214B1860214A0021214802F0D1FD214BD0
:100B20001860214A0021214802F0CAFD204B1860BC
:100B3000204A0021204802F0C3FD204B1860204AC3
:100B40000021204802F0BCFD1F4B18601F4A002105
:100B50001F4802F0B5FD1F4B18601F4A00211F48B7
:100B600002F0AEFD1E4B18601E4A00211E4802F026
:100B7000A7FD1E4B186008BDB0610008C50A00083B
:100B8000C00A002040620008D10A0008D00A0020F4
:100B900044610008AD070008B40A0020F8610008AD
:100BA00045100008C80A00201C6200088D0E0008CD
:100BB000CC0A00208862000851160008D80A0020DC
:100BC0006861000889090008B80A00208C610008E3
:100BD0000D0A0008BC0A0020D46100089910000822
:100BE000C40A002064620008A9160008D40A002084
:100BF0002DE9F04188B000240394049405940694F0
:100C000007940094324B1A6B42F004021A631A6B79
:100C100002F004020092009A01941A6B42F0010261
:100C20001A631A6B02F001020192019A02941A6B84
:100C300042F002021A631B6B03F002030293029B51
:100C4000244E22464FF40051304601F0B8FE4FF4D6
:100C500000530393012504950594069403A9304697
:100C600001F0B4FD302703974FF444130493059427
:100C7000DFF8688003A9404601F0A8FDC023039374
:100C80000494059503A9404601F0A0FD0397049440
:100C9000059503A9304601F099FD032303930494BD
:100CA000059503A90C4801F091FD224605210A2073
:100CB00001F03CFB0A2001F071FB224605211720C0
:100CC00001F034FB172001F069FB08B0BDE8F081AA
:100CD00000380240000802400004024000000240C8
:100CE00008B5054B054A002101F038F9044A13788C
:100CF0000133137008BD00BFDC0A0020E40A0020A5
:100D0000000B002010B504460268094B9A4208D037
:100D10002368084A934207D002F58062934203D0C9
:100D200010BD00F00BFDF3E7204600F0DBF8F7E71D
:100D300000100040001C004072B6FEE700B595B000
:100D40003022002108A804F00DFF00230393049330
:100D50000593069307930193184A116C41F0805153
:100D60001164126C02F080520192019A0293144AAB
:100D7000116841F480411160126802F480420292CD
:100D8000029A0222089201220B9210220C920E93D8
:100D900008A801F031FE68B90F23039300210491E4
:100DA00005910691079103A802F074F820B915B0D7
:100DB0005DF804FBFFF7C0FFFFF7BEFF00380240FD
:100DC0000070004008B500F09FFCFFF7B7FFFFF789
:100DD0000FFFFFF75DFEFFF703FDFFF715FC00F0C7
:100DE00051FA00F087FA00F09DFAFFF717FD02F0C4
:100DF00039FCFFF779FE02F047FCFEE710B5044628
:100E00000B4B1B89834204D0094B1B8BA34207D099
:100E100010BD084802F090F9054B02229A72F3E7E0
:100E2000054802F089F9024B02229A76F0E700BFEA
:100E300020000020580B0020A00B002010B5044615
:100E40000189406801F0B4FD10B1012803D010BD44
:100E50000023A372FBE70123A372F8E708B5064B52
:100E6000997A064A11709B7E5370054B05490648D6
:100E700000F0F6FF08BD00BF200000204000002069
:100E8000900A0020440000203C0A002010B504F025
:100E90008FFA124B1860002406E0114800EB041092
:100EA000FFF7CCFF0134E4B2012CF6D9002004F0A6
:100EB0004FF9002401E00134E4B2012CF6D8084BCC
:100EC00003EB04139B7A022BF5D1054800EB0410C9
:100ED000FFF7B4FFFFF7C2FFEDE700BF040B0020F0
:100EE0002000002010B504460F4B984213D00F4B42
:100EF0009C4214D00E4B186860B103F0F5FE48B167
:100F00004FF0E0234FF08052C3F8042DBFF34F8F12
:100F1000BFF36F8F10BD184602F052F9E7E718468D
:100F200002F04EF9E6E700BF580B0020A00B0020AE
:100F3000040B0020104B9B6955221A7000232BB123
:100F400070470D4A9269591C117005E010B418B130
:100F50000278D2B29A42F4D0074A9469591C074ADF
:100F60004FF0340C0CFB03231B7A6354CBB2002BE1
:100F7000EDD05DF8044B7047640000208000002035
:100F800008B5094B186848B100234FF0FF320749F4
:100F900003F017F9012801D000BF02E0024B1B68E3
:100FA00003B108BD00BFFCE7A00A002064000020D8
:100FB00008B5FFF7BFFFFFF7E3FF08BD70B50446B4
:100FC00000250BE02E4605F1080334F813309BB2E0
:100FD00094F82C2093421BD80135EDB20C2D2FD85C
:100FE000E36803EB850233F82530616809885B1AF2
:100FF000002BB8BF5B4252889342E3DA05F1080246
:1010000034F812309BB201339BB224F81230D9E786
:10101000237ADBB2AB4205D02572236B13B1236B6D
:10102000204698470836002324F8163005E003F1DF
:101030000802002124F8121001330D2BF7DDCBE755
:1010400070BD000010B50023A3B10F4B1868002835
:10105000FBD0002103F0E8FA0128F6D10B4B012266
:101060001A700024002CF0D10948FFF7A7FF0134C3
:10107000E4B2F7E7064A342101FB03220549116374
:101080000133DBB2E0E700BF74090020080B002049
:1010900080000020B10F000808B54FF47A7002F00C
:1010A0006EFBFAE700B583B0002200920D4B596C3D
:1010B00041F480415964596C01F4804100910099D8
:1010C0000192196C41F0805119641B6C03F080533C
:1010D0000193019B0F216FF0010001F027F903B08C
:1010E0005DF804FB0038024030B589B004460023A7
:1010F0000193214B1A6C42F010021A641B6C03F02E
:1011000010030193019B02A903A801F089FF069B2C
:10111000CBB901F075FF03461848A0FB03239B0CD5
:10112000013B1748174A026040F2E732C260436051
:10113000002303618360836102F080F9054630B1CA
:10114000284609B030BD01F05BFF4300E4E70C48DE
:1011500001F0F2FF05460028F2D1362001F01EF919
:101160000F2C01D90125EBE700222146362001F0A2
:10117000DDF8054B1C60E3E70038024083DE1B43CB
:101180000C0B0020001000400C010020FEE7FEE7E1
:10119000FEE7FEE7FEE7704708B5102001F01EFCF1
:1011A00008BD000008B5024800F089FF08BD00BF77
:1011B0003C0A002008B5024800F081FF08BD00BFCE
:1011C0003C0A002008B5024800F079FF08BD00BFC6
:1011D0003C0A002008B5202001F000FC08BD0000FA
:1011E00008B5024802F009F808BD00BF580B0020FE
:1011F00008B5024802F001F808BD00BFA00B0020AE
:1012000008B5024801F0F9FF08BD00BF0C0B002033
:1012100008B5024801F0ECF908BD00BFD409002070
:1012200010B503460C4A0D490D48006840B10C4802
:1012300000680344521A934206D8094A136010BD4D
:101240000748084C0460F2E704F062FC0C230360DA
:101250004FF0FF30F3E700BF000002200004000061
:10126000540B002038850020054BD3F8882042F429
:101270007002C3F888204FF000629A60704700BF88
:1012800000ED00E000B587B00023029303930493C0
:101290000593009301931548154A026040F23F629E
:1012A000426083603122C2600361836102F0C6F84C
:1012B00098B94FF48053029302A90C4802F0F7F852
:1012C00070B920230093002301936946074802F078
:1012D0006DF940B907B05DF804FBFFF72DFDE8E7B5
:1012E000FFF72AFDEDE7FFF727FDF3E7E80B002006
:1012F0000004004008B50948094B036040F23F6311
:10130000436000238360C722C2600361836102F0EF
:1013100095F800B908BDFFF70FFDFBE7580B00205B
:10132000001C004008B50948094B036040F23F63C8
:10133000436000238360C722C2600361836102F0BF
:101340007DF800B908BDFFF7F7FCFBE7A00B002014
:101350000020004000B585B00368204A934208D0C1
:101360001F4A934212D01F4A934223D005B05DF822
:1013700004FB002301931C4B1A6C42F002021A6416
:101380001B6C03F002030193019BEFE70022029222
:10139000154B196C41F0800119641B6C03F080033C
:1013A0000293029B05212C2000F0C0FF2C2000F0AE
:1013B000F5FFDBE7002203920B4B196C41F48071BF
:1013C00019641B6C03F480730393039B05212D2088
:1013D00000F0ACFF2D2000F0E1FFC7E70004004063
:1013E000001C0040002000400038024070B4054658
:1013F000164EB446164C0FCCACE80F0094E8030030
:101400008CE80300B36955221A7000230BB170BC3D
:10141000704755B1A98889B203EB83020D4800EBF0
:101420008202928892B291420BD0084A9069591C6C
:1014300003EB8303074A02EB83039B794354CBB24C
:10144000E4E7024A9269591C1170EEE7C0000020DF
:101450000C630008F400002030B40C4C0C4D0FCD90
:101460000FC495E8030084E8030000230BB130BCEF
:101470007047064A906903EB83029100054A0A44CB
:10148000D27CC2540133DBB2F0E700BFC0000020C1
:10149000DC000020F400002008B5094B186848B1B2
:1014A00000234FF0FF32074902F08BFE012801D0E4
:1014B00000BF02E0024B1B6803B108BD00BFFCE7A0
:1014C000A00A0020C000002008B50022C274FFF767
:1014D0008DFFFFF7E1FF08BD08B50022C274FFF7DA
:1014E00085FFFFF7D9FF08BD08B500231946002B7B
:1014F00001DDB9B908BD03EB830290000C4A024438
:101500009279D2B2012A01D00133F0E703EB8300D4
:10151000820007481044C27C0132D2B2C274013149
:10152000C9B2F1E7FFF798FFFFF7B6FFE2E700BFA8
:10153000F400002070B50024002C00DD70BD434B8A
:1015400004EB8405AA0003EB85059858A98889B2A5
:1015500001F02EFA0646A8746B7C43B938B92B7C8F
:101560002BB900226A7401222A740222AA7104EBA8
:101570008403364A02EB83031B7C0BB9012E13D084
:1015800004EB8403314A02EB83031B7CDBB2012BA7
:1015900026D004EB84032D4A02EB83031B7CDBB2D1
:1015A000012B49D00134C7E704EB840302EB83032A
:1015B0009B795BB104EB840302EB8303DB682BB103
:1015C00004EB840002EB8000C368984704EB8403BB
:1015D0001E4A02EB830300229A711A745A74CFE7F1
:1015E00004EB840302EB83035B7CDBB2142BD0D9C6
:1015F000D6B904EB840302EB83039B79DBB2012BA6
:101600000BD004EB840302EB83039B682BB104EB48
:10161000840002EB80008368984704EB84030B4A44
:1016200002EB830301229A7104EB8403074A02EB65
:10163000830300221A74ACE704EB8402034B03EB30
:101640008202537C0133DBB25374ABE7F400002019
:1016500008B50E4B002201210D4802F09FF80D4BFA
:10166000186020B1642102F0EDF800B100BF0A4B10
:101670000A4A9A600A4ADA600A4B01221A70FFF796
:1016800059FF012002F07BF8F9E700BF246300084E
:10169000E9140008300C0020F4000020C9140008F0
:1016A000D9140008340C002008B54FF47A7002F009
:1016B00066F8FAE7DFF834D00D480E490E4A0023E9
:1016C00002E0D458C4500433C4188C42F9D30B4AF6
:1016D0000B4C002301E013600432A242FBD3FFF75E
:1016E000C3FD04F01BFAFFF76DFB704700000220FA
:1016F00000000020540900206C63000858090020F5
:1017000034850020FEE7000008B50B4B1A6842F450
:1017100000721A601A6842F480621A601A6842F411
:1017200080721A60032000F0EFFD0F20FFF7DCFC51
:10173000FFF7B8FC002008BD003C0240034A1168D6
:10174000034B1B780B441360704700BF380C00201C
:1017500008010020014B1868704700BF380C0020BA
:101760004A4B5A6822F440325A605A6841680A4328
:101770005A600268536823F48073536002685368A8
:10178000016943EA012353600268536823F0407300
:1017900053600268536881680B4353600268936822
:1017A00023F40063936002689368C1680B439360FD
:1017B000826A374B9A4257D00268936823F070636D
:1017C000936002689368816A0B4393600268936830
:1017D00023F04053936002689368C16A0B4393609F
:1017E0000268936823F00203936002689368017EA5
:1017F00043EA4103936090F82030002B3FD0026809
:10180000536843F4006353600268536823F46043F1
:10181000536001684B68426A013A43EA42334B60C5
:101820000268D36A23F47003D3620168CB6AC26989
:10183000013A43EA0253CB620268936823F40073CF
:1018400093600268936890F8301043EA41239360F4
:101850000268936823F48063936002689368416927
:1018600043EA8123936070470268936823F07063B2
:1018700093600268936823F040539360B0E7026876
:10188000536823F400635360CAE700BF002301409C
:101890000100000F38B310B50446036C43B1236C4C
:1018A00013F0100F0BD00120002384F83C3010BD42
:1018B000FEF706FF0023636484F83C30EFE7236CF7
:1018C00023F4885323F0020343F0020323642046E9
:1018D000FFF746FF00206064236C23F0030343F00E
:1018E00001032364E0E701207047000010B582B0D7
:1018F00013460022019290F83C20012A00F0AE80AD
:101900000446012280F83C200268906810F0010F24
:1019100013D1906840F001009060534A1068534A18
:10192000A2FB0020800C00EB4000019002E0019837
:101930000138019001980028F9D12268906810F4CC
:10194000807F03D0906820F4807090602268906857
:1019500010F0010F77D0206C20F4E06020F001003F
:1019600040F480702064526812F4806F05D0226CBD
:1019700022F4405242F480522264226C12F4805FBE
:1019800036D0626C22F006026264002284F83C20A9
:10199000A26B3748D063A26B36481064A26B3648FE
:1019A000D06422686FF0220010602068426842F024
:1019B000806242602068826842F48072826020689F
:1019C0000A4600F14C01A06B00F0DCFD2B4B5B687C
:1019D00013F01F0F27D12368294A934211D002F533
:1019E0008072934207D0274A934214D0002033E0FC
:1019F00000226264C9E702F50072526812F01F0FFC
:101A0000F1D19A6812F0405F2AD19A6842F0804280
:101A10009A60002020E002F58072526812F0100FE8
:101A2000EFD0002018E02368154A934201D000202F
:101A300012E09A6812F0405F14D19A6842F0804236
:101A40009A60002008E0236C43F010032364636C69
:101A500043F001036364002002B010BD0220FBE7E5
:101A60000020F9E70020F7E7B400002083DE1B43E5
:101A7000AD1A00088B1A0008971A000800230140CD
:101A80000020014000220140704708B5806BFFF73D
:101A9000FBFF08BD704708B5806B40230364436CAF
:101AA00043F004034364FFF7F5FF08BD08B50346A0
:101AB000806B026C12F0500F25D1036C43F400735D
:101AC000036403689A6812F0405F19D1027EBAB9C4
:101AD000DA6A12F4700F03D09A6812F4806F0FD193
:101AE0005A6822F020025A60036C23F48073036466
:101AF000036C13F4805F03D1036C43F001030364B0
:101B0000FEF734FE08BD026C12F0100F04D1826B98
:101B1000D26C18469047F5E7FFF7BCFFF2E70000EC
:101B200030B482B00023019390F83C30012B00F0D8
:101B3000BB80012380F83C300B68092B41D9046835
:101B4000E2689BB203EB43031E3B4FF0070C0CFA19
:101B500003F322EA0303E3600468E2680B8803EB03
:101B600043031E3B8D6805FA03F31343E3604B68A0
:101B7000062B3DD80468626B03EB8303053B4FF0F3
:101B80001F0C0CFA03F322EA030363630468626B1D
:101B90004B6803EB8303053BB1F800C00CFA03F379
:101BA000134363630268414B9A4251D002683F4B32
:101BB0009A4256D0002380F83C30184602B030BC20
:101BC0007047046822699BB203EB43034FF0070C94
:101BD0000CFA03F322EA03032361046822690B88E9
:101BE00003EB43038D6805FA03F313432361BEE758
:101BF0000C2B16D805682A6B03EB8303233B1F24A9
:101C000004FA03F322EA03032B6305682A6B4B688B
:101C100003EB8303233B0C8804FA03F313432B6386
:101C2000C0E70568EA6A03EB8303413B1F2404FA1B
:101C300003F322EA0303EB620568EA6A4B6803EBED
:101C40008303413B0C8804FA03F31343EB62A9E7D7
:101C50000B68122BAAD1164A536843F480035360D1
:101C6000A4E70B68103B012BA4D8114A536843F436
:101C7000000353600B68102B9CD10E4B1B6802F1C4
:101C8000467202F52E3202F28332A2FB03239B0C32
:101C900003EB83035B00019302E0019B013B019393
:101CA000019B002BF9D185E7022087E70020014046
:101CB00000230140B4000020002800F0A18038B5C6
:101CC000044690F82030D3B12268136843F0010332
:101CD0001360FFF73FFD054623685A6812F0010FB5
:101CE00010D1FFF737FD401B0A28F5D9636A43F48A
:101CF00000336362052384F82030012038BDFEF7ED
:101D0000ABFDE1E71A6822F002021A60FFF722FD3C
:101D1000054623685A6812F0020F0DD0FFF71AFD2E
:101D2000401B0A28F5D9636A43F400336362052334
:101D300084F820300120E1E7227E012A3DD01A6894
:101D400022F080021A60637E012B3BD02268136868
:101D500023F040031360A37E012B39D0226813685F
:101D600023F020031360E37E012B37D02268136831
:101D700043F010031360237F012B35D022681368D2
:101D800023F008031360637F012B33D022681368AC
:101D900023F004031360A368E2681343226913432A
:101DA000626913436268013A21681343CB610020E2
:101DB0006062012384F82030A0E71A6842F08002B4
:101DC0001A60C0E72268136843F040031360C2E75B
:101DD0002268136843F020031360C4E72268136885
:101DE00023F010031360C6E72268136843F008036A
:101DF0001360C8E72268136843F004031360CAE75E
:101E00000120704770B5044690F82050EDB2012DC6
:101E100006D0436A43F4002343620125284670BD7F
:101E2000022380F820300268136823F00103136056
:101E3000FFF790FC064623685B6813F0010F0CD097
:101E4000FFF788FC831B0A2BF5D9636A43F4003340
:101E50006362052384F82030E0E700256562DDE752
:101E600030B590F820C00468A4680CF1FF3C5FFA1C
:101E70008CFCBCF1010F6BD814F0E05F62D0C4F3AE
:101E8000016CBCF1020F05D9436A43F400034362BD
:101E9000012062E0012404FA0CF41C608B68002B22
:101EA0003DD10D68CB68046843EA45550CF1180331
:101EB0001B01E55003680C690CF1180E03EB0E13BF
:101EC0005C600B7D012B35D0D17993791B0443EAFB
:101ED0000163517943EA012314790168234301EB3B
:101EE0000C11C1F88C31D17893781B0443EA01635B
:101EF000517843EA0123117802680B4302EB0C127C
:101F0000C2F8883102680CF1180C4FEA0C1C52F828
:101F10000C3043F0010342F80C3000201DE04C6807
:101F200043EAC403CC6823430CF118042401056878
:101F30002B51BFE7036803EB0E13596841F480711E
:101F40005960C1E7436A43F400134362012004E08F
:101F5000436A43F480234362012030BD90F820C0DF
:101F60000CF1FF3C5FFA8CFCBCF1010F00F2958094
:101F700030B451B90468E46814F0030F10D1436A17
:101F800043F400134362012077E00468246914F0ED
:101F9000030F05D1436A43F40013436201206CE050
:101FA00001F11B04240105682C5904F00404946019
:101FB000002C64D101F11B04240105682C59640D27
:101FC0001460046801F11B0C4FEA0C1C54F80C401F
:101FD00004F00204D46004686444646804F00F04EC
:101FE0001461046864446468C4F307249461046859
:101FF00064446468240C5461026802EB0112D2F854
:10200000B8211A70026802EB0112D2F8B821C2F3AB
:1020100007225A70026802EB0112D2F8B821C2F30B
:1020200007429A70026802EB0112D2F8B821120E30
:10203000DA70026802EB0112D2F8BC211A71026850
:1020400002EB0112D2F8BC21C2F307225A710268D6
:1020500002EB0112D2F8BC21C2F307429A71026866
:1020600002EB0112D2F8BC21120EDA7179B90268C2
:10207000D36843F02003D360002030BC704701F1E7
:102080001B04240105682C59E408546099E7026890
:10209000136943F020031361EEE7436A43F480239E
:1020A0004362012070477047704770477047704720
:1020B00070477047704770477047704770472DE909
:1020C000F84F054603685C69D3F804809F68D3F82D
:1020D0000CB0D3F810A0D3F8189014F001063BD040
:1020E00017F0010616D001229A6017F0020F08D1EE
:1020F00017F0040F0CD117F0080606D04FF48056E5
:1021000008E0FFF7D0FF002604E0FFF7CFFF01E073
:102110004FF4006617F4807F0DD02B684FF4807267
:102120009A6017F4007F40F0868017F4806F00F00B
:10213000868046F4005617F4803F0DD02B684FF48C
:1021400080329A6017F4003F40F0838017F4802FAC
:1021500000F0838046F4004614F0080F07D01BF00F
:10216000100F04D046F400762B681022DA6014F0C9
:10217000040F02D01BF0080F79D114F0020F04D025
:102180002B68DB6813F0030F78D114F0400F07D0F1
:102190001AF0100F04D046F480662B6810221A61E2
:1021A00014F0200F02D01AF0080F6BD114F0100FAA
:1021B00004D02B681B6913F0030F6AD114F4003F9D
:1021C00002D018F0100F68D114F4803F02D018F03C
:1021D000080F69D114F4004F7AD018F0040F74D0AE
:1021E00014F4807F04D019F0010F01D046F00106ED
:1021F00014F4007F04D019F0020F01D046F002065B
:1022000014F4806F04D019F0040F01D046F00406D6
:1022100014F4006F59D019F0700956D0B9F1400F7D
:1022200065D058D8B9F1200F5ED0B9F1300F42D146
:1022300046F0200644E02846FFF736FF7BE717F418
:10224000006F02D046F4804675E72846FFF72FFF5F
:1022500071E72846FFF729FF7EE717F4002F02D029
:1022600046F4803678E72846FFF722FF74E72B68AC
:102270000822DA602846FFF71CFF7EE72846FEF7B3
:102280002FFD82E72B6808221A612846FFF713FF0B
:102290008CE72846FFF70EFF90E72B6810225A6064
:1022A0002846FFF709FF8FE72B6808225A60284667
:1022B000FFF703FF8EE7B9F1100F01D146F00806D2
:1022C0002A68936923F0700393612B6804225A6093
:1022D0009EB9BDE8F88FB9F1500F0BD0B9F1600F7E
:1022E000EED146F48076EBE746F01006E8E746F0DC
:1022F0004006E5E746F08006E2E76B6A1E436E6241
:102300002846FFF7DBFEE4E7074AD36823F4E063DF
:102310001B041B0C000200F4E060034343F0BF63A6
:1023200043F40033D360704700ED00E000B5194B73
:10233000DB68C3F30223C3F1070CBCF1040F28BF11
:102340004FF0040C03F1040EBEF1060F18D9033B45
:102350004FF0FF3E0EFA0CFC21EA0C0199400EFAF8
:1023600003F322EA0303194300280BDB0901C9B276
:1023700000F1604000F5614080F800135DF804FB57
:102380000023E5E700F00F000901C9B2024B195420
:10239000F4E700BF00ED00E014ED00E0002807DBEB
:1023A00000F01F02400901239340024A42F8203006
:1023B000704700BF00E100E030B405682C6824F4E9
:1023C00080242C60046863608368402B05D0036818
:1023D00099600368DA6030BC704703689A600368EC
:1023E000D960F8E710B40368D9B210390C4AA2FBDF
:1023F000014212090B4CA25CC2655F2909D923F482
:102400007F7323F0030304338365806D5DF8044B11
:10241000704723F47F7323F003038365F5E700BF60
:10242000ABAAAAAA34630008836A826992B9012B15
:102430000AD0022B02D00BB100207047C36A13F000
:10244000807F28D100207047C36AB3F1C07F24D0B9
:1024500000207047B2F5005F09D0022B25D9032B6D
:1024600025D1C36A13F0807F23D100207047032B4E
:1024700003D8DFE803F01404140A00207047C36A8D
:1024800013F0807F0DD100207047C36AB3F1C07F85
:1024900009D00020704701207047012070470120BB
:1024A00070470120704701207047012070470020CD
:1024B000704701207047000070B50446FFF74AF9E5
:1024C000002C5BD00546022384F83530002384F8C5
:1024D00034302268136823F00103136023681A68FC
:1024E00012F0010F0AD0FFF735F9431B052BF5D980
:1024F00020236365032084F8350070BD1A682048E6
:1025000010406168A2680A43E1680A4321690A43EE
:1025100061690A43A1690A43E1690A43216A0A43DE
:102520000243616A04291ED01A602668756925F085
:102530000705636A1D43042B07D1A36A1D43E36AA1
:102540001BB12046FFF770FF90B975612046FFF779
:1025500049FFE26D3F2393408360002060650123C3
:1025600084F83530C9E7E16A206B01430A43DBE7B1
:1025700040236365012084F83500BEE70120BCE7F5
:102580003F8010F038B50446856D90F8340001287E
:102590002BD0012084F8340094F83500C0B2012813
:1025A00004D0002384F83430022038BD022084F89F
:1025B0003500002060652046FFF7FEFEE26D3F23F8
:1025C0009340AB602268136843F016031360236CDA
:1025D00023B12268136843F008031360226813686C
:1025E00043F0010313600020DFE70220DDE7000075
:1025F000F0B583B0044600230193724B1D68724B03
:10260000A3FB0535AD0A876D3E68C26D0823934074
:10261000334210D003681A6812F0040F0BD01A6806
:1026200022F004021A60C26D08239340BB60436D20
:1026300043F001034365E26D01239340334209D027
:102640002268526912F0800F04D0BB60636D43F0C2
:1026500002036365E26D04239340334209D022688C
:10266000126812F0020F04D0BB60636D43F00403E4
:102670006365E26D10239340334224D022681268D0
:1026800012F0080F1FD0BB6023681A6812F4802F65
:102690000DD01B6813F4002F04D1236C9BB120468E
:1026A000984710E0A36C73B1204698470BE01A6876
:1026B00012F4807F03D11A6822F008021A60236C9A
:1026C0000BB120469847E26D20239340334255D00A
:1026D0002268126812F0100F50D0BB6094F83530A9
:1026E000DBB2052B0ED023681A6812F4802F33D08A
:1026F0001B6813F4002F2AD1636C002B3ED02046B8
:1027000098473BE02268136823F0160313602268A1
:10271000536923F080035361236CA3B122681368CB
:1027200023F008031360E26D3F239340BB60012355
:1027300084F83530002384F83430236D002B3FD0EB
:10274000204698473CE0A36C002BE7D1EBE7E36B16
:10275000A3B12046984711E01A6812F4807F09D18E
:102760001A6822F010021A60012384F83530002321
:1027700084F83430E36B0BB120469847636DFBB1AE
:10278000636D13F0010F17D0052384F835302268EC
:10279000136823F001031360019B01330193AB42E3
:1027A00004D823681B6813F0010FF5D1012384F8C6
:1027B0003530002384F83430E36C0BB12046984761
:1027C00003B0F0BDB4000020B5814E1B00230F2BD9
:1027D00000F2E48070B582B060E085685E0003249A
:1027E000B44025EA0405CC68B4402C4384604568B5
:1027F00025EA02054C68C4F300129A402A4342605D
:102800005AE0DC08083450F8246003F00702950011
:102810000F22AA4026EA020E0A69AA4042EA0E02E4
:1028200040F824205CE0072200E0002202FA0EF2C9
:102830002A4302345A4D45F824205A4A94686FEAD4
:102840000C0224EA0C054E6816F4801F01D04CEAF5
:102850000405544CA560E46802EA04054E6816F4C9
:10286000001F01D04CEA04054E4CE560646802EAA2
:1028700004054E6816F4003F01D04CEA0405494CAB
:102880006560246822404D6815F4803F01D04CEA11
:102890000402444C226001330F2B7DD801229A4060
:1028A0000C6804EA020C32EA0404F4D14C6804F027
:1028B0000304013C012C90D94A6802F00302032A68
:1028C00009D0C4685D000322AA4024EA02048A6891
:1028D000AA402243C2604A6802F00302022A90D052
:1028E00004684FEA430E032202FA0EF224EA0204BD
:1028F0004A6802F0030202FA0EF2224302604A68BA
:1029000012F4403FC7D000220192274A546C44F48D
:1029100080445464526C02F480420192019A9C08F3
:10292000A51C1F4A52F8255003F003024FEA820EFD
:102930000F2202FA0EF225EA02051C4A90423FF4E9
:1029400074AF02F5806290421AD002F58062904224
:1029500018D002F58062904216D002F58062904253
:1029600014D002F58062904212D002F5806290424B
:1029700010D002F5806290423FF455AF082255E72F
:10298000012253E7022251E703224FE704224DE7D9
:1029900005224BE7062249E702B070BD704700BF31
:1029A00000380140003C0140003802400000024075
:1029B0000369194201D001207047002070470AB115
:1029C00081617047090481617047436901EA03022C
:1029D00021EA030141EA02418161704708B5054BD4
:1029E0005B69034200D108BD024B5861FEF706FA4D
:1029F000F9E700BF003C0140002800F0E08170B51D
:102A000082B00446036813F0010F3BD09F4B9B68D4
:102A100003F00C03042B2CD09C4B9B6803F00C039D
:102A2000082B21D06368B3F5803F4FD0B3F5A02FBA
:102A300052D0964B1A6822F480321A601A6822F437
:102A400080221A606368002B50D0FEF783FE054693
:102A50008E4B1B6813F4003F14D1FEF77BFE401B26
:102A60006428F5D90320B1E1884B5B6813F4800F2B
:102A7000D8D0864B1B6813F4003F03D06368002B4B
:102A800000F09F81236813F0020F54D07F4B9B68A6
:102A900013F00C0F3ED07D4B9B6803F00C03082B0A
:102AA00033D0E368002B68D0794B01221A60FEF71F
:102AB00051FE0546754B1B6813F0020F54D1FEF70B
:102AC00049FE401B0228F5D903207FE16F4A1368B5
:102AD00043F480331360B5E76C4B1A6842F48022EC
:102AE0001A601A6842F480321A60ABE7FEF732FED1
:102AF0000546664B1B6813F4003FC3D0FEF72AFE61
:102B0000401B6428F5D9032060E1604B5B6813F437
:102B1000800FC6D15D4B1B6813F0020F03D0E36832
:102B2000012B40F05081594A136823F0F8032169C2
:102B300043EAC1031360236813F0080F42D06369AE
:102B40006BB3534B0122C3F8802EFEF703FE0546FC
:102B50004E4B5B6F13F0020F34D1FEF7FBFD401BB1
:102B60000228F5D9032031E1484A136823F0F8031D
:102B7000216943EAC1031360DDE7454B00221A6077
:102B8000FEF7E8FD0546414B1B6813F0020FD2D05B
:102B9000FEF7E0FD401B0228F5D9032016E13C4B6F
:102BA0000022C3F8802EFEF7D5FD0546374B5B6F3C
:102BB00013F0020F06D0FEF7CDFD401B0228F5D919
:102BC000032003E1236813F0040F77D02F4B1B6C15
:102BD00013F0805F33D1002301932C4B1A6C42F029
:102BE00080521A641B6C03F080530193019B0125F2
:102BF000284B1B6813F4807F23D0A368012B34D0AB
:102C0000052B38D0214B1A6F22F001021A671A6F78
:102C100022F004021A67A368002B3DD0FEF79AFD4C
:102C200006461A4B1B6F13F0020F46D1FEF792FDBA
:102C3000801B41F288339842F3D90320C6E0002577
:102C4000D6E7144A136843F480731360FEF782FDDD
:102C50000646104B1B6813F4807FCED1FEF77AFD39
:102C6000801B0228F5D90320B0E0084A136F43F017
:102C700001031367CFE7054B1A6F42F004021A678E
:102C80001A6F42F001021A67C5E700BF0038024020
:102C90000000474200700040FEF75CFD0646524BC4
:102CA0001B6F13F0020F08D0FEF754FD801B41F29A
:102CB00088339842F3D9032088E0EDB9A369002B4B
:102CC00000F08380484A926802F00C02082A51D032
:102CD000022B17D0454B00221A66FEF73BFD044637
:102CE000414B1B6813F0007F42D0FEF733FD001B01
:102CF0000228F5D9032069E03B4A136C23F0805386
:102D00001364DBE7394B00221A66FEF723FD054604
:102D1000354B1B6813F0007F06D0FEF71BFD401BF0
:102D20000228F5D9032051E0E369226A1343626A5D
:102D300043EA8213A26A5208013A43EA0243E26A72
:102D400043EA0263284A5360284B01221A66FEF7C1
:102D500001FD0446244B1B6813F0007F06D1FEF7EB
:102D6000F9FC001B0228F5D903202FE000202DE0FC
:102D700000202BE0012B2BD01B4B5B6803F4800160
:102D8000E269914226D103F03F02216A8A4223D1AF
:102D9000616A47F6C0721A40B2EB811F1ED103F47C
:102DA0004031A26A5208013AB1EB024F18D103F048
:102DB0007063E26AB3EB026F14D1002006E00120D9
:102DC0007047012002E0012000E0002002B070BD49
:102DD0000120FBE70120F9E70120F7E70120F5E7F3
:102DE0000120F3E70120F1E70038024000004742EC
:102DF00008B5254B9B6803F00C03042B3FD0082B30
:102E00003FD1214B5A6802F03F025B6813F4800FF8
:102E100012D01D4B5968C1F388111C480023A1FB37
:102E20000001FDF7D5F9184B5B68C3F3014301338B
:102E30005B00B0FBF3F025E0134B5968C1F3881C2D
:102E40004FEA4C11B1EB0C006EEB0E0E4FEA8E13F5
:102E500043EA90638101091A63EB0E03DB0043EA46
:102E60005173C90011EB0C0C43F1000399020023CC
:102E70004FEA8C2041EA9C51FDF7AAF9D3E70348B9
:102E800000E0034808BD00BF0038024040787D01E3
:102E90000024F400002800F09B8070B50D46044625
:102EA0004F4B1B6803F007038B4208D2CBB24C4A4E
:102EB0001370136803F007038B4240F08B80236884
:102EC00013F0020F17D013F0040F04D0454A936893
:102ED00043F4E0539360236813F0080F04D0414A91
:102EE000936843F4604393603E4A936823F0F00391
:102EF000A1680B439360236813F0010F32D063681D
:102F0000012B21D09A1E012A25D9364A126812F0C7
:102F1000020F61D033498A6822F0030213438B60A9
:102F2000FEF718FC06462F4B9B6803F00C03626803
:102F3000B3EB820F16D0FEF70DFC801B41F28833F5
:102F40009842F0D9032042E0264A126812F4003F6A
:102F5000E0D101203BE0234A126812F0007FD9D172
:102F6000012034E01E4B1B6803F00703AB4207D976
:102F7000EAB21B4B1A701B6803F00703AB422DD15A
:102F8000236813F0040F06D0164A936823F4E05325
:102F9000E1680B439360236813F0080F07D0114AD0
:102FA000936823F46043216943EAC1039360FFF708
:102FB0001FFF0C4B9B68C3F303130B4AD35CD84031
:102FC0000A4B18600A4B1868FEF78EF8002070BD97
:102FD000012070470120FAE70120F8E70120F6E719
:102FE000003C024000380240E4620008B4000020C7
:102FF0000C010020014B1868704700BFB40000208E
:1030000008B5FFF7F7FF044B9B68C3F38223034A1D
:10301000D35CD84008BD00BF00380240F46200080D
:103020000F2303600B4B9A6802F0030242609A6818
:1030300002F0F00282609A6802F4E052C2609B687B
:10304000DB0803F4E0530361034B1B6803F0070341
:103050000B60704700380240003C024010B4036A25
:10306000046A24F001040462846924F0F00C4CEA40
:10307000021223F00A030B43826103625DF8044BE2
:10308000704710B4046A24F0100404628469036A6F
:1030900024F4704C4CEA023223F0A00343EA0113FB
:1030A000826103625DF8044B7047836823F070030C
:1030B0000B4343F0070383607047000090F83D30F6
:1030C000DBB2012B32D1022380F83D300368194A6C
:1030D000934220D0B3F1804F1DD0A2F57C429342A1
:1030E00019D002F58062934215D002F580629342B6
:1030F00011D002F5784293420DD002F570529342FE
:1031000009D0A2F59432934205D01A6842F0010228
:103110001A60002070479A6802F00702062A07D05A
:103120001A6842F001021A600020704701207047BF
:10313000002070470000014090F83D30DBB2012BC9
:1031400037D1022380F83D300268D36843F0010391
:10315000D3600368194A934220D0B3F1804F1DD049
:10316000A2F57C42934219D002F58062934215D0B9
:1031700002F58062934211D002F5784293420DD05D
:1031800002F57052934209D0A2F59432934205D0D1
:103190001A6842F001021A60002070479A6802F033
:1031A0000702062A07D01A6842F001021A600020BE
:1031B0007047012070470020704700BF00000140A9
:1031C0000268D36823F00103D3600368196A41F2EF
:1031D0001112114208D1196A40F24442114203D13E
:1031E0001A6822F001021A60012380F83D300020A5
:1031F0007047704770477047704710B504460368C2
:103200001A6912F0020F11D0DA6812F0020F0DD015
:103210006FF002021A610123037703689B6913F0C0
:10322000030F70D0FFF7E6FF0023237723681A69A6
:1032300012F0040F12D0DA6812F0040F0ED06FF003
:1032400004021A610223237723689B6913F4407FE9
:103250005FD02046FFF7CEFF0023237723681A694B
:1032600012F0080F12D0DA6812F0080F0ED06FF0CB
:1032700008021A61042323772368DB6913F0030F24
:103280004ED02046FFF7B6FF0023237723681A6944
:1032900012F0100F12D0DA6812F0100F0ED06FF08B
:1032A00010021A61082323772368DB6913F4407F37
:1032B0003DD02046FFF79EFF0023237723681A693D
:1032C00012F0010F03D0DA6812F0010F36D1236833
:1032D0001A6912F0800F03D0DA6812F0800F34D12F
:1032E00023681A6912F0400F03D0DA6812F0400F19
:1032F00032D123681A6912F0200F03D0DA6812F075
:10330000200F30D110BDFFF774FF2046FFF773FF89
:103310008AE72046FFF76DFF2046FFF76CFF9BE72B
:103320002046FFF766FF2046FFF765FFACE7204623
:10333000FFF75FFF2046FFF75EFFBDE76FF001027A
:103340001A612046FDF7DEFCC1E76FF080021A61CA
:10335000204600F072F9C3E76FF040021A61204680
:10336000FFF74AFFC5E76FF020021A61204600F020
:1033700063F9C7E70368304A904212D0B0F1804F3A
:103380000FD0A2F57C4290420BD002F580629042B1
:1033900007D002F58062904203D002F57842904255
:1033A00003D123F070034A681343234A90422AD082
:1033B000B0F1804F27D0A2F57C42904223D002F595
:1033C000806290421FD002F5806290421BD002F5CD
:1033D0007842904217D002F57052904213D002F515
:1033E000806290420FD002F5806290420BD0A2F52D
:1033F0009832904207D002F58062904203D002F5E5
:103400008062904203D123F44073CA68134323F0CF
:1034100080034A69134303608B68C3620B6883624D
:10342000054B984203D003F58063984201D10B69A4
:1034300003630123436170470000014040B310B5AE
:10344000044690F83D30F3B1022384F83D30214624
:1034500051F8040BFFF78EFF012384F8463084F8FF
:103460003E3084F83F3084F8403084F8413084F8AE
:10347000423084F8433084F8443084F8453084F88E
:103480003D30002010BD80F83C30FDF763FFDBE7E6
:103490000120704710B4846824F47F4C42EA032270
:1034A0000A4342EA0C0282605DF8044B704790F8D0
:1034B0003C30012B78D010B50446012380F83C3015
:1034C000022380F83D300268936823F47F4323F0A1
:1034D000770393600B68602B4CD029D8402B54D0D5
:1034E0000CD9502B22D1CA6849680068FFF7B6FD95
:1034F00050212068FFF7D9FD002005E0202B0DD0DA
:1035000009D9302B0AD00120012384F83D30002353
:1035100084F83C3010BD0BB1102B05D11946206842
:10352000FFF7C3FD0020EFE70120EDE70120EBE707
:10353000B3F5805F34D0B3F5005F0CD1CB684A6837
:1035400089680068FFF7A6FF2268936843F4804308
:1035500093600020D8E7702B24D1CB684A68896833
:103560000068FFF797FF2268936843F07703936042
:103570000020C9E7CA6849680068FFF782FD60213A
:103580002068FFF792FD0020BEE7CA68496800681E
:10359000FFF764FD40212068FFF787FD0020B3E7B7
:1035A0000020B1E70120AFE70220704790F83C30DF
:1035B000012B3DD010B4012380F83C30022380F869
:1035C0003D3003685A689C6822F0700C0A6842EA31
:1035D0000C025A600368174A93421AD0B3F1804F25
:1035E00017D0A2F57C42934213D002F58062934239
:1035F0000FD002F5806293420BD002F578429342DD
:1036000007D002F57052934203D0A2F59432934250
:1036100004D124F080044A6814439C60012380F89C
:103620003D30002380F83C3018465DF8044B70476D
:1036300002207047000001407047704708B502F053
:1036400054FA10B102684068904708BD08B54FF0C1
:10365000E0231B6901F0B2FE012800D108BD00F093
:1036600041FAFBE7EFF305832BB9064B186828B93D
:1036700001221A6070476FF0050070474FF0FF306D
:10368000704700BFC8120020EFF3058373B90A4BDF
:103690001B68012B0DD110B50024084BDC77064BBD
:1036A00002221A6001F072FB204610BD6FF0050087
:1036B00070474FF0FF307047C812002000ED00E067
:1036C000F0B587B000240594EFF305847CBB70B39C
:1036D0002AB31568936903B918235C1E372C4AD89E
:1036E000546814F0010F48D1566976B14FEA960C30
:1036F000946834B1D768B7F5916F02D3176907B1F1
:10370000C6B92CB14FF0FF340EE04FF0800CEFE75C
:10371000D4688CB9146994B14FF0FF3404E01546B5
:10372000002418234FF0800C012C0AD0ACB105986E
:1037300007B0F0BD0124F7E74FF0FF34F4E70024B1
:10374000F2E7146992680292019400930B46624674
:10375000294601F057FA0590E9E705AA019200937E
:103760000B461FFA8CF2294601F089FA0128DED0B7
:1037700000230593DBE70020DAE70020D8E708B54F
:10378000EFF3058333B908B9002008BD01F06AFCE6
:103790000020FAE76FF00500F7E700002DE9F0439D
:1037A00083B0EFF30587002F43D1064689461546BF
:1037B0001C4600283FD0082000F0DEFA8046002892
:1037C0003BD006604560B9F1000F00D0012704B37B
:1037D0002068A36813B1E2682B2A10D853B14FF0C8
:1037E000FF33DBB10024404600F044FB204603B029
:1037F000BDE8F083E3687BB14FF0FF33F1E701935D
:103800000F4B009343463A46012101F0B9FF0446AD
:103810000CE020460023E4E70023E2E7084B009396
:1038200043463A46012101F08FFF0446002CDDD1CA
:10383000D9E70024DAE70024D8E70446D6E700BF3A
:103840003D360008EFF305836BB90A4670B100B549
:1038500083B00093042101F0BDFF012809D10020AD
:1038600003B05DF804FB6FF0050070476FF00300D4
:1038700070476FF00200F3E7034B0360034B0B60EC
:1038800080231360704700BF400E00203C0C0020D6
:10389000034B0360034B0B604FF48073136070475E
:1038A000D0160020CC12002000F1080343604FF036
:1038B000FF328260C360036100230360704700230E
:1038C0000361704743684B609A688A6051609960F1
:1038D0000861036801330360704730B40D68B5F1C7
:1038E000FF3F11D000F108031C465B681A68AA422A
:1038F000FAD963684B6099608C6061600861036805
:103900000133036030BC70470469F2E70369416822
:1039100082688A60416851605A68824206D00022FB
:1039200002611A68013A1A601868704782685A6022
:10393000F5E7000082B0002301930D4B1B68B3F143
:10394000FF3F08D04FF0500383F31188BFF36F8F10
:10395000BFF34F8FFEE74FF0500383F31188BFF39F
:103960006F8FBFF34F8F019B002BFCD002B07047CD
:103970001001002008480068006880F308884FF0B4
:10398000000080F3148862B661B6BFF34F8FBFF3B7
:103990006F8F00DF00BF000008ED00E0DFF80C00D3
:1039A000016841F4700101607047000088ED00E09B
:1039B0004FF0807340F8043C21F0010140F8081CEE
:1039C000054B40F80C3C40F8202C6FF0020340F807
:1039D000243C4438704700BF35390008000000001F
:1039E000074B19680868B0E8F04F80F30988BFF307
:1039F0006F8F4FF0000080F311887047AFF30080A5
:103A0000D07E00204FF0500383F31188BFF36F8FF7
:103A1000BFF34F8F0B4A136801331360012B00D0A3
:103A200070474FF0E023D3F8043D13F0FF0FF7D0B9
:103A30004FF0500383F31188BFF36F8FBFF34F8FA5
:103A4000FEE700BF10010020094B1B6843B94FF08F
:103A5000500383F31188BFF36F8FBFF34F8FFEE7DF
:103A6000013B034A13600BB983F31188704700BF11
:103A70001001002000000000000000000000000015
:103A8000EFF30980BFF36F8F154B1A681EF0100F0C
:103A900008BF20ED108A20E9F04F10602DE90900E1
:103AA0004FF0500080F31188BFF34F8FBFF36F8F3B
:103AB00001F0FEFA4FF0000080F3118809BC19688C
:103AC0000868B0E8F04F1EF0100F08BFB0EC108A85
:103AD00080F30988BFF36F8F704700BFAFF300809A
:103AE000D07E002008B54FF0500383F31188BFF358
:103AF0006F8FBFF34F8F01F0ADF928B14FF0E02386
:103B00004FF08052C3F8042D002383F3118808BDC1
:103B10004FF0E022002313619361054B1B680549B8
:103B2000A1FB03139B09013B5361072313617047FA
:103B3000B4000020D34D62104FF0E023D3F8002DE5
:103B40003D4B9A421CD04FF0E023D3F8002D3B4B65
:103B50009A421ED030B583B0394B1A78D2B2019256
:103B6000FF221A701B78DBB28DF803309DF803300A
:103B700003F05003334A1370334B07221A601BE0E3
:103B80004FF0500383F31188BFF36F8FBFF34F8F54
:103B9000FEE74FF0500383F31188BFF36F8FBFF33D
:103BA0004F8FFEE7284A1368013B13609DF80330EE
:103BB0005B00DBB28DF803309DF8033013F0800F0B
:103BC000F0D1214B1B68032B08D04FF0500383F337
:103BD0001188BFF36F8FBFF34F8FFEE71B021A4AA6
:103BE000136003F4E0631360019BDBB2144A1370AB
:103BF0004FF0E024D4F8203D43F47003C4F8203D96
:103C0000D4F8203D43F07043C4F8203DFFF780FF17
:103C100000250E4B1D60FFF7C1FED4F8343F43F082
:103C20004043C4F8343FFFF7A5FE01F041FAFFF727
:103C300081FE284603B030BD71C20F4170C20F41F2
:103C400000E400E0581B00205C1B00201001002055
:103C5000EFF305830F2B0FD9114A9B5CDBB2114A9E
:103C600012789A4208D94FF0500383F31188BFF3BA
:103C70006F8FBFF34F8FFEE74FF0E023D3F80C3D7B
:103C800003F4E063084A1268934208D94FF05003E6
:103C900083F31188BFF36F8FBFF34F8FFEE7704739
:103CA000F0E300E0581B00205C1B0020134A12F0D8
:103CB000070F1FD0D11D21F00701C1F5C6431033F6
:103CC00013440A460E480260002141601344083B39
:103CD00023F007030B48036059601960991A51607B
:103CE0001360094B1960094B1960094B4FF00042F2
:103CF0001A60704746F21033E4E700BF641B0020EF
:103D0000887E0020601B00207C7E0020787E0020C2
:103D1000747E0020164B1A461B688342FBD3516801
:103D200002EB010C844509D0416800EB010C6345AE
:103D300009D00360904219D0106070474068014478
:103D400051601046F0E710B40A4C2468A3420BD02F
:103D50005B681944416013681B680360904200D09F
:103D600010605DF8044B70470460F7E7704700BFD0
:103D7000887E0020601B002070B5054601F05CF8CD
:103D8000364B1B68A3B1364B1B681D424ED135B173
:103D9000083515F0070F02D025F007050835002D6E
:103DA00046D0304B1B68AB4251D32F4A146804E015
:103DB000FFF77CFFE7E722461C466368AB4202D26E
:103DC0002368002BF7D1254B1B68A34241D016680E
:103DD00008362368136063685B1B102B10D96019C9
:103DE00010F0070F08D04FF0500383F31188BFF392
:103DF0006F8FBFF34F8FFEE743606560FFF78AFF69
:103E0000626818490B689B1A0B60184909688B4255
:103E100001D216490B60124B1B68134363600023E9
:103E20002360134A13680133136002E0002600E0A8
:103E3000002601F09BF816F0070F0CD04FF050034E
:103E400083F31188BFF36F8FBFF34F8FFEE7002618
:103E5000EFE70026EDE7304670BD00BF601B002095
:103E6000747E0020787E0020887E00207C7E0020EA
:103E7000807E0020002834D038B50446A0F1080523
:103E800050F8043C174A1268134208D14FF050030F
:103E900083F31188BFF36F8FBFF34F8FFEE750F8A6
:103EA000081C41B14FF0500383F31188BFF36F8FAB
:103EB000BFF34F8FFEE723EA020340F8043C00F013
:103EC000BBFF54F8041C084A13680B4413602846CF
:103ED000FFF720FF054A13680133136001F046F82D
:103EE00038BD7047747E0020787E0020847E0020DC
:103EF0000346406A18B11B6B1868C0F13800704760
:103F000010B50446FFF77EFDA26BE36B9A4204D026
:103F10000024FFF799FD204610BD0124F9E710B5F4
:103F20000446FFF76FFDA36B23B90124FFF78CFD57
:103F3000204610BD0024F9E770B504461546866B8F
:103F4000026C5AB903681BB100200136A66370BD2C
:103F5000806801F08FFA0023A360F6E76DB940682E
:103F6000FCF7B8FA226C636813446360A26893425A
:103F700019D3236863602846E7E7C068FCF7AAFA0C
:103F8000226C5142E3689B1AE3602268934202D29A
:103F9000A3680B44E360022D01D00020D5E726B1D1
:103FA000013E0020D1E72846CFE70020CDE70346B9
:103FB000026C6AB110B50846D9681144D9609C6892
:103FC000A14201D31968D960D968FCF783FA10BD02
:103FD000704738B50546FFF715FD95F8454064B2C2
:103FE00001E0013C64B2002C0ADD6B6A43B105F1CB
:103FF000240001F043F90028F3D001F0D3F9F0E7F1
:10400000FF2385F84530FFF71FFDFFF7FBFC95F810
:10401000444064B201E0013C64B2002C0ADD2B692B
:1040200043B105F1100001F029F90028F3D001F0A7
:10403000B9F9F0E7FF2385F84430FFF705FD38BDF7
:1040400038B5E0B10D460446FFF7DCFC2368E26BAF
:10405000216C01FB0230A0600020A0636360013A84
:1040600002FB0133E360FF2384F8443084F84530D9
:10407000FDB9236963B9FFF7E7FC012038BD4FF0B4
:10408000500383F31188BFF36F8FBFF34F8FFEE7A9
:1040900004F1100001F0F2F80028ECD04FF0E0231A
:1040A0004FF08052C3F8042DBFF34F8FBFF36F8FD3
:1040B000E1E704F11000FFF7F7FB04F12400FFF73C
:1040C000F3FBD8E738B51D46049C0B4649B924607C
:1040D000E063236401212046FFF7B2FF84F84C50CF
:1040E00038BD2260F4E740B94FF0500383F31188E4
:1040F000BFF36F8FBFF34F8FFEE710B584B01C4640
:10410000844653B192B189B94FF0500383F31188BB
:10411000BFF36F8FBFF34F8FFEE74FF0500383F372
:104120001188BFF36F8FBFF34F8FFEE76AB1502343
:104130000393039B502B13D04FF0500383F311884C
:10414000BFF36F8FBFF34F8FFEE70029EFD04FF023
:10415000500383F31188BFF36F8FBFF34F8FFEE7D8
:10416000039B012384F8463000949DF81830604684
:10417000FFF7A8FF204604B010BD40B94FF0500330
:1041800083F31188BFF36F8FBFF34F8FFEE7F0B556
:1041900083B00D461446064601FB00F05030FFF791
:1041A000EBFD074650B1002380F8463000902346CF
:1041B00000F1500229463046FFF784FF384603B02D
:1041C000F0BDF0B585B0019288B10F461D4604469A
:1041D000B1B1022D20D1E36B012B1DD04FF0500364
:1041E00083F31188BFF36F8FBFF34F8FFEE74FF05C
:1041F000500383F31188BFF36F8FBFF34F8FFEE738
:10420000036C002BE5D04FF0500383F31188BFF30C
:104210006F8FBFF34F8FFEE701F0D0F8064658B915
:10422000019B002B48D04FF0500383F31188BFF35C
:104230006F8FBFF34F8FFEE700263DE02A463946D9
:104240002046FFF779FE636A7BB948B14FF0E0235F
:104250004FF08052C3F8042DBFF34F8FBFF36F8F21
:10426000FFF7F2FB012005B0F0BD04F1240001F0DE
:1042700005F80028F4D04FF0E0234FF08052C3F847
:10428000042DBFF34F8FBFF36F8FE9E7FFF7DCFB20
:104290000020E8E702A801F037F8012619E0002322
:1042A00084F8443021E0002384F8453023E02046A0
:1042B000FFF78FFE00F05AFEFFF7A4FBA26BE36B43
:1042C0009A42BBD3022DB9D0019B002BDED0002E29
:1042D000E0D0FFF7B9FB00F0AFFDFFF793FB94F8D8
:1042E000442052B2B2F1FF3FD9D094F8452052B2E7
:1042F000B2F1FF3FD7D0FFF7A7FB01A902A801F059
:104300000FF8D8B92046FFF7FBFD0028CFD0019960
:1043100004F1100000F07EFF2046FFF75AFE00F087
:1043200025FE0028C8D14FF0E0234FF08052C3F89B
:10433000042DBFF34F8FBFF36F8FBDE72046FFF70C
:1043400048FE00F013FE00208DE72DE9F84390B100
:104350000F4616461C460546B1B1022C20D1EB6B28
:10436000012B1DD04FF0500383F31188BFF36F8FE3
:10437000BFF34F8FFEE74FF0500383F31188BFF375
:104380006F8FBFF34F8FFEE7036C002BE5D04FF02C
:10439000500383F31188BFF36F8FBFF34F8FFEE796
:1043A000FFF756FCEFF311894FF0500383F31188A8
:1043B000BFF36F8FBFF34F8FAA6BEB6B9A4206D39D
:1043C000022C04D0002089F31188BDE8F88395F809
:1043D00045804FFA88F8AB6B224639462846FFF7EE
:1043E000ABFDB8F1FF3F06D008F101035BB285F8E1
:1043F00045300120E7E76B6A0BB90120E3E705F1DF
:10440000240000F03BFF18B126B101203060DAE74C
:104410000120D8E70120D6E768B170B50C46054603
:10442000036C8BB14FF0500383F31188BFF36F8F90
:10443000BFF34F8FFEE74FF0500383F31188BFF3B4
:104440006F8FBFF34F8FFEE70368EBB1FFF700FC00
:10445000EFF311864FF0500383F31188BFF36F8F92
:10446000BFF34F8FAA6BEB6B934226D995F845307B
:104470005BB20132AA63B3F1FF3F11D001335BB2EB
:1044800085F84530012019E08368002BDED04FF01D
:10449000500383F31188BFF36F8FBFF34F8FFEE795
:1044A0006B6A0BB9012009E005F1240000F0E6FE7B
:1044B00038B144B10120206000E0002086F311886B
:1044C00070BD0120FAE70120F8E7F0B585B0019250
:1044D00090B10F460446C1B100F070FF064600BB24
:1044E000019B002B5ED04FF0500383F31188BFF384
:1044F0006F8FBFF34F8FFEE74FF0500383F31188A8
:10450000BFF36F8FBFF34F8FFEE7036C002BE3D039
:104510004FF0500383F31188BFF36F8FBFF34F8FBA
:10452000FEE700263EE039462046FFF740FD013D0C
:10453000A563236923B9FFF787FA012005B0F0BD11
:1045400004F1100000F09AFE0028F4D04FF0E023B0
:104550004FF08052C3F8042DBFF34F8FBFF36F8F1E
:10456000E9E7FFF771FA0020E8E702A800F0CCFEC7
:10457000012621E0002384F8443029E0002384F858
:1045800045302BE02046FFF724FD00F0EFFC09E06A
:104590002046FFF71EFD00F0E9FC2046FFF7BFFCB8
:1045A00000283FD1FFF72EFAA56B002DBBD1019B50
:1045B000002BD6D0002ED8D0FFF746FA00F03CFCF6
:1045C000FFF720FA94F844305BB2B3F1FF3FD1D04B
:1045D00094F845305BB2B3F1FF3FCFD0FFF734FA28
:1045E00001A902A800F09CFE0028D1D12046FFF7C7
:1045F00096FC0028C6D0019904F1240000F00AFEC0
:104600002046FFF7E6FC00F0B1FC0028CAD14FF0CD
:10461000E0234FF08052C3F8042DBFF34F8FBFF358
:104620006F8FBFE7002089E770B584B0019158B162
:104630000446036C8BB14FF0500383F31188BFF332
:104640006F8FBFF34F8FFEE74FF0500383F3118856
:10465000BFF36F8FBFF34F8FFEE700F0AFFE05464D
:1046600050B9019B5BB14FF0500383F31188BFF346
:104670006F8FBFF34F8FFEE70026354655E00646A5
:1046800053E0013BA36323683BB123694BB9FFF7B8
:10469000DBF90126304604B070BD00F083FFA06056
:1046A000F3E704F1100000F0E9FD0028EFD04FF02F
:1046B000E0234FF08052C3F8042DBFF34F8FBFF3B8
:1046C0006F8FE4E746B14FF0500383F31188BFF3D7
:1046D0006F8FBFF34F8FFEE7FFF7B6F9DAE702A857
:1046E00000F012FE01252AE0002384F8443032E075
:1046F000002384F8453034E0FFF784F9A06800F027
:104700006DFE0646FFF7A0F93BE02046FFF761FC8F
:1047100000F02CFC09E02046FFF75BFC00F026FCD3
:104720002046FFF7FCFB002842D1FFF76BF9A36B93
:10473000002BA6D1019B002BC4D0002DCFD0FFF7BA
:1047400083F900F079FBFFF75DF994F844305BB230
:10475000B3F1FF3FC8D094F845305BB2B3F1FF3FEF
:10476000C6D0FFF771F901A902A800F0D9FD002811
:10477000D1D12046FFF7D3FB0028C6D02368002BF9
:10478000BAD0019904F1240000F044FD2046FFF75F
:1047900020FC00F0EBFB0028C7D14FF0E0234FF0E6
:1047A0008052C3F8042DBFF34F8FBFF36F8FBCE768
:1047B0000EB900266EE7FFF725F92046FFF798FBB4
:1047C0000146A06800F09EFEFFF73EF9F1E7000009
:1047D0000023072B0CD8074A52F833200AB10133C3
:1047E000F7E7044A42F8331002EBC30358607047FE
:1047F000704700BF907E002070B504460D461646F7
:10480000FFF700F994F844305BB2B3F1FF3F0DD0ED
:1048100094F845305BB2B3F1FF3F0BD0FFF714F9CA
:10482000A36B5BB12046FFF7D4FB70BD002384F877
:104830004430EDE7002384F84530EFE7324629465F
:1048400004F1240000F0FEFCECE7000028B141690F
:104850000C4A91420AD0002070474FF0500383F376
:104860001188BFF36F8FBFF34F8FFEE7836A064A4D
:10487000934202D01BB100207047002070470120F6
:10488000704700BFA083002088830020084B1B686E
:104890001B6823B9074B4FF0FF321A607047044B77
:1048A0001B68DB68DB685A68024B1A60704700BF00
:1048B000D47E00207C8300202DE9F04780460D4601
:1048C00017469946089EDDF824A00A9C9200A5216F
:1048D000206B01F047F9236B07F18042013A03EBAB
:1048E000820727F00707002D65D04FF0000CBCF1C0
:1048F0000F0F0BD815F80C2004EB0C0383F83420B1
:1049000015F80C3013B10CF1010CF0E7002384F81A
:104910004330372E00D93726E662E6640025256548
:10492000201DFEF7CCFF04F11800FEF7C8FF24613C
:10493000C6F13806A6616462C4F8805484F88454D1
:104940004FF48562294604F1580001F00BF904F593
:104950005173E36504F56B73236604F214436366D5
:1049600001220023C4E9402343F20E33A4F80831A6
:104970004AF6CD33A4F80A3141F23423A4F80C31BD
:104980004EF26D63A4F80E314DF6EC63A4F81031CD
:104990000523A4F812310B23A4F814314A464146EA
:1049A0003846FFF705F82060BAF1000F01D0CAF8C9
:1049B0000040BDE8F087002384F83430A9E7000008
:1049C00038B5002407E004EB840293000E48184435
:1049D000FEF76AFF0134372CF5D90C4D2846FEF757
:1049E00063FF0B4C2046FEF75FFF0A48FEF75CFFB3
:1049F0000948FEF759FF0948FEF756FF084B1D60AE
:104A0000084B1C6038BD00BFDC7E002050830020B6
:104A10006483002088830020B4830020A0830020CA
:104A2000D47E0020D87E002010B50446FEF7EAFFB1
:104A3000224A136801331360214B1B685BB1214B81
:104A40001B686BB91E4B1B68DA6AE36A9A4207D887
:104A50001B4B1C6004E01A4B1C601368012B29D00F
:104A6000194A1368013313606364E06A174B1B68CB
:104A7000984201D9154B186000EB8000211D144BA2
:104A800003EB8000FEF71EFFFEF7DEFF0D4B1B68F9
:104A90007BB10B4B1B68DA6AE36A9A4209D24FF08A
:104AA000E0234FF08052C3F8042DBFF34F8FBFF3C4
:104AB0006F8F10BDFFF784FFD2E700BF3C8300205B
:104AC000D07E00209C830020488300204C8300205F
:104AD000DC7E002010B50446583001F0B9F894F897
:104AE000853463B1012B11D0022B0ED04FF050034F
:104AF00083F31188BFF36F8FBFF34F8FFEE7206BF7
:104B0000FFF7B8F92046FFF7B5F910BD2046FFF7CB
:104B1000B1F9FAE70F4B1B68D3B110B5FEF772FF7E
:104B20000D4BDB68DC68201DFEF7F0FE0B4A1368B6
:104B3000013B1360074A1368013B1360FEF784FFD3
:104B40002046FFF7C7FF034B1B68002BE6D110BDC3
:104B5000704700BF40830020B48300203C830020C6
:104B600008B5FFF7D7FF074B1B68012BF9D94FF0AA
:104B7000E0234FF08052C3F8042DBFF34F8FBFF3F3
:104B80006F8FEEE7DC7E002070B504460D46174BB4
:104B90001E68174B18680430FEF7B8FEB4F1FF3FEB
:104BA0000DD03444124B1B685C60A64210D9114BE7
:104BB00018680F4B19680431FEF78FFE70BD002D89
:104BC000EFD00B4B196804310B48FEF77BFEF5E77D
:104BD0000A4B1868064B19680431FEF77EFE084B35
:104BE0001B68A342EAD9064B1C60E7E7C883002094
:104BF000D07E0020D87E0020A0830020D47E00201C
:104C00007C83002030B587B00B9C8CB10C9DC5B166
:104C10004FF491650495049DB5F5916F1AD04FF04E
:104C2000500383F31188BFF36F8FBFF34F8FFEE7FD
:104C30004FF0500383F31188BFF36F8FBFF34F8F93
:104C4000FEE74FF0500383F31188BFF36F8FBFF37C
:104C50004F8FFEE7049D0C9D2C63022485F885444C
:104C600000240394029505AC01940A9C0094FFF77C
:104C700023FE0C98FFF7D8FE059807B030BD2DE94C
:104C8000F04385B00746884614461E469000FFF75D
:104C900073F808B381464FF49160FFF76DF805464D
:104CA000B0B1C0F83090E5B1002385F885340393A6
:104CB00002950D9B01930C9B00933346224641467F
:104CC0003846FFF7F9FD2846FFF7AEFE012005E064
:104CD0004846FFF7CFF8E6E74FF0FF3005B0BDE8F4
:104CE000F0834FF0FF30F9E7F8B5002832D00446E2
:104CF000FEF7AEFFEFF311864FF0500383F31188F8
:104D0000BFF36F8FBFF34F8F2046FFF79FFD054620
:104D1000E0B1194B1B6843BBE26A184B1B68DB6AA6
:104D20009A4220D20025271D3846FEF7EFFDE06AA3
:104D3000134B1B68984201D9114B186000EB80009F
:104D40003946104B03EB8000FEF7BCFD86F311885B
:104D50002846F8BD4FF0500383F31188BFF36F8FDF
:104D6000BFF34F8FFEE70125DDE704F11801064888
:104D7000FEF7A8FD0025E9E744830020D07E00204F
:104D80004C830020DC7E00208883002010B588B092
:104D900000240594069407AA06A905A8FEF76CFD51
:104DA000059B0293069B019300942346079A1A4998
:104DB0001A48FFF727FF1A4B186040B100F092FC29
:104DC000012806D0B0F1FF3F1DD008B010BD002073
:104DD000F6E74FF0500383F31188BFF36F8FBFF3F3
:104DE0004F8F104B1B6858330F4A13600F4B4FF017
:104DF000FF321A600E4B01221A600E4B00221A601D
:104E0000FEF79AFEE1E74FF0500383F31188BFF3FA
:104E10006F8FBFF34F8FFEE73C630008614B0008C4
:104E200078830020D07E0020140100207C830020A5
:104E30009C830020C8830020024A1368013313605A
:104E4000704700BF44830020014B1868704700BFC3
:104E5000C8830020F8B53A4B1B68002B69D1394B49
:104E60001D6801351D60C5B9374B1B681B6843B110
:104E70004FF0500383F31188BFF36F8FBFF34F8F51
:104E8000FEE7314A1168314B186810601960304AEA
:104E9000136801331360FFF7F9FC2E4B1B68AB421C
:104EA0003DD900272C4B1B68DB6A03EB83039A0078
:104EB0002A4B9B58012B00D90127294B1B68002B3B
:104EC0003CD001273AE001271F4B1B681B6843B306
:104ED0001D4B1B68DB68DC6863689D4226D3261D7A
:104EE0003046FEF713FDA36A1BB104F11800FEF76C
:104EF0000DFDE36A1B4A1268934201D9194A1360F7
:104F000003EB83039A00314614481044FEF7DAFCA1
:104F1000E26A114B1B68DB6A9A42D4D2D4E70027BD
:104F2000D2E70C4B4FF0FF321A60BBE7094A13601F
:104F3000B8E70D4A13680133136000273846F8BDFF
:104F400044830020C8830020D47E0020D87E002027
:104F5000808300207C830020D07E0020DC7E002027
:104F6000CC8300204C8300208483002038B5354B4F
:104F70001B6843B94FF0500383F31188BFF36F8F61
:104F8000BFF34F8FFEE7FEF73DFD2E4B1A68013A47
:104F90001A601B68002B4FD12B4B1B680BB90024E8
:104FA0004BE00024294B1B681BB3284BDB68DC68F3
:104FB00004F11800FEF7AAFC251D2846FEF7A6FC02
:104FC000E06A234B1B68984201D9214B186000EB23
:104FD000800029461F4B03EB8000FEF773FCE26A5A
:104FE0001D4B1B68DB6A9A42DCD31C4B01221A6002
:104FF000D8E70CB1FFF74AFC194B1C6884B9174B72
:105000001C68D4B14FF0E0234FF08052C3F8042D58
:10501000BFF34F8FBFF36F8F01240EE0013C07D029
:10502000FFF718FF0028F9D00C4B01221A60F5E7B2
:105030000B4B00221A60E2E70024FEF705FD204634
:1050400038BD00BF448300203C83002088830020BB
:105050004C830020DC7E0020D07E0020CC8300200A
:105060008483002010B5A8B10446104B1B6843B1DF
:105070004FF0500383F31188BFF36F8FBFF34F8F4F
:10508000FEE7FFF7D9FE00212046FFF77DFDFFF781
:105090006DFF48B94FF0E0234FF08052C3F8042D64
:1050A000BFF34F8FBFF36F8F10BD00BF448300204D
:1050B000214B1B681BB1214B01221A6070471F4B0B
:1050C00000221A601E4B1B6803EB83018A001D49F6
:1050D0008A585AB90BB1013BF6E74FF0500383F3FE
:1050E0001188BFF36F8FBFF34F8FFEE703EB830091
:1050F00082000A4450684068506003EB830C4FEA1A
:105100008C020832114488420FD003EB83029100D5
:105110000C4A0A445268D1680B4A116008490B6076
:1051200013685833094A136070474068624691001B
:10513000044A0A445060E8E744830020CC830020FE
:105140004C830020DC7E0020D07E00201401002053
:1051500038B50446FEF756FCE4B1251D2846FEF797
:10516000D5FBA36A1BB104F11800FEF7CFFB29465B
:105170002348FEF7A7FB94F88434DBB2012B0CD054
:10518000FEF762FC1F4B1B685BB91F4B1B68A342F9
:105190000ED038BD1C4B1C68DFE7002384F8843434
:1051A000EEE7FEF72FFCFFF771FBFEF74DFCECE797
:1051B000144B1B68B3B1154B1B6843B14FF0500340
:1051C00083F31188BFF36F8FBFF34F8FFEE74FF06C
:1051D000E0234FF08052C3F8042DBFF34F8FBFF38D
:1051E0006F8FD6E7064B1A68094B1B689A4203D1AA
:1051F000054B00221A60CCE7FFF75AFFC9E700BF52
:10520000A08300209C830020D07E002044830020C7
:105210003C83002058B110B50C46094A116818317A
:10522000FEF75BFB01212046FFF7AEFC10BD4FF0FF
:10523000500383F31188BFF36F8FBFF34F8FFEE7E7
:10524000D07E002038B570B10D4614460A4A116868
:105250001831FEF737FB0CB14FF0FF3521462846D9
:10526000FFF792FC38BD4FF0500383F31188BFF372
:105270006F8FBFF34F8FFEE7D07E002038B5C36835
:10528000DC6824B304F118052846FEF73FFB184BF1
:105290001B682BBB251D2846FEF738FBE06A154B23
:1052A0001B68984201D9134B186000EB8000294617
:1052B000114B03EB8000FEF705FBE26A0F4B1B6806
:1052C000DB6A9A4211D901200D4B186038BD4FF0AE
:1052D000500383F31188BFF36F8FBFF34F8FFEE747
:1052E00029460848FEF7EEFAE7E70020EEE700BFA0
:1052F000448300204C830020DC7E0020D07E0020F0
:10530000CC83002088830020034B1B680360034B81
:105310001B684360704700BF80830020C883002063
:10532000F8B5C8B10C460546F9B1FEF76BFB1B4B4F
:1053300019686B68C81A2268B2F1FF3F26D0184E70
:1053400036682F68B74201D08B4224D9824215D8E3
:105350000023236001241AE04FF0500383F31188E7
:10536000BFF36F8FBFF34F8FFEE74FF0500383F310
:105370001188BFF36F8FBFF34F8FFEE75B1A1344A3
:1053800023602846FFF7C0FF002400E00024FEF75A
:105390005BFB2046F8BD0124F9E700BFC88300206D
:1053A00080830020014B01221A607047CC830020CB
:1053B000014B1868704700BFD07E0020054B1B686A
:1053C00033B1054B1B680BB10020704702207047BA
:1053D000012070479C8300204483002000283ED099
:1053E00038B50446C36A204A1268D26A93422ED264
:1053F0008269002A05DB1C4A1268D26AC2F13802AF
:105400008261616903EB8303184A02EB83039942CB
:1054100005D0154B1B68DB6AE362012038BD251DF2
:105420002846FEF773FA104B1B68D86AE062104BEF
:105430001B68984201D90E4B186000EB800029468A
:105440000A4B03EB8000FEF73DFA0120E6E7C26C51
:10545000054B1B68DB6A9A4203D30020DEE700207D
:1054600070470120DAE700BFD07E0020DC7E0020FC
:105470004C83002000283BD038B504461E4B1B68E7
:10548000834208D04FF0500383F31188BFF36F8F2E
:10549000BFF34F8FFEE7036D43B94FF0500383F323
:1054A0001188BFF36F8FBFF34F8FFEE7013B03659A
:1054B000C16AC26C91421DD00BB1002038BD051DE0
:1054C0002846FEF723FAE06CE062C0F13803A361DE
:1054D0000A4B1B68984201D9084B186000EB80000A
:1054E0002946074B03EB8000FEF7ECF90120E5E7C6
:1054F000002070470020E1E7D07E00204C83002090
:10550000DC7E0020002846D038B50446036D43B940
:105510004FF0500383F31188BFF36F8FBFF34F8FAA
:10552000FEE7C26C8A4200D20A46E16A914201D08B
:10553000012B00D038BD184B1B68A34222D0E26279
:10554000A369002B02DBC2F13802A261626901EBA0
:105550008101124B03EB81018A42EBD1251D2846C4
:10556000FEF7D4F9E06A0E4B1B68984201D90C4B48
:10557000186000EB80002946084B03EB8000FEF723
:10558000A1F9D7E74FF0500383F31188BFF36F8F72
:10559000BFF34F8FFEE77047D07E0020DC7E0020F7
:1055A0004C830020054B1B6823B1044B1A68136D14
:1055B00001331365014B1868704700BFD07E00208F
:1055C000064B1A6813682BB90123036023B9D3680B
:1055D000186870470023F8E700207047D083002048
:1055E00008B54160006191420CD8D21A83699A4291
:1055F00001D3012008BD011D094B1868FEF76DF9A4
:105600000020F7E79A4201D2994206D2011D054BCC
:105610001868FEF762F90020ECE70120EAE700BF16
:10562000D4830020D083002030B583B0FEF7EAF9A0
:10563000114B1B681BB1FEF707FA03B030BD0F4DCD
:105640002846FEF731F90E4C2046FEF72DF90D4B9A
:105650001D600D4B1C60002300930C4B0C4A102165
:105660000A20FEF740FD044B18600028E3D00949EA
:10567000FFF7AEF8DFE700BFF48400207884002055
:105680008C840020D0830020D4830020A4840020B8
:10569000D8830020446300082DE9F041079F41B9F9
:1056A0004FF0500383F31188BFF36F8FBFF34F8F19
:1056B000FEE7064614461D4688468FB1FFF7B4FF45
:1056C0003E60C7F81880FD61069B3B62381DFEF7FF
:1056D000F6F82CB197F8283043F0040387F8283007
:1056E000BDE8F08110B588B0FFF79EFF124B1B6834
:1056F000CBB100240594069407AA06A905A8FEF7D5
:10570000C7F8059B0293069B019319230093234638
:10571000079A0A490A48FFF775FA0A4B186010B150
:10572000012008B010BD4FF0500383F31188BFF380
:105730006F8FBFF34F8FFEE7F48400204C630008A7
:10574000D55A0008F88400202DE9F04182B00446C3
:10575000884617461D462C20FEF70EFB064658B11C
:10576000002380F828300190089B00932B463A468E
:1057700041462046FFF790FF304602B0BDE8F08179
:1057800010B584B084462C20039003982C2808D0B0
:105790004FF0500383F31188BFF36F8FBFF34F8F28
:1057A000FEE70398079860B10220079C84F8280060
:1057B0000194069800906046FFF76EFF079804B0CA
:1057C00010BD4FF0500383F31188BFF36F8FBFF309
:1057D0004F8FFEE7B8B19C4603461848006858B39F
:1057E00000B585B000910192029305291CDCFFF7FA
:1057F000E5FD022810D000231A4669460F480068CC
:10580000FEF7DFFC15E04FF0500383F31188BFF380
:105810006F8FBFF34F8FFEE70023069A6946074854
:105820000068FEF7CEFC04E0002362466946FEF7FE
:105830008CFD05B05DF804FB00207047F484002067
:1058400070B582B01B4B1B681A6862B3DB681E68B8
:10585000DC68251D2846FEF759F8236A204698473C
:1058600094F8283013F0040FECD0A36933449E421F
:1058700007D26360246129460E4B1868FEF72DF8A5
:10588000E0E7002100910B4632462046FFF7A2FFD9
:105890000028D7D14FF0500383F31188BFF36F8FE7
:1058A000BFF34F8FFEE7044A106802490860136097
:1058B00002B070BDD0830020D483002038B50546E7
:1058C000FFF7C2FA0446074B1B68834205D8002342
:1058D0002B60044B1C60204638BDFFF7B1FF01234D
:1058E0002B60F6E7A084002070B582B006460D4616
:1058F00017490968C968CC68201DFEF707F894F8B5
:1059000028C01CF0040F08D12CF0010C84F828C02A
:10591000236A2046984702B070BDA16933462A46E3
:1059200031442046FFF75CFE0028F1D000210091B1
:105930000B4632462046FFF74DFF0028E8D14FF0D6
:10594000500383F31188BFF36F8FBFF34F8FFEE7D0
:10595000D083002070B582B006460C46FFF76CFA83
:1059600001A8FFF7ABFF019B33BB05460CB9B04262
:1059700019D224B1124A12681268DAB901242246F7
:10598000711B104B1868FEF737FFFFF7EFFAA8B945
:105990004FF0E0234FF08052C3F8042DBFF34F8F38
:1059A000BFF36F8F0AE0FFF7E1FA29463046FFF7B1
:1059B0009BFF03E01C46E2E7FFF7D8FA02B070BD98
:1059C000D4830020F484002010B588B002E0049B4A
:1059D000002B0FDA002204A93D4B1868FEF775FD75
:1059E000002873D0049B002BF1DA07990698059BD9
:1059F0009847ECE7069C636913B1201DFDF786FF0D
:105A000003A8FFF75BFF049B092BE3D8DFE803F053
:105A10000505053037500505303794F8283043F038
:105A2000010384F82830059BA169024619442046E9
:105A3000FFF7D6FD0028CDD0236A2046984794F87A
:105A4000283013F0040FC5D0A269002100910B4645
:105A5000059802442046FFF7BDFE0028BAD14FF05A
:105A6000500383F31188BFF36F8FBFF34F8FFEE7AF
:105A700094F8283023F0010384F82830AAE794F83A
:105A8000283043F0010384F828300599A16131B131
:105A90000346024601442046FFF7A2FD9AE74FF075
:105AA000500383F31188BFF36F8FBFF34F8FFEE76F
:105AB00094F8283013F0020F04D023F0010384F887
:105AC000283087E72046FEF7D5F983E708B010BDF8
:105AD000F484002000B583B001A8FFF771FD01999F
