:020000040800F2
:1000000000000220950900082D0900082F090008AA
:100010003109000833090008350900080000000014
:100020000000000000000000000000003709000888
:1000300039090008000000003B0900083D090008DC
:10004000E5090008E5090008E5090008E5090008D8
:10005000E5090008E5090008E5090008E5090008C8
:10006000E5090008E5090008E5090008E5090008B8
:10007000E5090008E5090008E5090008E5090008A8
:10008000E5090008E5090008E50900084509000838
:100090005509000865090008E5090008E509000898
:1000A000E5090008E5090008E5090008E509000878
:1000B000E5090008E5090008E5090008E509000868
:1000C000E5090008E5090008E5090008E509000858
:1000D000E5090008E5090008E5090008E509000848
:1000E000E5090008E5090008E5090008E509000838
:1000F000E5090008E5090008E5090008E509000828
:10010000E5090008E5090008E5090008E509000817
:10011000E5090008E5090008E5090008E509000807
:1001200075090008E5090008E5090008E509000867
:10013000E50900080000000000000000E5090008D3
:10014000E5090008E5090008E5090008E5090008D7
:10015000E5090008E5090008E5090008E5090008C7
:10016000E5090008E5090008E5090008E5090008B7
:10017000E5090008E5090008000000000000000093
:08018000E5090008E50900088B
:1001880010B5054C237833B9044B13B10448AFF3C9
:1001980000800123237010BD3C04002000000000F3
:1001A8004425000808B5034B1BB103490348AFF3C6
:1001B800008008BD0000000040040020442500081D
:1001C80053B94AB9002908BF00281CBF4FF0FF31B6
:1001D8004FF0FF3000F074B9ADF1080C6DE904CEB2
:1001E80000F006F8DDF804E0DDE9022304B070470A
:1001F8002DE9F047089E0D4604468846002B4DD150
:100208008A42944668D9B2FA82F252B101FA02F3EC
:10021800C2F1200120FA01F10CFA02FC41EA0308BC
:1002280094404FEA1C45210CB8FBF5FE1FFA8CF7E9
:1002380005FB1E8341EA03430EFB07F199420BD9E4
:100248001CEB03030EF1FF3080F01E81994240F24F
:100258001B81AEF1020E63445B1AA4B2B3FBF5F046
:1002680005FB103344EA034400FB07F7A7420AD909
:100278001CEB040400F1FF3380F00881A74240F230
:10028800058164440238E41B40EA0E4000211EB197
:10029800D4400023C6E90043BDE8F0878B4208D963
:1002A800002E00F0EE800021C6E900050846BDE8F2
:1002B800F087B3FA83F100294AD1AB4202D38242D4
:1002C80000F2F980841A65EB030301209846002E9A
:1002D800E2D0C6E90048DFE702B9FFDEB2FA82F2EF
:1002E800002A40F09180A1EB0C054FEA1C471FFA49
:1002F8008CFE0121B5FBF7F307FB1350250C45EAEB
:1003080000450EFB03F0A84208D91CEB050503F1D4
:10031800FF3802D2A84200F2CB8043462D1AA4B27D
:10032800B5FBF7F007FB105544EA05440EFB00FE49
:10033800A64508D91CEB040400F1FF3502D2A645F6
:1003480000F2BB802846A4EB0E0440EA03409EE777
:10035800C1F120078B4022FA07FC4CEA030C20FA73
:1003680007F405FA01F31C43FD404FEA1C4900FA63
:1003780001F3B5FBF9F8200C1FFA8CFE09FB1855A0
:1003880040EA054508FB0EF0A84202FA01F20BD933
:100398001CEB050508F1FF3A80F08880A84240F27E
:1003A8008580A8F1020865442D1AA4B2B5FBF9F0BE
:1003B80009FB105544EA054500FB0EFEAE4508D979
:1003C8001CEB050500F1FF346CD2AE456AD9023842
:1003D800654440EA0840A0FB0294A5EB0E05A5423F
:1003E800C846A64656D353D05EB1B3EB080265EBB8
:1003F8000E0505FA07F722FA01F3CD401F43C6E9B7
:1004080000750021BDE8F087C2F1200320FA03F14E
:100418000CFA02FC25FA03F395400D434FEA1C47FA
:100428001FFA8CFEB3FBF7F107FB11302B0C43EAE4
:10043800004301FB0EF0984204FA02F408D91CEBC1
:10044800030301F1FF382FD298422DD902396344B2
:100458001B1AADB2B3FBF7F007FB103345EA0345AF
:1004680000FB0EF3AB4208D91CEB050500F1FF3881
:1004780016D2AB4214D902386544ED1A40EA01415C
:1004880038E73146304607E78646E5E61846FAE695
:100498004B45A9D2B9EB020864EB0C0E0138A3E76F
:1004A8004046EAE7204694E74146D1E7D0467BE755
:1004B800023B654432E7084609E76444023842E7EC
:1004C800704700BF30B589B00024039404940594A4
:1004D800069407940194144B1A6B42F004021A63B1
:1004E8001A6B02F004020192019A02941A6B42F00C
:1004F80002021A631B6B03F002030293029B0B4D6B
:1005080022464FF40051284601F02EFC4FF40053C8
:100518000393012304930594069403A9284601F044
:1005280031FB09B030BD00BF00380240000802406E
:1005380000B583B000210191094B1A6B42F4800287
:100548001A631B6B03F480030193019B0A4638204E
:1005580001F0B6F8382001F0EBF803B05DF804FBC1
:100568000038024008B5054B054A002100F0A8FEF6
:10057800044A13780133137008BD00BF58040020E3
:10058800600400209C04002072B6FEE700B58BB022
:100598001748184B03600423436000238360C3603B
:1005A8004FF4803202614361037643768376C376E3
:1005B8000377437700F012FDC0B9012208920A239D
:1005C80005930023049342F26001009101934FF4D4
:1005D800005102910393069307920D2309936946EC
:1005E800034800F0A1FD0BB05DF804FBFFF7CCFF5A
:1005F800E80400200064004000B585B000230093A3
:100608000193029303932448244A02604360836061
:1006180001220261027680F82030C362204981629B
:10062800C3600423C36180F83020426100F0C4FA3B
:1006380040BB0A23009301230193052302936946D3
:10064800154800F0FFFBF8B90B2300930223019330
:100658006946114800F0F6FBC0B90C230093032348
:10066800019369460C4800F0EDFB88B90D2300930F
:10067800042301936946084800F0E4FB50B905B02B
:100688005DF804FBFFF780FFFFF77EFFFFF77CFFB5
:10069800FFF77AFFFFF778FFA00400200020014051
:1006A8000100000F00B595B03022002108A801F024
:1006B80083FE002303930493059306930793019302
:1006C800184A116C41F080511164126C02F080528A
:1006D8000192019A0293144A116841F48041116011
:1006E800126802F480420292029A022208920122BF
:1006F8000B9210220C920E9308A801F03BFB68B9EC
:100708000F2303930021049105910691079103A8F3
:1007180001F07EFD20B915B05DF804FBFFF734FF4A
:10072800FFF732FF003802400070004008B500F0C3
:100738007DF9FFF7B7FFFFF7C5FEFFF7F9FEFFF7F3
:1007480025FFFFF759FF104C204600F08BFD0221D2
:10075800204600F060FE0D4B04221A61002159600A
:100768009960D96040F2464018601975084B01211C
:1007780019700221597003219970DA7005490648E9
:1007880000F046FAFEE700BFE804002084040020D9
:100798007C04002070050020A004002070470000A1
:1007A80082B0002100910B4B5A6C42F480425A648B
:1007B8005A6C02F480420092009A01911A6C42F03D
:1007C80080521A641B6C03F080530193019B02B0A2
:1007D800704700BF0038024030B589B0002303934A
:1007E8000493059306930793026803F1804303F586
:1007F80090339A4201D009B030BD044600250195D6
:1008080003F58C335A6C42F480725A645A6C02F4C1
:1008180080720192019A02951A6B42F004021A63DF
:100828001B6B03F004030293029B0F230393032320
:10083800049303A9104801F0A5F91048104B036070
:1008480045608560C5604FF4806303614FF4805351
:1008580043614FF4804383614FF48073C361056241
:10086800456201F005F818B9044BA3639C63C2E71D
:10087800FFF78AFEF8E700BF0008024010050020D5
:100888001064024010B588B00023039304930593C5
:10089800069307930268214B9A4201D008B010BD15
:1008A8000024019403F5EA331A6C42F000721A64CA
:1008B8001A6C02F000720192019A02941A6B42F0CB
:1008C80002021A631B6B03F002030293029B4FF4AC
:1008D8004073039302230493032306930923079386
:1008E80003A90F4801F04EF922462146132000F0D3
:1008F800E7FE132000F01CFF22462146142000F0DA
:10090800DFFE142000F014FF22462146152000F0D7
:10091800D7FE152000F00CFFC0E700BF00640040C0
:1009280000040240FEE7FEE7FEE7FEE7FEE7704749
:100938007047704708B500F093F808BD08B502483D
:1009480000F087FD08BD00BFE804002008B5024894
:1009580000F07FFD08BD00BFE804002008B502488C
:1009680000F077FD08BD00BFE804002008B5024884
:1009780001F01AF808BD00BF10050020024B4FF027
:1009880000629A60704700BF00ED00E0DFF834D0E5
:100998000D480E490E4A002302E0D458C4500433CF
:1009A800C4188C42F9D30B4A0B4C002301E01360A6
:1009B8000432A242FBD3FFF7E1FF01F0D9FCFFF7B5
:1009C800B5FE704700000220000000203C04002013
:1009D8008C2500083C04002088050020FEE7000064
:1009E80010B504460E4B18784FF47A73B3FBF0F346
:1009F8000C4A1068B0FBF3F000F0A8FE68B90F2CA1
:100A080001D901200AE0002221464FF0FF3000F012
:100A180057FE054B1C60002000E0012010BD00BF00
:100A280004000020000000200800002008B50B4B3F
:100A38001A6842F400721A601A6842F480621A60F6
:100A48001A6842F480721A60032000F027FE0F2013
:100A5800FFF7C6FFFFF7A4FE002008BD003C0240D8
:100A6800034A1168034B1B780B441360704700BF9F
:100A78008005002004000020014B1868704700BF63
:100A8800800500204A4B5A6822F440325A605A685E
:100A980041680A435A600268536823F480735360BC
:100AA80002685368016943EA012353600268536886
:100AB80023F0407353600268536881680B435360A6
:100AC8000268936823F40063936002689368C168BE
:100AD8000B439360826A374B9A4257D002689368F7
:100AE80023F07063936002689368816A0B43936094
:100AF8000268936823F04053936002689368C16A60
:100B08000B4393600268936823F0020393600268C2
:100B18009368017E43EA4103936090F82030002BEC
:100B28003FD00268536843F4006353600268536817
:100B380023F46043536001684B68426A013A43EA10
:100B480042334B600268D36A23F47003D3620168AE
:100B5800CB6AC269013A43EA0253CB6202689368DE
:100B680023F4007393600268936890F8301043EAA6
:100B7800412393600268936823F48063936002685A
:100B88009368416943EA81239360704702689368D8
:100B980023F0706393600268936823F04053936076
:100BA800B0E70268536823F400635360CAE700BFE4
:100BB800002301400100000F38B310B50446036C50
:100BC80043B1236C13F0100F0BD00120002384F8DD
:100BD8003C3010BDFFF700FE0023636484F83C300E
:100BE800EFE7236C23F4885323F0020343F0020356
:100BF80023642046FFF746FF00206064236C23F03F
:100C0800030343F001032364E0E701207047000079
:100C180010B582B013460022019290F83C20012AB8
:100C280000F0AE800446012280F83C2002689068FB
:100C380010F0010F13D1906840F001009060534A02
:100C48001068534AA2FB0020800C00EB4000019082
:100C580002E001980138019001980028F9D1226832
:100C6800906810F4807F03D0906820F480709060C2
:100C78002268906810F0010F77D0206C20F4E060B3
:100C880020F0010040F480702064526812F4806FF4
:100C980005D0226C22F4405242F480522264226C25
:100CA80012F4805F36D0626C22F006026264002281
:100CB80084F83C20A26B3748D063A26B3648106496
:100CC800A26B3648D06422686FF02200106020685A
:100CD800426842F0806242602068826842F4807212
:100CE800826020680A4600F14C01A06B00F026FEE5
:100CF8002B4B5B6813F01F0F27D12368294A9342B7
:100D080011D002F58072934207D0274A934214D03B
:100D1800002033E000226264C9E702F500725268DD
:100D280012F01F0FF1D19A6812F0405F2AD19A6829
:100D380042F080429A60002020E002F580725268FA
:100D480012F0100FEFD0002018E02368154A9342E4
:100D580001D0002012E09A6812F0405F14D19A681E
:100D680042F080429A60002008E0236C43F01003B0
:100D78002364636C43F001036364002002B010BD78
:100D88000220FBE70020F9E70020F7E70000002039
:100D980083DE1B43D90D0008B70D0008C30D0008FA
:100DA800002301400020014000220140704708B59F
:100DB800806BFFF7FBFF08BD704708B5806B4023C9
:100DC8000364436C43F004034364FFF7F5FF08BD75
:100DD80008B50346806B026C12F0500F25D1036CE6
:100DE80043F40073036403689A6812F0405F19D1F2
:100DF800027EBAB9DA6A12F4700F03D09A6812F454
:100E0800806F0FD15A6822F020025A60036C23F4D5
:100E180080730364036C13F4805F03D1036C43F0A5
:100E280001030364FFF7BAFC08BD026C12F0100F4F
:100E380004D1826BD26C18469047F5E7FFF7BCFFE8
:100E4800F2E7000030B482B00023019390F83C3000
:100E5800012B00F0BB80012380F83C300B68092B84
:100E680041D90468E2689BB203EB43031E3B4FF091
:100E7800070C0CFA03F322EA0303E3600468E26850
:100E88000B8803EB43031E3B8D6805FA03F31343FA
:100E9800E3604B68062B3DD80468626B03EB830361
:100EA800053B4FF01F0C0CFA03F322EA03036363BC
:100EB8000468626B4B6803EB8303053BB1F800C021
:100EC8000CFA03F3134363630268414B9A4251D00F
:100ED80002683F4B9A4256D0002380F83C301846AF
:100EE80002B030BC7047046822699BB203EB43032D
:100EF8004FF0070C0CFA03F322EA0303236104689A
:100F080022690B8803EB43038D6805FA03F3134347
:100F18002361BEE70C2B16D805682A6B03EB830305
:100F2800233B1F2404FA03F322EA03032B63056817
:100F38002A6B4B6803EB8303233B0C8804FA03F307
:100F480013432B63C0E70568EA6A03EB8303413B5D
:100F58001F2404FA03F322EA0303EB620568EA6A32
:100F68004B6803EB8303413B0C8804FA03F31343F8
:100F7800EB62A9E70B68122BAAD1164A536843F40F
:100F880080035360A4E70B68103B012BA4D8114AD7
:100F9800536843F4000353600B68102B9CD10E4B2D
:100FA8001B6802F1467202F52E3202F28332A2FB6E
:100FB80003239B0C03EB83035B00019302E0019B7B
:100FC800013B0193019B002BF9D185E7022087E7BC
:100FD800002001400023014000000020002800F00C
:100FE800A18038B5044690F82030D3B12268136840
:100FF80043F001031360FFF73FFD054623685A6875
:1010080012F0010F10D1FFF737FD401B0A28F5D960
:10101800636A43F400336362052384F820300120B7
:1010280038BDFFF72FFCE1E71A6822F002021A60C8
:10103800FFF722FD054623685A6812F0020F0DD00B
:10104800FFF71AFD401B0A28F5D9636A43F40033F9
:101058006362052384F820300120E1E7227E012A1B
:101068003DD01A6822F080021A60637E012B3BD0C3
:101078002268136823F040031360A37E012B39D044
:101088002268136823F020031360E37E012B37D016
:101098002268136843F010031360237F012B35D0B7
:1010A8002268136823F008031360637F012B33D091
:1010B8002268136823F004031360A368E2681343EB
:1010C80022691343626913436268013A2168134332
:1010D800CB6100206062012384F82030A0E71A6801
:1010E80042F080021A60C0E72268136843F04003A8
:1010F8001360C2E72268136843F020031360C4E753
:101108002268136823F010031360C6E72268136887
:1011180043F008031360C8E72268136843F0040328
:101128001360CAE70120704790F82030013BDBB21A
:10113800012B05D9436A43F4802343620120704799
:1011480010B5474BD3F8002242F00102C3F8002241
:10115800D3F8002222F47C52C3F80022D3F80022EC
:10116800486A42EA0022C3F800224A6902F01F02D4
:10117800012000FA02F2D3F81C026FEA020C20EAFE
:101188000200C3F81C02CB69CBB9354BD3F80C026B
:101198000CEA0000C3F80C028C884869D1F80CE00E
:1011A80044EA0E44483043F830408C68088840EAE6
:1011B80004404C6904F1480E03EBCE035860CB6938
:1011C800012B1ED08B69002B35D12548D0F804326D
:1011D8000CEA0303C0F804320B699BBB2048D0F823
:1011E80014320CEA0303C0F814320B6A012B30D016
:1011F8001B4AD2F8003223F00103C2F80032002063
:1012080010BD174BD3F80C021043C3F80C028C889E
:101218004869D1F800E044EA0E44483043F83040C9
:1012280088894C69D1F808E040EA0E40483403EB5D
:10123800C4035860C6E70A48D0F804321343C0F81C
:101248000432C9E70648D0F814321343C0F8143200
:10125800CBE70349D1F81C321A43C1F81C22C7E76F
:101268000064004070B5044690F82050EDB2012D9E
:1012780006D0436A43F4002343620125284670BD23
:10128800022380F820300268136823F001031360FA
:10129800FFF7F2FB064623685B6813F0010F0CD0DA
:1012A800FFF7EAFB831B0A2BF5D9636A43F4003383
:1012B8006362052384F82030E0E700256562DDE7F6
:1012C80090F820C00CF1FF3C5FFA8CFCBCF1010FD8
:1012D80000F29B8010B451B90468E46814F0030F5D
:1012E80010D1436A43F40013436201207BE0046891
:1012F800246914F0030F05D1436A43F400134362D1
:10130800012070E001F11B042401D0F800C05CF852
:10131800044004F004049460002C66D101F11B041D
:101328002401D0F800C05CF80440640D146004681F
:1013380001F11B0C4FEA0C1C54F80C4004F0020499
:10134800D46004686444646804F00F041461046899
:1013580064446468C4F3072494610468644464685A
:10136800240C5461026802EB0112D2F8B8211A70F9
:10137800026802EB0112D2F8B821C2F307225A70B0
:10138800026802EB0112D2F8B821C2F307429A7040
:10139800026802EB0112D2F8B821120EDA70026864
:1013A80002EB0112D2F8BC211A71026802EB011299
:1013B800D2F8BC21C2F307225A71026802EB01126B
:1013C800D2F8BC21C2F307429A71026802EB0112FB
:1013D800D2F8BC21120EDA7189B90268D36843F0D9
:1013E8002003D360002010BC704701F11B042401C6
:1013F800D0F800C05CF80440E408546097E702683D
:10140800136943F020031361ECE7436A43F4802334
:1014180043620120704790F82030013BDBB2012B7A
:1014280005D9436A43F48023436201207047026868
:1014380053691943516100207047704770477047DE
:1014480070477047704770477047704770477047DC
:1014580070472DE9F84F054603685C69D3F80480A6
:101468009F68D3F80CB0D3F810A0D3F8189014F0F4
:1014780001063BD017F0010616D001229A6017F03A
:10148800020F08D117F0040F0CD117F0080606D088
:101498004FF4805608E0FFF7D0FF002604E0FFF77E
:1014A800CFFF01E04FF4006617F4807F0DD02B6862
:1014B8004FF480729A6017F4007F40F0868017F42A
:1014C800806F00F0868046F4005617F4803F0DD0F8
:1014D8002B684FF480329A6017F4003F40F0838005
:1014E80017F4802F00F0838046F4004614F0080FAC
:1014F80007D01BF0100F04D046F400762B6810229A
:10150800DA6014F0040F02D01BF0080F79D114F040
:10151800020F04D02B68DB6813F0030F78D114F0A6
:10152800400F07D01AF0100F04D046F480662B68DD
:1015380010221A6114F0200F02D01AF0080F6BD194
:1015480014F0100F04D02B681B6913F0030F6AD135
:1015580014F4003F02D018F0100F68D114F4803F43
:1015680002D018F0080F69D114F4004F7AD018F09F
:10157800040F74D014F4807F04D019F0010F01D047
:1015880046F0010614F4007F04D019F0020F01D0D0
:1015980046F0020614F4806F04D019F0040F01D04D
:1015A80046F0040614F4006F59D019F0700956D0AB
:1015B800B9F1400F65D058D8B9F1200F5ED0B9F114
:1015C800300F42D146F0200644E02846FFF736FFA8
:1015D8007BE717F4006F02D046F4804675E728468B
:1015E800FFF72FFF71E72846FFF729FF7EE717F47B
:1015F800002F02D046F4803678E72846FFF722FF0E
:1016080074E72B680822DA602846FFF71CFF7EE79C
:101618002846FEF7A7FF82E72B6808221A612846AA
:10162800FFF713FF8CE72846FFF70EFF90E72B68BC
:1016380010225A602846FFF709FF8FE72B68082217
:101648005A602846FFF703FF8EE7B9F1100F01D162
:1016580046F008062A68936923F0700393612B68A3
:1016680004225A609EB9BDE8F88FB9F1500F0BD02B
:10167800B9F1600FEED146F48076EBE746F010063C
:10168800E8E746F04006E5E746F08006E2E76B6AE1
:101698001E436E622846FFF7DBFEE4E7074AD3687D
:1016A80023F4E0631B041B0C000200F4E060034316
:1016B80043F0BF6343F40033D360704700ED00E0AC
:1016C80000B5194BDB68C3F30223C3F1070CBCF167
:1016D800040F28BF4FF0040C03F1040EBEF1060FEF
:1016E80018D9033B4FF0FF3E0EFA0CFC21EA0C011F
:1016F80099400EFA03F322EA0303194300280BDB8F
:101708000901C9B200F1604000F5614080F800139A
:101718005DF804FB0023E5E700F00F000901C9B2FA
:10172800024B1954F4E700BF00ED00E014ED00E0AF
:10173800002807DB00F01F02400901239340024AFA
:1017480042F82030704700BF00E100E00138B0F1F6
:10175800807F0BD24FF0E0235861054AF02182F8D0
:1017680023100020986107221A61704701207047F2
:1017780000ED00E030B405682C6824F480242C6067
:10178800046863608368402B05D003689960036828
:10179800DA6030BC704703689A600368D960F8E77C
:1017A80010B40368D9B210390B4AA2FB01421209DE
:1017B8000A4CA25CC2655F2908D923F47F7323F021
:1017C800030304338365806D10BC704723F47F7373
:1017D80023F003038365F6E7ABAAAAAA6C250008E1
:1017E800836A826992B9012B0AD0022B02D00BB10D
:1017F80000207047C36A13F0807F28D1002070470B
:10180800C36AB3F1C07F24D000207047B2F5005FEF
:1018180009D0022B25D9032B25D1C36A13F0807F69
:1018280023D100207047032B03D8DFE803F014040A
:10183800140A00207047C36A13F0807F0DD100207E
:101848007047C36AB3F1C07F09D0002070470120F8
:101858007047012070470120704701207047012020
:101868007047012070470020704701207047000032
:1018780070B50446FFF700F9002C5BD0054602233B
:1018880084F83530002384F834302268136823F054
:101898000103136023681A6812F0010F0AD0FFF7DA
:1018A800EBF8431B052BF5D920236365032084F847
:1018B800350070BD1A68204810406168A2680A4364
:1018C800E1680A4321690A4361690A43A1690A4335
:1018D800E1690A43216A0A430243616A04291ED066
:1018E8001A602668756925F00705636A1D43042B8D
:1018F80007D1A36A1D43E36A1BB12046FFF770FFB7
:1019080090B975612046FFF74BFFE26D3F23934086
:10191800836000206065012384F83530C9E7E16AF7
:10192800206B01430A43DBE740236365012084F809
:101938003500BEE70120BCE73F8010F038B504460B
:10194800856D90F8340001282BD0012084F83400EC
:1019580094F83500C0B2012804D0002384F834304C
:10196800022038BD022084F835000020606520463A
:10197800FFF700FFE26D3F239340AB6022681368D6
:1019880043F016031360236C23B12268136843F0F5
:10199800080313602268136843F0010313600020F2
:1019A800DFE70220DDE70000F0B583B0044600233E
:1019B8000193724B1D68724BA3FB0535AD0A876D09
:1019C8003E68C26D08239340334210D003681A68FA
:1019D80012F0040F0BD01A6822F004021A60C26DCC
:1019E80008239340BB60436D43F001034365E26DF8
:1019F80001239340334209D02268526912F0800FC4
:101A080004D0BB60636D43F002036365E26D042399
:101A18009340334209D02268126812F0020F04D0B2
:101A2800BB60636D43F004036365E26D102393406C
:101A3800334224D02268126812F0080F1FD0BB600E
:101A480023681A6812F4802F0DD01B6813F4002F36
:101A580004D1236C9BB12046984710E0A36C73B166
:101A6800204698470BE01A6812F4807F03D11A6861
:101A780022F008021A60236C0BB120469847E26DE9
:101A880020239340334255D02268126812F0100F79
:101A980050D0BB6094F83530DBB2052B0ED02368EC
:101AA8001A6812F4802F33D01B6813F4002F2AD140
:101AB800636C002B3ED0204698473BE022681368B1
:101AC80023F0160313602268536923F080035361DF
:101AD800236CA3B12268136823F008031360E26D36
:101AE8003F239340BB60012384F83530002384F8FA
:101AF8003430236D002B3FD0204698473CE0A36C40
:101B0800002BE7D1EBE7E36BA3B12046984711E040
:101B18001A6812F4807F09D11A6822F010021A603C
:101B2800012384F83530002384F83430E36B0BB19B
:101B380020469847636DFBB1636D13F0010F17D012
:101B4800052384F835302268136823F001031360F5
:101B5800019B01330193AB4204D823681B6813F03F
:101B6800010FF5D1012384F83530002384F834308F
:101B7800E36C0BB12046984703B0F0BD000000208D
:101B8800B5814E1B00230F2B00F2E48070B582B0A4
:101B980060E085685E000324B44025EA0405CC684B
:101BA800B4402C438460456825EA02054C68C4F3B8
:101BB80000129A402A4342605AE0DC08083450F880
:101BC800246003F0070295000F22AA4026EA020EBD
:101BD8000A69AA4042EA0E0240F824205CE0072283
:101BE80000E0002202FA0EF22A4302345A4D45F868
:101BF80024205A4A94686FEA0C0224EA0C054E68BD
:101C080016F4801F01D04CEA0405544CA560E46822
:101C180002EA04054E6816F4001F01D04CEA0405D8
:101C28004E4CE560646802EA04054E6816F4003F0D
:101C380001D04CEA0405494C6560246822404D688F
:101C480015F4803F01D04CEA0402444C2260013371
:101C58000F2B7DD801229A400C6804EA020C32EA64
:101C68000404F4D14C6804F00304013C012C90D91D
:101C78004A6802F00302032A09D0C4685D000322FF
:101C8800AA4024EA02048A68AA402243C2604A6839
:101C980002F00302022A90D004684FEA430E03229E
:101CA80002FA0EF224EA02044A6802F0030202FA77
:101CB8000EF2224302604A6812F4403FC7D0002265
:101CC8000192274A546C44F480445464526C02F4E0
:101CD80080420192019A9C08A51C1F4A52F825507F
:101CE80003F003024FEA820E0F2202FA0EF225EAEF
:101CF80002051C4A90423FF474AF02F5806290429C
:101D08001AD002F58062904218D002F580629042A3
:101D180016D002F58062904214D002F5806290429B
:101D280012D002F58062904210D002F58062904293
:101D38003FF455AF082255E7012253E7022251E745
:101D480003224FE704224DE705224BE7062249E725
:101D580002B070BD704700BF00380140003C014030
:101D680000380240000002400AB18161704709044E
:101D780081617047002800F0E08170B582B00446A8
:101D8800036813F0010F3BD09F4B9B6803F00C03D3
:101D9800042B2CD09C4B9B6803F00C03082B21D000
:101DA8006368B3F5803F4FD0B3F5A02F52D0964B60
:101DB8001A6822F480321A601A6822F480221A60A3
:101DC8006368002B50D0FEF757FE05468E4B1B6804
:101DD80013F4003F14D1FEF74FFE401B6428F5D9D9
:101DE8000320B1E1884B5B6813F4800FD8D0864B91
:101DF8001B6813F4003F03D06368002B00F09F8139
:101E0800236813F0020F54D07F4B9B6813F00C0F1C
:101E18003ED07D4B9B6803F00C03082B33D0E3685E
:101E2800002B68D0794B01221A60FEF725FE054683
:101E3800754B1B6813F0020F54D1FEF71DFE401BB3
:101E48000228F5D903207FE16F4A136843F48033F1
:101E58001360B5E76C4B1A6842F480221A601A685E
:101E680042F480321A60ABE7FEF706FE0546664B81
:101E78001B6813F4003FC3D0FEF7FEFD401B642827
:101E8800F5D9032060E1604B5B6813F4800FC6D17D
:101E98005D4B1B6813F0020F03D0E368012B40F081
:101EA8005081594A136823F0F803216943EAC103B2
:101EB8001360236813F0080F42D063696BB3534B68
:101EC8000122C3F8802EFEF7D7FD05464E4B5B6F07
:101ED80013F0020F34D1FEF7CFFD401B0228F5D9CD
:101EE800032031E1484A136823F0F803216943EAE3
:101EF800C1031360DDE7454B00221A60FEF7BCFD05
:101F08000546414B1B6813F0020FD2D0FEF7B4FD13
:101F1800401B0228F5D9032016E13C4B0022C3F8E8
:101F2800802EFEF7A9FD0546374B5B6F13F0020FB5
:101F380006D0FEF7A1FD401B0228F5D9032003E1D6
:101F4800236813F0040F77D02F4B1B6C13F0805FBE
:101F580033D1002301932C4B1A6C42F080521A643F
:101F68001B6C03F080530193019B0125284B1B68D0
:101F780013F4807F23D0A368012B34D0052B38D0ED
:101F8800214B1A6F22F001021A671A6F22F004021D
:101F98001A67A368002B3DD0FEF76EFD06461A4B64
:101FA8001B6F13F0020F46D1FEF766FD801B41F24E
:101FB80088339842F3D90320C6E00025D6E7144AAF
:101FC800136843F480731360FEF756FD0646104B02
:101FD8001B6813F4807FCED1FEF74EFD801B0228CC
:101FE800F5D90320B0E0084A136F43F001031367E3
:101FF800CFE7054B1A6F42F004021A671A6F42F0D6
:1020080001021A67C5E700BF0038024000004742D6
:1020180000700040FEF730FD0646524B1B6F13F070
:10202800020F08D0FEF728FD801B41F28833984242
:10203800F3D9032088E0EDB9A369002B00F0838071
:10204800484A926802F00C02082A51D0022B17D095
:10205800454B00221A66FEF70FFD0446414B1B68EC
:1020680013F0007F42D0FEF707FD001B0228F5D9C8
:10207800032069E03B4A136C23F080531364DBE7C9
:10208800394B00221A66FEF7F7FC0546354B1B68EC
:1020980013F0007F06D0FEF7EFFC401B0228F5D9AD
:1020A800032051E0E369226A1343626A43EA821318
:1020B800A26A5208013A43EA0243E26A43EA026327
:1020C800284A5360284B01221A66FEF7D5FC0446BD
:1020D800244B1B6813F0007F06D1FEF7CDFC001BD4
:1020E8000228F5D903202FE000202DE000202BE066
:1020F800012B2BD01B4B5B6803F48001E2699142F2
:1021080026D103F03F02216A8A4223D1616A47F649
:10211800C0721A40B2EB811F1ED103F44031A26A8B
:102128005208013AB1EB024F18D103F07063E26A2A
:10213800B3EB026F14D1002006E0012070470120A4
:1021480002E0012000E0002002B070BD0120FBE7A2
:102158000120F9E70120F7E70120F5E70120F3E77F
:102168000120F1E7003802400000474208B5254B3E
:102178009B6803F00C03042B3FD0082B3FD1214B65
:102188005A6802F03F025B6813F4800F12D01D4BAF
:102198005968C1F388111C480023A1FB0001FEF710
:1021A8000FF8184B5B68C3F3014301335B00B0FBC6
:1021B800F3F025E0134B5968C1F3881C4FEA4C1122
:1021C800B1EB0C006EEB0E0E4FEA8E1343EA9063F0
:1021D8008101091A63EB0E03DB0043EA5173C9005E
:1021E80011EB0C0C43F10003990200234FEA8C20F9
:1021F80041EA9C51FDF7E4FFD3E7034800E00348B8
:1022080008BD00BF0038024040787D010024F4007A
:10221800002800F09B8070B50D4604464F4B1B68A4
:1022280003F007038B4208D2CBB24C4A13701368F1
:1022380003F007038B4240F08B80236813F0020FF2
:1022480017D013F0040F04D0454A936843F4E053C1
:102258009360236813F0080F04D0414A936843F44D
:10226800604393603E4A936823F0F003A1680B43F0
:102278009360236813F0010F32D06368012B21D0DB
:102288009A1E012A25D9364A126812F0020F61D027
:1022980033498A6822F0030213438B60FEF7ECFB94
:1022A80006462F4B9B6803F00C036268B3EB820F62
:1022B80016D0FEF7E1FB801B41F288339842F0D933
:1022C800032042E0264A126812F4003FE0D10120C0
:1022D8003BE0234A126812F0007FD9D1012034E094
:1022E8001E4B1B6803F00703AB4207D9EAB21B4B2E
:1022F8001A701B6803F00703AB422DD1236813F053
:10230800040F06D0164A936823F4E053E1680B43A0
:102318009360236813F0080F07D0114A936823F4D9
:102328006043216943EAC1039360FFF71FFF0C4B29
:102338009B68C3F303130B4AD35CD8400A4B18605D
:102348000A4B1868FEF74CFB002070BD012070474F
:102358000120FAE70120F8E70120F6E7003C0240F7
:10236800003802405C25000800000020080000201A
:1023780070B50D4E0D4D761BB61006D0002455F8DD
:10238800043B01349847A642F9D1094E094D761B02
:1023980000F0D4F8B61006D0002455F8043B0134F8
:1023A8009847A642F9D170BD80250008802500080D
:1023B8008825000880250008830730B548D0541EBA
:1023C800002A3FD0CAB2034601E0013C3AD303F8E1
:1023D800012B9D07F9D1032C2DD9CDB245EA05254E
:1023E8000F2C45EA054536D9A4F1100222F00F0C4E
:1023F80003F1200EE6444FEA121C03F1100242E9F1
:10240800045542E9025510327245F8D10CF1010227
:1024180014F00C0F03EB021204F00F0C13D0ACF104
:10242800040323F003030433134442F8045B934288
:10243800FBD10CF003042CB1CAB21C4403F8012BE5
:102448009C42FBD130BD64461346002CF4D1F9E719
:1024580003461446BFE71A46A446E0E7024B13B109
:10246800024800F005B87047000000008524000805
:10247800002301461A46184600F01AB838B5084B2A
:10248800084D5B1B9C1007D0043B1D44013C55F8CC
:1024980004399847002CF9D1BDE8384000F054B809
:1024A8008C25000888250008704700BF704700BFCA
:1024B8002DE9F047DFF87CA00646DAF800009846D8
:1024C8000F469146FFF7F0FF1B4B1B68D3F84841B6
:1024D80024B365681F2D26DC5EB96B1C0235DAF85B
:1024E8000000636044F82570FFF7E0FF0020BDE8B6
:1024F800F08704EB85010123C1F88890D4F888217E
:10250800AB401A43022EC4F88821C1F80881E4D1EF
:10251800D4F88C211343C4F88C31DEE703F5A67494
:10252800C3F84841D5E7DAF80000FFF7BFFF4FF0DE
:10253800FF30DCE73804002074250008F8B500BF38
:10254800F8BC08BC9E467047F8B500BFF8BC08BC8C
:042558009E467047E4
:10255C000000000000000000010203040607080947
:0C256C00000610160006101610000020DB
:0825780080DCFF7F0100000080
:0825800065240008AD0100080C
:0425880089010008BD
:10258C000024F40001000000100000000000000016
:10259C0000000000FC02002064030020CC0300209B
:1025AC00000000000000000000000000000000001F
:1025BC00000000000000000000000000000000000F
:1025CC0000000000000000000000000000000000FF
:1025DC0000000000000000000000000000000000EF
:1025EC0000000000000000000000000000000000DF
:1025FC0000000000000000000000000000000000CF
:10260C0000000000000000000000000000000000BE
:10261C0000000000000000000000000000000000AE
:10262C00000000000000000000000000000000009E
:10263C00000000000000000001000000000000008D
:10264C000E33CDAB34126DE6ECDE05000B00000052
:10265C00000000000000000000000000000000006E
:10266C00000000000000000000000000000000005E
:10267C00000000000000000000000000000000004E
:10268C00000000000000000000000000000000003E
:0C29BC0000000000000000008405002066
:040000050800099551
:00000001FF
